:020000040800F2
:10000000189A0020ED350008AD030008AF03000882
:10001000B1030008B3030008B503000800000000A6
:10002000000000000000000000000000B70300080E
:10003000B903000800000000BB030008BD0300086E
:10004000073600080736000807360008073600089C
:10005000073600080736000807360008073600088C
:100060004D2200088D220008CD2200080736000826
:10007000073600080736000807360008073600086C
:10008000073600080736000807360008073600085C
:100090000736000807360008073600080D23000859
:1000A000073600080736000807360008073600083C
:1000B000073600088B0D00080736000807360008D1
:1000C000073600080736000807360008073600081C
:1000D00007360008E934000807360008073600082C
:1000E000B323000807360008073600080736000863
:1000F00007360008073600080736000807360008EC
:1001000007360008073600080736000807360008DB
:1001100007360008073600080736000807360008CB
:1001200007360008073600080736000807360008BB
:1001300000F002F800F05AF80AA090E8000C82449F
:100140008344AAF10107DA4501D100F04FF8AFF27C
:10015000090EBAE80F0013F0010F18BFFB1A43F0A5
:10016000010318470CF000002CF000000A444FF087
:10017000000C10F8013B13F0070408BF10F8014B06
:100180001D1108BF10F8015B641E05D010F8016B4B
:10019000641E01F8016BF9D113F0080F1EBF10F8AF
:1001A000014BAD1C0C1B09D16D1E58BF01F801CBD2
:1001B000FAD505E014F8016B01F8016B6D1EF9D555
:1001C0009142D6D37047000000230024002500266A
:1001D000103A28BF78C1FBD8520728BF30C148BFAA
:1001E0000B6070471FB51FBD10B510BD05F0A5FD14
:1001F0001146FFF7F7FF00F078F805F0C3FD03B4F0
:10020000FFF7F2FF03BC03F019F900002DE9F05FDE
:100210000C225749574800F087FE55485649574A1F
:1002200090F80080564B574C574D584E584FDFF8BA
:1002300064C1DFF86491DFF864A1DFF864B1B8F15C
:10024000010F35D0012008701070187020702870D0
:10025000307038708CF80000002089F800008AF8AF
:1002600000008BF8000000BF00F0C0F906F0CCF9E8
:100270004C4806F097FA022006F0BAFA01F078F836
:1002800000F03FFF01F08DF801F0E5F801F023F9EF
:1002900001F061F901F092F901F0C3F901F0F4F90C
:1002A00001F021FA02F0EFFABDE8F05F02F05CBD68
:1002B00090F8018081F8008081781170C178197000
:1002C000017921704179297081793170C179397052
:1002D000017A8CF80010427A89F80020827A8AF834
:1002E0000020C17A8BF80010BEE703F05BF801F044
:1002F00013FF01F085FD00F019FD02F07FF805F015
:1003000084FB0121402003F021FCFFF77FFF184D03
:10031000254C0C3502F03EFA2078022808D802F06D
:10032000B2FA2078022801D102F031FE02F01CFD61
:100330002078032803D102F06DFE02F019FE207828
:10034000042803D102F0E4FE02F095FF02F020FF42
:10035000A87A0128DED102F0C5F801F0F3F901F026
:1003600023FA01F053FA01F0B2FA01F019FBD1E7D8
:100370005005002000F80308D6030020D703002012
:10038000D8030020D9030020DA030020DB0300207B
:10039000DC030020DD030020DE030020DF0300205B
:1003A000E0030020A0E70008D20300207047FEE72A
:1003B000FEE7FEE7FEE770477047704770470000B2
:1003C0000CB500214B4801910091026842F4803243
:1003D00002604FF4A063026802F400320092019AB6
:1003E000521C0192009A12B9019A9A42F3D1026802
:1003F000920333D5012100913F490A6842F010026F
:100400000A600A6822F003020A600A6842F00202E7
:100410000A604168416041684160416841F480611F
:100420004160416821F47C114160416841F4E81168
:100430004160016841F08071016001688901FCD56B
:10044000416821F003014160416841F002014160CF
:100450004168C1F381010229FAD10CBD00910CBDA4
:10046000244810B5016841F0010101604168234A48
:10047000114041600168224A11400160016821F485
:1004800080210160416821F4FE0141604FF41F01A9
:100490008160FFF795FF1B494FF00060086010BDB9
:1004A000144910B54868184A10F00C03174803D0D7
:1004B000042B01D0082B0AD002604968134AC1F30B
:1004C0000311121D515C0268CA40026010BD4A68E7
:1004D0004B6802F470124FF0020413F4803F04EBF7
:1004E000924202D04B689B0301D5094B00E0064BBA
:1004F0005A43E1E700100240002002400000FFF8EC
:10050000FFFFF6FE08ED00E000127A000000002078
:1005100000093D002DE9F0474FF480590546494652
:10052000FE4E304603F0A1F900244FF40048771442
:100530003946304603F099F928064146304602D53F
:1005400003F091F901E003F090F93946304603F0E9
:100550008AF96806641C050EE4B2082CE8D3494603
:100560003046BDE8F04703F07EB910B504464FF4BD
:100570000071EB4803F077F92046BDE81040C9E769
:1005800010B504464FF40071E54803F06CF9C4F36C
:100590000720FFF7BFFFE0B2BDE81040BAE710B593
:1005A00004464FF40071DE4803F05FF92046BDE8D1
:1005B0001040AFE72DE9F04107461C4615460E46B0
:1005C0002A20FFF7ECFF781CFFF7DAFF681CFFF723
:1005D000D7FF2B20FFF7E3FFB01CFFF7D1FFA01CD4
:1005E000FFF7CEFFBDE8F0412C20D8E72DE9F84316
:1005F00001210C2003F0B3FA4FF47046ADF800600F
:100600001024DFF818838DF8034003258DF802507D
:100610006946404603F0B9F83146404603F023F9F5
:10062000BF4F6601ADF800606946384603F0ADF88B
:100630003146384603F017F92601ADF800608DF811
:1006400003408DF802506946384603F09EF80821B1
:10065000404603F008F9A4022146404603F005F99C
:10066000C82002F0CDFE2146404603F0FCF8C82029
:1006700002F0C6FE3146384603F0F5F81120FFF7C8
:100680008EFF782002F0BCFEB120FFF788FF052026
:10069000FFF76BFF3C20FFF768FF3C20FFF765FF8B
:1006A000B220FFF77CFF0520FFF75FFF3C20FFF73C
:1006B0005CFF3C20FFF759FFB320FFF770FF0520D8
:1006C000FFF753FF3C20FFF750FF3C20FFF74DFFA3
:1006D0000520FFF74AFF3C20FFF747FF3C20FFF7CC
:1006E00044FFB420FFF75BFF0320FFF73EFFC0206D
:1006F000FFF755FF2820FFF738FF0820FFF735FFE9
:100700000420FFF732FFC120FFF749FFC020FFF7A9
:100710002CFFC220FFF743FF0D20FFF726FF00202C
:10072000FFF723FFC320FFF73AFF8D20FFF71DFFE0
:100730002A20FFF71AFFC420FFF731FF8D20FFF7B3
:1007400014FFEE20FFF711FFC520FFF728FF1A2046
:10075000FFF70BFF3620FFF722FF7020FFF705FFA2
:10076000E020FFF71CFF0420FFF7FFFE2220FFF729
:10077000FCFE0720FFF7F9FE0A20FFF7F6FE2E2009
:10078000FFF7F3FE3020FFF7F0FE2520FFF7EDFE28
:100790002A20FFF7EAFE2820FFF7E7FE2620FFF7D2
:1007A000E4FE2E20FFF7E1FE3A20FFF7DEFE0020F8
:1007B000FFF7DBFE0120FFF7D8FE0320FFF7D5FE91
:1007C0001320FFF7D2FEE120FFF7E9FE0420FFF738
:1007D000CCFE1620FFF7C9FE0620FFF7C6FE0D204F
:1007E000FFF7C3FE2D20FFF7C0FE2620FFF7BDFE5A
:1007F0002320FFF7BAFE2720FFF7B7FE2720FFF7D9
:10080000B4FE2520FFF7B1FE2D20FFF7AEFE3B2002
:10081000FFF7ABFE0020FFF7A8FE0120FFF7A5FEC3
:100820000420FFF7A2FE1320FFF79FFE3A20FFF7F8
:10083000B6FE0520FFF799FE2920FFF7B0FEBDE8C0
:10084000F88370B5064600217F239F220846FFF7F4
:10085000B1FE002400253046FFF792FE6D1C802D6E
:10086000F9D3641CA02CF5D370BD2DE9F0471C46CC
:10087000DDF820A01646102B02D0202C02D002E07A
:10088000284D00E0284D0B190219521E5B1EFFF780
:1008900091FE6443C4F3C70706FB0756DFF8889050
:1008A00000254FF00108A9F1040912E00024317875
:1008B00008FA04F0014201D0504601E0D9F80000E6
:1008C000FFF75EFE641CE4B2082CF0D36D1CEDB2A1
:1008D000761CBD42EAD3BDE8F0872DE9F047174604
:1008E000DDE9085A102B02D0202B04D006E0102D91
:1008F00004D10C4E02E0202D00D10B4EDC085A072B
:1009000000D0641C4B1900EBC402521E5B1EFFF7A3
:1009100051FE6C4307FB0467002607E0000C014012
:100920000014014098020020180000204FF0010838
:10093000DFF8E89312E00025397808FA05F0014263
:1009400001D0504601E0D9F80000FFF719FE6D1CF8
:10095000EDB2082DF0D3761CF6B27F1CA642EAD386
:10096000B9E710B514460B460246FFF723FE2046B2
:10097000BDE8104004E62DE9F0471F4616460C4638
:100980008046DDF82090FFF715FE08E0454603E0BD
:100990004846FFF7F5FD6D1CB542F9D9641CBC4211
:1009A000F4D998E708B54B1C0092421C401E491E22
:1009B000FFF7E1FF08BD2DE9FE4F151ACDE9001044
:1009C0004FF000085E1A47464FF0FF30002D02DD61
:1009D0004FF0010102E003D14FF000018B4602E02D
:1009E0008346C5F10005002E02DD4FF0010002E054
:1009F00003D14FF00000824602E08246C5F10006B6
:100A0000B54201DD2C4600E03446601C4FF0000981
:100A1000029015E0DDE900100C9AFFF7A2FFA84450
:100A20003744A04504DD0198A8EB04085844019020
:100A3000A74203DD00983F1B5044009009F10109D3
:100A400002998945E6D3BDE8FE8F2DE9F8431D469E
:100A5000089C1646884607460B460094FFF7ABFFF6
:100A60003A462B46414610460094FFF7A4FF2B461A
:100A70003246194638460094FFF79DFF32462B4612
:100A8000414610460094FFF796FFD8E62DE9FF4F48
:100A900081B00E4607460025039C39E0711B381BC8
:100AA00088468246049AFFF75CFF38194146814622
:100AB000049AFFF756FF3119781B8B468046049A3B
:100AC000FFF74FFF311B40460091049AFFF749FFA3
:100AD000711988464846049AFFF743FF7819814602
:100AE000049A0099FFF73DFF59464846049AFFF7DC
:100AF00038FF41465046049AFFF733FF6D1C05FB53
:100B000005F004FB040103984043814200DD641EAC
:100B1000A542C3DD05B0BDE8F08F2DE9F05F1C46AE
:100B20008846814690282BD80846B8F1700F27D800
:100B3000203AD6B200F10F0309F1070241464846B8
:100B4000FFF738FD7648002C4FF000041AD083469A
:100B500004EB061100251BF8017008EB040AF807E6
:100B600005D0514609EB05000A9AFFF7FAFE6D1C05
:100B70007F08EDB2082DF2D3641CE4B2102CE7D349
:100B8000BDE8F09FDFF894814FEA000904EB0611FD
:100B9000002519F80170F80701D00A9801E0D8F88B
:100BA0000000FFF7EDFC6D1C7F08EDB2082DF2D3BD
:100BB000641CE4B2102CE9D3E2E72DE9F8431F46A8
:100BC00016460D4604464FF4784813E0902C01D9A0
:100BD00000241035702D04D9002425464046FFF727
:100BE00030FE00973278002329462046FFF795FF14
:100BF0000834761C30780028E8D120E6024601202F
:100C000000E05043491EC9B2FBD270472DE9F84FAE
:100C100000261D4691468A4607463446DDF8288060
:100C200025E0281B401EC1B20A20FFF7E7FFB9FBF1
:100C3000F0F00A21B0FBF1F201FB120026B9691EA7
:100C40008C4201DA40B101263030C2B207EBC40059
:100C50000023CDF8008005E0002307EBC40020222C
:100C6000CDF800805146FFF758FF641CE4B2AC4257
:100C7000D7D3BDE8F88F2DE9F84F8A4680461D4648
:100C800028491046DDF8289008F06CF808F036F88E
:100C90000746002429E0281B401EC1B20A20FFF7A6
:100CA000ADFFB7FBF0F00A21B0FBF1F201FB120639
:100CB000A81E84420DD108EBC50000232E22514608
:100CC0001038CDF80090FFF728FF641C6D1CE4B2CB
:100CD000EDB23036F2B208EBC40000235146CDF835
:100CE0000090FFF71AFF641CE4B2AC42D3D3C0E714
:100CF00070B5FFF75FFC0C4D002442F2F85600BFC0
:100D000005EB44004078FFF730FC15F81400FFF7BE
:100D10002CFC641CB442F3DB70BD00001400002006
:100D2000FC8E00080000C842EC9400087FB5012149
:100D3000022002F01DFF40F2E730ADF8040040F25F
:100D4000CF20ADF800000024654DADF80640ADF8A9
:100D500002406946284603F053FD01221146284609
:100D600004F00CF81D208DF80C008DF80D400320C8
:100D70008DF80E0001208DF80F0003A802F05BFC37
:100D80000121284603F0E5FF7FBD2DE9F041544CD9
:100D90000121204604F007FA002875D001212046E1
:100DA00004F00DFA4F485049504A87697F1C87610B
:100DB000C669761CC661056A6D1C0562446A641CBE
:100DC0004462836A5B1C836291F800C00021BCF11D
:100DD000010F15D01160464A92F800C0012280F838
:100DE00009C0BCF1020F17D890F80BC00CF1010C30
:100DF0000CF0FF0C80F80BC0BCF1010F07D008E02D
:100E0000D2F800C00CF1010CC2F800C0E3E7827216
:100E1000C172642F02D003E08172F9E780F83920B3
:100E2000642E01D180F83A20642D01D180F83B2056
:100E3000642C01D180F83C20642B01D180F83D2046
:100E4000837C4FF49674012B1FD0C162C37C012BAD
:100E500024D00163037C274C012B28D0437C012B39
:100E600025D0437B012B22D0837B012B1FD0C37B5A
:100E7000012B1CD0204BD3F82C51C5B1D3F8243111
:100E8000ABB1C4F8841127E01BE0C36A5B1CC362EA
:100E9000A342DBD180F83E208174D7E7036B5B1C53
:100EA0000363A342D6D180F83F20C174D2E790F803
:100EB00037305B1CDBB280F83730322B03D2C4F8FA
:100EC0008421BDE8F081A3F13202322A02D2C4F8B3
:100ED0008411F6E7642BF4D180F83710F1E70000B5
:100EE000000400405C050020E2030020780300209D
:100EF000D203002000802242000023420088704775
:100F00002DE9F04116460F460546002408E000BFD3
:100F100037F81410284603F0B4FA641CA4B2AD1CD0
:100F2000B442F5D3BDE8F08110B5002306E000BF60
:100F300030F8024B21F813405B1C9BB29342F7D36D
:100F400010BD2DE9F05FA0F1006415468A46834686
:100F5000B4F5802F53D203F096F9E70AC4F349069B
:100F6000C6F58064A54200D82C46DFF8A49000BFE7
:100F70004FF0006000EBC72080464FF480622449A8
:100F8000FFF7D2FF00204FF6FF7106E0331839F863
:100F900013208A4203D1401C80B2A042F6D3A04263
:100FA00025D2404603F0AAF90020494607E000BFD9
:100FB0003AF810208319401C21F8132080B2A04277
:100FC000F6D3134940464FF4806200BFFFF798FF05
:100FD000A54210D0281B0AEB440AA344002685B280
:100FE0004FF480647F1CA542C2D82C46C0E722463D
:100FF00051465846EAE7BDE8F05F03F050B9BDE856
:10100000F09F13B5012201A9FFF79BFF1CBD000053
:10101000D4050020F8490020C1F8B001C1F8B4019E
:10102000C1F8B801C1F8BC01F449C1F8AC01C1F87C
:10103000A801F34AC2F8B001C2F8B801C2F8B4017D
:10104000C1F88401C1F88001EE49C1F89001EE4970
:10105000C1F89C017047E8480021C0F8B011C0F801
:10106000B411C0F8B8117047E3490020C1F8BC01C1
:10107000E249C1F8AC01C1F8A8017047E04800217D
:10108000C0F8B011C0F8B811C0F8B4117047DE490B
:101090000020C1F89001DB4AC2F8A401C1F8B001F8
:1010A0007047D9490020C1F89401D64AC2F8A0017E
:1010B000C1F8AC017047D4490020C1F89801D14A69
:1010C000C2F89801C1F8A8017047CC480021C0F8C7
:1010D0008411C0F880117047CA490020C1F89001FE
:1010E000C949C1F89C01704710B5C54C0120C4F82E
:1010F00084011E2004F5C27402F082F900202060F1
:1011000010BD70B5BE4C0125C4F88451192004F5FA
:10111000C27402F075F900262660192002F070F9F9
:101120002560192002F06CF9266070BD70B5B24CD4
:101130000125C4F8B451322004F5D87402F060F9E6
:10114000256070BDAC490120C1F8B4017047AA49BF
:101150000120C1F8B8017047A7480021C0F8B011BC
:10116000C0F8B411C0F8B811704710B5A3480124F5
:10117000C0F8AC41322002F043F99F48C0F8BC41AE
:1011800010BD9E490120C1F8AC0170479B49012068
:10119000C1F8A801704798490020C1F8BC019749DF
:1011A000C1F8AC01C1F8A801704770B5944C012595
:1011B000C4F8B851322004F5D87402F021F9256042
:1011C00070BD8F490120C1F8B80170478C490120DA
:1011D000C1F8B40170478A480021C0F8B011C0F8C6
:1011E000B811C0F8B411704787490020C1F89001C8
:1011F000C1F8B0018349C1F8A401704770B58348B4
:1012000000210122067880487E4B0224804D012E69
:1012100009D0022E06D1C0F89011C0F8B011C3F861
:10122000A4212C7070BDC0F89011C0F8B021C3F893
:10123000A411F6E774480121C0F890110021C0F80C
:10124000B0117048C0F8A41170476F490020C1F870
:101250009401C1F8AC016B49C1F8A001704770B5A9
:101260006C480021012206786748664B0224684DCD
:10127000012E09D0022E06D1C0F89411C0F8AC118D
:10128000C3F8A0212C7070BDC0F89411C0F8AC2137
:10129000C3F8A011F6E75C480121C0F894110021C1
:1012A000C0F8AC115748C0F8A0117047564900204B
:1012B000C1F89801C1F8A8015249C1F898017047D6
:1012C00070B555480021012206784F484D4B022445
:1012D0004F4D012E09D0022E06D1C0F89811C0F84A
:1012E000A811C3F898212C7070BDC0F89811C0F8EF
:1012F000A821C3F89811F6E743480121C0F89811D6
:101300000021C0F8A8113F48C0F8981170473B4829
:101310000121C0F884110021C0F8801170473748BE
:101320000021C0F884110121C0F8801170473348B2
:101330000021C0F88411C0F88011704731490120A4
:10134000C1F8900130490020C1F89C0170472D4937
:101350000020C1F890012C490120C1F89C01704780
:1013600028490020C1F890012749C1F89C01704725
:101370002A4801210022017080F8231080F82210F1
:101380004170027242758275C2758276244842723B
:10139000017380F8421080F8431080F84410827482
:1013A000704770B51F480025012300781E4A0128A8
:1013B0000AD0114C022813D0032837D004281AD1A0
:1013C000D07801283ED040E01078012802D1FFF704
:1013D00042FE157053709370D370BDE87040A5E65F
:1013E0005078012802D1FFF736FE557013709370C4
:1013F000D370C4F8B43170BD000023420080214294
:10140000008022420000224200002142DE03002030
:10141000D2030020DF030020E0030020B0050020FD
:101420005C050020D60300207C0300209078012872
:1014300002D1FFF710FE957013705370D370C4F88B
:10144000B831D8E7FFF707FED5701370537093706B
:10145000BDE8704080E670B5FE48002501230078A5
:10146000FD4A01280AD0FD4C022813D003281DD0C4
:101470000428C0D1D079012824D026E01079012891
:1014800002D1FFF7F1FD157153719371D371BDE86E
:1014900070406AE65079012802D1FFF7E5FD5571E9
:1014A00013719371D371C4F8AC31A4E7907901281A
:1014B00002D1FFF7D9FD957113715371D371C4F83F
:1014C000A83198E7FFF7D0FDD5711371537193716F
:1014D000BDE870405FE670B5E14800250123007863
:1014E000DD4A01280AD0DF4C022813D003281DD082
:1014F00004281AD1D07A012824D026E0107A0128B5
:1015000002D1FFF7BBFD157253729372D372BDE81F
:1015100070404AE6507A012802D1FFF7AFFD5572BC
:1015200013729372D372C4F8B83164E7907A0128C9
:1015300002D1FFF7A3FD957213725372D372C4F8F0
:10154000B43158E7FFF79AFDD57213725372937254
:10155000BDE870403FE670B5C348C44E0124007832
:101560000025BD4B01280AD0022813D0032824D11E
:10157000BF4880F84240987B012816D018E0187BBD
:10158000012802D1FFF783FD1D735C739C73FFF785
:101590002BFE11E0587B012802D1FFF778FD5D7327
:1015A0001C739C73BDE8704028E6FFF770FD9D73C7
:1015B0001C735C73FFF73EFE35701CE770B5AD48D9
:1015C000AD4E012400780025A34B01280AD0022843
:1015D00013D0032824D1A64880F84340587C012822
:1015E00016D018E0D87B012802D1FFF75AFDDD7331
:1015F0001C745C74FFF729FE11E0187C012802D1ED
:10160000FFF74FFD1D74DC735C74BDE8704026E687
:10161000FFF747FD5D74DC731C74FFF73CFE35700B
:10162000E9E670B59548964E0124007800258A4B6E
:1016300001280AD0022813D0032824D18C4880F82E
:101640004440187D012816D018E0987C012802D16A
:10165000FFF731FD9D74DC741C75FFF727FE11E068
:10166000D87C012802D1FFF726FDDD749C741C751F
:10167000BDE8704024E6FFF71EFD1D759C74DC7408
:10168000FFF73AFE3570B6E67E4810B500780024C4
:101690000123714A012807D0022810D0032821D144
:1016A000D07D012816D018E0507D012802D1FFF727
:1016B0000CFD54759375D375BDE8104027E6907DF9
:1016C000012802D1FFF701FD94755375D375BDE86C
:1016D000104024E6FFF7F9FCD47553759375BDE807
:1016E000104024E610BD684810B50078002401239E
:1016F000594A012807D0022810D0032821D1907E12
:10170000012816D018E0107E012802D1FFF7E4FC72
:10171000147653769376BDE810400FE6507E01288C
:1017200002D1FFF7D9FC547613769376BDE81040CA
:101730000DE6FFF7D1FC947613765376BDE81040A2
:101740000EE610BD3EB54A490020504B4A7B012AA7
:1017500006D0C3F8A00100900190222302900FE070
:101760003D4A0124D476C3F8A04191F839306BB1D9
:10177000D076886181F8390000900190242302908E
:10178000A3221321742004F0BDFE3EBD404805F0A5
:1017900009F8FF2004F0FEFF03B01422BDE830403A
:1017A00075213CA004F0A6BE3EB5314900203C4B5B
:1017B0008A7B012A06D0C3F89C0100900190342353
:1017C00002900FE0244A01241477C3F89C4191F859
:1017D0003A306BB11077C86181F83A0000900190FF
:1017E00036230290A3222521742004F08BFE3EBDF7
:1017F0002C4804F0D7FFFF2004F0CCFF03B02622D2
:10180000BDE83040752123A004F074BE3EB51849F0
:101810000020144BCA7B012A08D0C3F8BC01462320
:10182000A322009001903721029011E00A4A01247E
:101830005477C3F8BC4191F83B30ABB350770862A2
:1018400081F83B004B23A322009001903A210290A3
:1018500074202AE0D70300207C030020008021426E
:10186000D803002000802242DB030020DE0300209A
:101870005C050020DC030020DF030020DD030020E6
:10188000E0030020D9030020DA03002000002142F9
:1018900024C200084F7665726C6F6164000000001E
:1018A0000000224248CA000802E004F02BFE3EBDC0
:1018B000FE4804F077FFFF2004F06CFF382275210A
:1018C000AFF2300003B0BDE8304004F013BE2DE9A4
:1018D000FE43F74FD7F82C1100240120F54DF64EAA
:1018E000012904D0A877E877B074804646E0317CBF
:1018F000012902D0C7F8A8410AE0A877E877C7F81D
:10190000A80196F83C0070B1AC77746286F83C4050
:10191000009401946D23A3225C217420029404F0AE
:10192000F1FDBDE8FE83E14804F03CFFFF2004F038
:1019300031FF5D227521AFF2A40003B0BDE8F04392
:1019400004F0D8BDEC77009401946D23A3225C21B0
:101950007420029404F0D6FDE87F0128F2D0D34829
:1019600004F020FFFF2004F015FF5D227521D3A0B5
:1019700004F0C0FDC7F8A841C7F8948196F83E006E
:101980000028E9D002E0A97F012902D00128FAD07D
:10199000C7E7AC77C7F89441F46286F83E40B7E7F2
:1019A0002DE9FE43C24FD7F8242100240120C54968
:1019B000C04DC14E012A07D085F8200085F82100CE
:1019C000F074814688464CE0727C012A02D0C1F84E
:1019D00094410DE085F8200085F82100C1F89401BC
:1019E00096F83D0070B185F82040B46286F83D401D
:1019F000009401947F23A3226E217420029404F0AA
:101A000081FD8EE7A94804F0CDFEFF2004F0C2FE60
:101A10006F227521AFF2841003B0BDE8F04304F0EB
:101A200069BD00BF85F82140009401947F23A32263
:101A30006E217420029404F065FD00BF95F821002A
:101A40000128EFD0994804F0ADFEFF2004F0A2FE7B
:101A50006F22752199A004F04DFDC8F89441C7F894
:101A6000989196F83F000028E8D003E095F8201000
:101A7000012902D00128F9D053E785F82040C7F8A2
:101A80009841346386F83F40B2E710B58E4804F0C1
:101A900089FE4FF47F44204604F07CFE2822462134
:101AA0008AA004F027FD4622114689A004F022FDF9
:101AB0006422482187A004F01DFD874804F072FECF
:101AC000022004F095FE204604F064FE0522BDE8E5
:101AD0001040252181A004F00DBD10B57A4804F016
:101AE00061FE4FF47F44204604F054FE2822462134
:101AF00076A004F0FFFC4622114675A004F0FAFC23
:101B00006422482173A004F0F5FC734804F04AFEF7
:101B1000022004F06DFE204604F03CFE0522BDE8E4
:101B20001040252170A004F0E5BC10B5664804F013
:101B300039FE4FF47F44204604F02CFE2822462133
:101B400062A004F0D7FC4622114661A004F0D2FC4A
:101B5000642248215FA004F0CDFC5F4804F022FE1F
:101B6000022004F045FE204604F014FE0522BDE8E4
:101B7000104025215FA004F0BDBC10B5524804F010
:101B800011FE4FF47F44204604F004FE23223E2140
:101B90005BA004F0AFFC39223C215BA004F0AAFC5E
:101BA0004F223C215AA004F0A5FC65223C215AA0FA
:101BB00004F0A0FC484804F0F5FD022004F018FEF3
:101BC000204604F0E7FD0522BDE81040232154A083
:101BD00004F090BC10B53C4804F0E4FD4FF47F44A1
:101BE000204604F0D7FD23223E2145A004F082FCCC
:101BF00039223C2144A004F07DFC4F223C2144A02A
:101C000004F078FC65223C2143A004F073FC3248C8
:101C100004F0C8FD022004F0EBFD204604F0BAFDFC
:101C20000522BDE81040232140A004F063BC10B59C
:101C3000254804F0B7FD4FF47F44204604F0AAFD88
:101C400023223E212EA004F055FC39223C212EA057
:101C500004F050FC4F223C212DA004F04BFC6522E7
:101C60003C212DA004F046FC1B4804F09BFD022003
:101C700004F0BEFD204604F08DFD0522BDE81040B5
:101C800023212DA004F036BC10B50F4804F08AFDC6
:101C90004FF47F44204604F07DFD2822402129A0F6
:101CA00004F028FC46223C2128A053E048CA000842
:101CB000000023427C0300205C05002050726F74FA
:101CC0006563740000002242E8D400084E4F4E00C5
:101CD000564F4C0049435000A0E700085072653150
:101CE0002D42696173000000507265322D426961B6
:101CF00073000000507265332D426961730000006B
:101D00002D31306442000000202B3064420000007E
:101D10002B313064420000002B323064420000005E
:101D2000507265312D4761696E0000005072653256
:101D30002D4761696E000000507265332D4761695F
:101D40006E0000002B304442000000002B32304473
:101D50004200000004F0CEFB64223C211EA004F0EF
:101D6000C9FB1F4804F01EFD022004F041FD20467F
:101D700004F010FD0522BDE810401E2119A004F05A
:101D8000B9BB10B51A4804F00DFD4FF47F4420464E
:101D900004F000FD28224021AFF2580004F0AAFB15
:101DA00046223C21AFF25C0004F0A4FB64223C21FB
:101DB00009A004F09FFB0A4804F0F4FC022004F0A0
:101DC00017FD204604F0E6FC0522BDE810401E2168
:101DD00008A004F08FBB00002B3236444200000004
:101DE000A0E70008416D70312D4761696E00000069
:101DF000E8D40008416D70322D4761696E00000023
:101E00002DE9F84F01217C2001F0A9FE4FF0800858
:101E1000ADF8008010208DF80300DFF8E89203246D
:101E20008DF802406946484601F0AFFC80214846E3
:101E300001F01BFD1020ADF800006946484601F096
:101E4000A4FC1021484601F010FD4FF0200AADF827
:101E500000A06946484601F098FC2021484601F060
:101E600004FD4FF0400BADF800B06946484601F064
:101E70008CFC4021484601F0F8FC4FF48070ADF82E
:101E800000006946484601F080FC4FF480714846E6
:101E900001F0EBFC4FF48065ADF800506946484610
:101EA00001F073FC2946484601F0DFFC6F00ADF8F5
:101EB00000706946484601F068FC3946484601F022
:101EC000D4FCAE00ADF800606946484601F05DFC08
:101ED0003146484601F0C9FC0120ADF80000102051
:101EE0008DF803008DF802406946874801F04DFCEB
:101EF0000121854801F0B9FC4FF00209ADF80090CE
:101F00006946814801F041FC02217F4801F0ADFCA7
:101F1000ADF8005069467C4801F037FC29467A4804
:101F200001F0A3FCADF800706946774801F02DFC84
:101F30003946754801F099FC1020ADF800008DF885
:101F400003008DF802406946704801F01EFC102124
:101F50006E4801F08AFCADF800B069466B4801F0AC
:101F600014FC4021694801F080FCA810ADF8000085
:101F70006946664801F009FCA910644801F075FC47
:101F80006F10ADF800706946604801F0FEFB3946FD
:101F90005E4801F06AFCADF800A069465B4801F0BC
:101FA000F4FB2021594801F060FCADF8008069463F
:101FB000564801F0EAFB8021544801F056FCADF888
:101FC000009010208DF803008DF8024069465048BB
:101FD00001F0DBFB02214E4801F047FCADF8006048
:101FE00069464B4801F0D1FB3146494801F03DFCC0
:101FF000EF00ADF800706946454801F0C6FB394670
:10200000434801F032FC4FF48048ADF80080694647
:102010003F4801F0BAFB41463D4801F026FC4FF431
:102020000049ADF800906946394801F0AEFB4946D9
:10203000374801F01AFCADF8006010208DF803005D
:102040008DF802406946334801F09FFB3146314824
:1020500001F00BFCADF8007069462E4801F095FBCD
:1020600039462C4801F001FCADF80080694629484A
:1020700001F08BFB4146274801F0F7FBADF80090DB
:102080006946244801F081FB4946224801F0EDFBF6
:10209000ADF8005069461F4801F077FB29461D48FE
:1020A00001F0E3FBADF800A069461A4801F06DFBB2
:1020B0002021184801F0D9FBADF800B06946154859
:1020C00001F063FB4021134801F0CFFBBDE8F88F1E
:1020D00038B50121602001F042FDFC20ADF8000080
:1020E00048248DF803406946094801F04EFB40F64C
:1020F0001C20ADF800008DF803406946054801F04A
:1021000044FB38BD00080140000C014000100140B4
:102110000014014000180140FEB50121084601F0FD
:102120001EFD0121202001F01AFDFFF7D1FF022141
:10213000032001F0E2FB002504208DF804500C265A
:1021400000908DF8056001248DF80640684603F084
:1021500047F80321084601F0D0FB8DF8045008270A
:102160008DF8056000978DF80640684603F038F852
:102170000421032001F0C1FB10208DF804500090D1
:102180008DF805608DF80640684603F029F80521B2
:10219000032001F0B2FB20208DF8045000908DF850
:1021A00005608DF80640684603F01AF80621032002
:1021B00001F0A3FB40208DF8045000908DF80560DD
:1021C0008DF80640684603F00BF80721032001F064
:1021D00094FB80208DF8045000908DF805608DF8F8
:1021E0000640684602F0FCFF8DF808708DF8095033
:1021F0008DF80A408DF80B4002A801F01CFA092066
:102200008DF808008DF8095002208DF80A008DF82D
:102210000B4002A801F00FFA0A208DF808008DF893
:10222000095003208DF80A008DF80B4002A801F038
:1022300002FA17208DF808008DF809408DF80A5031
:102240008DF80B4002A801F0F6F9FEBD10B5042090
:1022500003F016F8A8B1042003F020F8654CD4F878
:10226000080170B90A2001F0CBF8D4F8080140B990
:10227000614801210170002141708170C1700171BC
:102280004171BDE81040042003F008B810B50820E3
:1022900002F0F6FFA8B1082003F000F8554CD4F87E
:1022A0000C0170B90A2001F0ABF8D4F80C0140B968
:1022B000514800210122017042708170C17001718A
:1022C0004171BDE81040082002F0E8BF10B51020B1
:1022D00002F0D6FFA8B1102002F0E0FF454CD4F880
:1022E000100170B90A2001F08BF8D4F8100140B940
:1022F000414800210122017041708270C17001715A
:102300004171BDE81040102002F0C8BF2DE9F04136
:10231000202002F0B5FF0025374C364E012788B14A
:10232000202002F0BBFFD6F8140158B90A2001F0B2
:1023300067F8D6F8140128B925706570A570E770A4
:1023400025716571402002F09BFF88B1402002F0AA
:10235000A5FFD6F8180158B90A2001F051F8D6F8AF
:10236000180128B925706570A570E5702771657131
:10237000802002F085FF88B1802002F08FFFD6F820
:102380001C0158B90A2001F03BF8D6F81C0128B905
:1023900025706570A570E57025716771202002F0C9
:1023A0007DFF402002F07AFFBDE8F041802002F07E
:1023B00075BF10B54FF48064204602F061FF10B184
:1023C000204602F06BFF4FF40064204602F058FFF5
:1023D00010B1204602F062FF4FF48054204602F014
:1023E0004FFF002804D02046BDE8104002F056BF41
:1023F00010BD0000008022429E03002030B587B04F
:1024000001214FF4057001F0AAFB4FF4004001F0E8
:102410003CFB0720ADF8140000248DF8174005A9F7
:10242000C34801F0B2F90C20ADF8140005A9C14869
:1024300001F0ABF9C04D284601F074FD4FF4602067
:10244000CDE9020401208DF804408DF810000094BD
:102450008DF805406946284601F080FD0121284697
:1024600001F0A4FD284601F0BEFD2C46204601F0F7
:10247000BFFD0028FAD1204601F0C1FD204601F041
:10248000C3FD0028FAD107B030BD10B5AA4C0146F3
:1024900007230122204601F0E1FD0121204601F041
:1024A000BAFD0221204601F0ADFE0028F9D02046F9
:1024B000BDE8104001F016BE2DE9F04100250E46A2
:1024C00007462C4608E03846FFF7DFFF05440520A5
:1024D00000F096FF641CE4B2B442F4D3B5FBF6F00E
:1024E000BDE8F0812DE9F05F05210A20FFF7E4FF48
:1024F0009249086005210B20FFF7DEFF8F494860F5
:1025000005210C20FFF7D8FF8C49886005210320A6
:10251000FFF7D2FF8949C86005210220FFF7CCFFF1
:1025200082468648006806F009FC06F0BBFBDFF82F
:1025300010824FF066373A46434606F0B5FA06F089
:1025400081FA06467D484661406806F0F7FB06F0D2
:10255000A9FB3A46434606F0A7FA06F073FA054689
:1025600076488561806806F0E9FB06F09BFB3A46F9
:10257000434606F099FA06F065FA04466F48C461CE
:10258000C06806F0DBFB06F08DFB3A46434606F0DA
:102590008BFA06F057FA694981460862504606F000
:1025A000CDFB06F07FFB3A46434606F07DFA06F087
:1025B00049FA074661484762304606F09FFB5F498B
:1025C0000860284606F09AFB5C494860204606F001
:1025D00095FB5A498860484606F090FB5749C86009
:1025E000384606F08BFB5549DFF85CC1DFF85CA18B
:1025F00008615448DFF85881DFF858B10378DFF8F4
:1026000058E1012100225548012B06D0022B08D0A9
:10261000032B0AD0042B0BD012E0664456450CD98C
:102620000DE046445E4508D909E076444C4B02E093
:102630004C4B1E444C4B9E4201D8417300E0427308
:102640004A4B1B78012B06D0022B08D0032B0AD053
:10265000042B0BD012E0654455450CD90DE04544E0
:102660005D4508D909E075443D4B02E03D4B1D44F2
:102670003D4B9D4201D8817300E082733C4B1B7837
:10268000012B06D0022B08D0032B0AD0042B0BD031
:1026900012E0644454450CD90DE044445C4508D92B
:1026A00009E074442E4B02E02E4B1C442E4B9C42FE
:1026B00001D8C17300E0C2732E4B2F4C2F4D1B78F5
:1026C0002F4EDFF8C0C0DFF8C0A0DFF8C0B0012B8C
:1026D00004D0022B07D0032B0AD010E009EB04032F
:1026E000AB4209D90AE009EB0603634504D905E0CA
:1026F00009EB0A08D84501D8017400E00274244BA4
:102700001B78012B08D0022B0ED0032B08D107EB2E
:102710000A045C4506D802E03B19AB4202D841747A
:10272000BDE8F09F4274FBE7BB196345FAD8F6E7B2
:10273000001001400008014000240140A4030020D3
:1027400066664A3FD60300200000C0BF3333130043
:10275000285CCFBF5B8F2200B81EC5C05C0500207F
:10276000EB511801333373C16666C601D7030020ED
:10277000D8030020D90300209999B9BFCCCC0C0014
:10278000999979C0CCCCCC003333B3C066660601CE
:10279000DA0300202DE9F041DFF8F483FE4CFD4F11
:1027A00098F8001000260125A079012901D10128FF
:1027B00008D0F849022809780AD0032815D004283F
:1027C00029D00EE00220A07188F80060A67527E0ED
:1027D000012925D13E700320A071A6750020FEF7C7
:1027E00030F8A07902281BD031E001292FD1E079FF
:1027F000801F022802D8207A022805D03E70657515
:1028000025706570A57022E03E700020FEF719F873
:102810000420A0711BE0012919D13E70657516E0F6
:102820003878A0B9DD48007888B9DD48007870B9FB
:10283000DC48007858B9DC48007840B9DB48A57519
:102840000168B1F52F7F02D90660A675A57198F8C9
:102850000010012915D1A179012912D088F8006052
:10286000032905D10020FDF7ECFF25706570A570E8
:10287000A079042802D10020FDF7E3FFA079401ED3
:10288000A071BDE8F08110B5C94803F08BFFC948BD
:1028900003F080FF13220021C7A003F02BFE2522A6
:1028A0000021C7A003F026FE37220021C6A003F0B6
:1028B00021FE5C220021C6A003F01CFE6E22002136
:1028C000C5A003F017FEC64803F064FF02222921C9
:1028D000C4A003F00FFE02224E21C4A003F00AFEA2
:1028E0004B222921BFA003F005FEB14803F05AFF97
:1028F000BDE81040FF2003F04DBF3EB5BD4803F0DA
:1029000051FFA54CE079082802D1A079022828D0EF
:10291000A84800BF03F03EFF607C012824D00228B5
:1029200026D003281CD137224E21B3A003F0E2FDAC
:10293000B24AD2F810310020012153B3D2F810214D
:10294000012A0DD16279012A0AD16071A17000902B
:102950000190029043235E2238214D2003F0D2FDE6
:102960003EBD4AF2FF50D5E737224E21A4A007E032
:10297000207D012809D00228F2D137224E21A2A0C1
:1029800003B0BDE8304003F0B5BD37224E21A0A012
:10299000F6E7A278012AE3D1A07061714FF47F01BC
:1029A000CDE900010291D5E73EB5924803F0FAFE69
:1029B000794CE079072802D1A079022827D07D48F8
:1029C00003F0E8FE207C012824D0022826D003282A
:1029D0001CD125224E2188A003F08CFD874AD2F815
:1029E0000C310020012153B3D2F80C21012A0DD162
:1029F0002279012A0AD12071617000900190029021
:102A000031235E2226214D2003F07CFD3EBD4AF29B
:102A1000FF50D5E725224E2179A007E0E07C012870
:102A200009D00228F2D125224E2177A003B0BDE8BB
:102A3000304003F05FBD25224E2175A0F6E7627895
:102A4000012AE3D1607021714FF47F01CDE90001CB
:102A50000291D5E73EB5674803F0A4FE4E4CE079FD
:102A6000062802D1A079022827D0524803F092FE0E
:102A7000E07B012824D0022826D003281CD1132271
:102A80004E215DA003F036FD5C4AD2F808310020EB
:102A9000012153B3D2F80821012A0DD1E278012A8D
:102AA0000AD1E07021700090019002901F235E22F5
:102AB00014214D2003F026FD3EBD4AF2FF50D5E71C
:102AC00013224E214EA007E0A07C012809D0022845
:102AD000F2D113224E214CA003B0BDE8304003F0E8
:102AE00009BD13224E214AA0F6E72278012AE3D13C
:102AF0002070E1704FF47F01CDE900010291D5E72C
:102B000010B53C4803F04EFE234CE079052802D175
:102B1000A079022810D0274803F03CFEA07B0128B2
:102B20000DD002280FD0032811D16E222A213AA0FD
:102B3000BDE8104003F0DEBC4AF2FF50ECE76E2225
:102B40002A2137A0F4E76E222A2137A0F0E710BD32
:102B500010B5284803F026FE0F4CE079042802D176
:102B6000A079022810D0134803F014FE607B0128DE
:102B70005ED0022861D0032864D15C222A2126A0DD
:102B8000BDE8104003F0B6BC4AF2FF50ECE700008D
:102B9000A3030020A2030020CC0300209E030020FA
:102BA0009F030020A1030020A00300207803002041
:102BB000E8D4000800FFFF00505245313A00000001
:102BC000505245323A000000505245333A0000005E
:102BD000414D50313A000000414D50323A00000062
:102BE000FF8080004761696E0000000042696173E8
:102BF0000000000048CA000849435000000023427A
:102C00004E6F6E6500000000566F6C2D322E37003F
:102C1000566F6C2D322E30002B323664420000008D
:102C20002B203064420000002B3230644200000050
:102C30005C222A21AFF21800A2E75C222A21AFF21F
:102C400018009DE710BD10B5FE4803F0ABFDFE4C2B
:102C5000E079032802D1A079022814D0FB4800BFF4
:102C600003F098FD207B012810D0022812D0032801
:102C700015D0042817D137222A21AFF25400BDE81D
:102C8000104003F037BC4AF2FF50E9E737222A210F
:102C9000EFA0F4E737222A21AFF27C00EFE73722DA
:102CA0002A21EDA0EBE710BD10B5E64803F07AFD50
:102CB000E54CE079022802D1A079022813D0E3483C
:102CC00003F068FDE07A012810D0022812D0032812
:102CD00015D0042817D125222A21AFF2B400BDE86F
:102CE000104003F007BC4AF2FF50E9E725222A21F1
:102CF000D7A0F4E725222A21AFF2DC00EFE7252256
:102D00002A21D5A0EBE710BD10B5CE4803F04AFD4F
:102D1000CD4CE079012802D1A079022813D0CB480C
:102D200003F038FDA07A012810D0022812D0032821
:102D300015D0042817D113222A21AFF21410BDE8B0
:102D4000104003F0D7BB4AF2FF50E9E713222A21D3
:102D5000BFA0F4E713222A21AFF23C10EFE71322C1
:102D60002A21BDA0EBE710BD10B5FFF7CDFFFFF79F
:102D70009BFFFFF768FFFFF7EBFEFFF7C1FEFFF7D2
:102D800069FEFFF711FEBDE81040B6E570B5B44826
:102D900003F008FD4FF47F45284603F0FBFCAA4CE6
:102DA000E079062804D0072806D0082809D131E0A8
:102DB00005223521ABA002E005223521ACA003F0AD
:102DC00099FB207A4AF2FF56012827D04FEA0500E6
:102DD00003F0E0FC28224621AFF2DC1003F08AFB6E
:102DE000207A02281CD0284603F0D4FC4622114643
:102DF000A2A003F07FFB207A032813D04FEA05003E
:102E000003F0C8FC64224821AFF21420BDE87040F2
:102E100003F070BB052235219AA0D0E73046D7E7F2
:102E20003046E1E73046EBE770B58D4803F0BAFC79
:102E30004FF47F45284603F0ADFC834CE07904282D
:102E400002D0052809D103E00522352190A002E037
:102E50000522352191A003F04DFB207A4AF2FF565E
:102E6000012823D04FEA050003F094FC28224021DA
:102E70008DA003F03FFB207A022819D04FEA05000D
:102E800003F088FC46224021AFF2642003F032FBBD
:102E9000207A03280ED0284603F07CFC64224021CF
:102EA000AFF28C20BDE8704003F024BB3046DBE776
:102EB0003046E5E73046EFE770B5694803F072FC4D
:102EC0004FF47F45284603F065FC5F4CE07901280C
:102ED00004D0022806D0032809D13DE0052239217B
:102EE00073A002E00522392174A003F003FB207ACD
:102EF0004AF2FF56012833D04FEA050003F04AFC9E
:102F000023223E2152A003F0F5FA207A022829D08C
:102F10004FEA050003F03EFC39223E2162A003F097
:102F2000E9FA207A03281FD04FEA050003F032FCAB
:102F30004F223E2148A003F0DDFA207A042815D064
:102F40004FEA050003F026FC65223E21AFF228304F
:102F5000BDE8704003F0CEBA052239215AA0C4E77B
:102F60003046CBE73046D5E73046DFE73046E9E785
:102F70003548C079411E022900D89DE7011F01296B
:102F800000D851E7801F022800D8FFE670472E487E
:102F90008179022936D14F4A00211378012B06D1BD
:102FA00011708175C279012A06D0521EC2714A4A37
:102FB0001378012B02D00FE00522F7E7117081751D
:102FC000C2790123052A06D0082A03D202F10102A0
:102FD000C27101E000D1C371404A1378012B06D1C0
:102FE00011708175C279062A01D3521FC2713C4A01
:102FF0001378012B06D111708175C179032902D88C
:10300000491DC17170470622042901D00529F9D153
:10301000C27170470C4810B58179032971D12D49CF
:10302000024600240B78D279012B5FD10C70014647
:103030000B7A591EC9B2032A54D8012B55D1042149
:1030400053E05EE048CA0008CC03002000FFFF0008
:103050002D313064420000002B313064420000000A
:10306000E8D40008505245312D42696173000000D8
:10307000505245322D42696173000000566F6C74E6
:1030800061676500505245332D426961730000004D
:10309000414D50312D4761696E000000414D503265
:1030A0002D4761696E0000002B3064420000000073
:1030B000507265312D4761696E00000050726532B3
:1030C0002D4761696E000000507265332D476169BC
:1030D0006E0000009E0300209F030020A00300203C
:1030E000A1030020012B00D10321017294490B7828
:1030F000012B06D10C70017A032A06D8042901D3CA
:10310000037210BD491C017210BD0329FAD1F7E703
:1031100070B58C488179042911D18B4C014600256A
:10312000267801220223497A012E09D0844C267880
:10313000012E04D12570022907D0012907D070BDC6
:103140002570012903D00229F9D1427270BD437262
:1031500070BD7E48012101707A498A7A4270CA7A2C
:1031600082700A7BC2704A7B02718A7B4271CA7B81
:1031700082710A7CC2714A7C02728A7C4272CA7C69
:103180008272097DC17201460C227148FDF7D9BED9
:1031900070B56C4C607D012836D12046E27900255F
:1031A00001260221007A012A19D0022A21D0032AFD
:1031B0002BD0042A33D0052A3BD0062A43D0072A35
:1031C0004DD0082A20D16074022800D0A1710020BF
:1031D000FDF737FBFFF7BDFFFEF723FA12E0A07201
:1031E000A1710020FDF72DFBFFF7B3FFFEF7D9F823
:1031F00008E0E072A1710020FDF723FBFFF7A9FFB3
:10320000FEF729F92672657570BD2073A171002043
:10321000FDF717FBFFF79DFFFEF75DF9F2E760731F
:10322000A1710020FDF70DFBFFF793FFFEF72CFACD
:10323000E8E7A073A1710020FDF703FBFFF789FF0A
:10324000FEF751FADEE7E073022800D0A1710020FA
:10325000FDF7F7FAFFF77DFFFEF77DF9D2E720745F
:10326000022800D0A1710020FDF7EBFAFFF771FFF3
:10327000FEF7A4F9C6E770B5364803F093FA4FF4A9
:103280007F45284603F086FA2E4CE079062804D0C4
:10329000072806D0082809D122E005221E212EA0E9
:1032A00002E005221E2131A003F024F9607A4AF2DF
:1032B000FF56012818D0284603F06CFA2822462130
:1032C0002FA003F017F9607A022823D0284603F0D4
:1032D00061FABDE87040462211462BA003F00AB9FE
:1032E00005221E212AA0DFE7304603F053FA2822E8
:1032F000462123A003F0FEF8E0790121062805D03D
:10330000072805D00828DED12175DCE7A174DAE7AB
:10331000E174D8E7304603F03DFA462211461AA080
:1033200003F0E8F8E0790221062805D0072805D047
:10333000082800D1217570BDA17470BDE17470BD05
:103340009F030020CC0300209E030020A405002042
:1033500000F80308E8D40008505245312D42696155
:10336000732D766F6C7461676500000050524532B2
:103370002D426961732D766F6C7461676500000082
:103380002B322E30560000002B322E375600000014
:10339000505245332D426961732D766F6C746167AD
:1033A0006500000010B56FF0040000F084F92048BB
:1033B00020490068B0FBF1F0C1B21F4801EB4102A7
:1033C0000170C2EBC1114FF6FF7202EAC1014180E8
:1033D00010BD1949097848434FF0E02148610022A7
:1033E0008A61086940F0010008610869C30701D0DB
:1033F000C003FAD5086920F0010008618A617047AE
:103400000D49498848434FF0E021486100228A6114
:10341000086940F0010008610869C30701D0C003D2
:10342000FAD5086920F0010008618A617047000040
:103430000000002000127A00E40300207047674972
:103440000A885206FCD5654AC1B2121D1180704728
:1034500070B5054686B0012144F2040000F07FFB00
:103460004FF40070ADF8100003248DF812401820BE
:103470005B4E8DF8130004A9304600F086F9301534
:10348000ADF8100004208DF8130004A9304600F0B8
:103490007CF925208DF814008DF815408DF8164024
:1034A00001208DF8170005A800F0C5F80020ADF840
:1034B0000400ADF80600ADF80800ADF80C000C20D3
:1034C000464CADF80A0000956946204600F0C6FB60
:1034D000012240F22551204600F03DFC012120460A
:1034E00000F02FFC06B070BD70B53C4C40F2255189
:1034F000204600F0E7FC00280ED0204600F07BFCC0
:10350000C2B2384841680B0406D44C044FF00003A3
:1035100006D50A2A01D0436070BD41F400410CE099
:103520000D2A08D0C1F30D042F4D491C13292A552B
:103530004160F0D870BD41F48041416070BD30B54C
:10354000002306E0C45CCD5CAC4201D0002030BD5D
:103550005B1C9342F6DB012030BD10B5002305E073
:1035600011F8014B5B1C00F8014BDBB29342F7D31F
:1035700010BDF0B51B4E706801042DD5C0F30D05CC
:10358000002000E0401CA842FCD31749EAB2A1F198
:103590001400FFF7E2FF002001E0401CC0B2A84287
:1035A000FBD3104F002408370F49EAB257F8240024
:1035B0001439FFF7C4FF04F1010408B1347002E0CC
:1035C000E4B20A2CF0D30020074A01461154401CF3
:1035D000C0B21428FAD37160F0BD00000038014079
:1035E0000008014018040020E80D00200948804729
:1035F00009480047FEE7FEE7FEE7FEE7FEE7FEE7D5
:10360000FEE7FEE7FEE7FEE704480549054A064BEC
:103610007047000061040008310100081894002080
:10362000189A002018960020189600202849084370
:1036300028490860704770B50F23C47801780122CB
:10364000F4B1244C2468457804F4E064C4F5E064E3
:10365000240AC4F10406E3408478B5401C402C439E
:1036600001F1E021230181F80034007800F01F010E
:103670008A404009800000F1E020C0F8002170BDC0
:1036800001F01F0082404809800000F1E020C0F8EE
:10369000802170BD104A114001430E48001F016097
:1036A00070470C4A121D0029116801D0014300E047
:1036B0008143116070474FF0E0210428086903D06E
:1036C00020F004000861704740F00400FAE70000B1
:1036D0000000FA050CED00E080FFFF1F914910B5D6
:1036E000884206D10121042000F04BFA0021042079
:1036F0003BE08D49884206D10121082000F041FAC3
:103700000021082031E08949884206D1012110209A
:1037100000F037FA0021102027E08549884206D1C1
:103720000121202000F02DFA002120201DE08149F8
:10373000884206D10121402000F023FA00214020D8
:1037400013E07D49884206D10121802000F019FA5A
:103750000021802009E0794988420AD1841501219D
:10376000204600F00EFA00212046BDE8104000F08F
:1037700008BA10BD10B50121084600F002FA002178
:10378000BDE81040012000F0FCB9F0B5CA78002572
:1037900002F00F03D20601D58A7813430A784FF05E
:1037A0000F0E12F0FF0F4FF001021DD0D0F80040B5
:1037B0000F8802FA05F63740B74211D14FEA850C5F
:1037C0000EFA0CF724EA070703FA0CF43C43CF780F
:1037D000282F02D0482F02D002E0466100E00661A7
:1037E0006D1C082DE4D304600C88FF2C1ED944689E
:1037F0005FF0000606F1080702FA07F50F882F4070
:10380000AF420FD14FEA860C0EFA0CF7BC4303FA15
:103810000CF73C43CF78282F00D14561CF78482F53
:1038200000D10561761C082EE4D34460F0BD4FF64C
:10383000FF710180022181700421C170704702462E
:10384000002092680A4200D001207047806880B250
:10385000704702460020D2680A4200D0012070471B
:10386000C06880B2704701617047416170470AB11A
:103870000161704741617047C160704741F4803217
:103880008261816182618169806970472C4B10B5CA
:103890001A684FF68074224042EA0010084318600C
:1038A00010BD2849C8617047F0B5254C002801DAE1
:1038B000E36900E06368420D120185B2C0F301576D
:1038C0009540C0F30346032F05D0C2020AD5032258
:1038D000B240934307E023F07062636823F07063A3
:1038E000636002E0AB4343F0706201B12A430028F9
:1038F00001DAE261F0BD6260F0BD10B58A0721F027
:1039000003040F49130F21440F228C689A409443FB
:103910008C608A68984002438A6010BD0949C1F8EA
:10392000DC00704700080140000C0140001001401D
:103930000014014000180140001C0140002001401B
:103940000000014000002042A448016841F001014C
:1039500001604168A24A114041600168A14A1140DA
:103960000160016821F480210160416821F4FE01B9
:1039700041604FF41F018160704798490A6822F442
:1039800080320A600A6822F480220A60B0F5803F23
:1039900007D0B0F5802F03D1086840F4A02008605C
:1039A0007047086840F48030F9E702460020530968
:1039B0008A49012B0AD0022B0AD0496A02F01F0261
:1039C000012393400B4200D0012070470968F5E7BE
:1039D000096AF3E718B500204FF4A0640090312085
:1039E000FFF7E3FF0099491C0091A14201D0002894
:1039F000F5D03120FFF7D9FF002800D0012018BDF5
:103A000076490A6822F0F80242EAC000086070476E
:103A1000754908607047714A5368084323F47C1362
:103A20001843506070477049086670476B4A516888
:103A300021F003010143516070476848406800F07D
:103A40000C007047654A516821F0F0010143516054
:103A50007047624A516821F4E06101435160704748
:103A60005E494A6822F4605242EAC00048607047EA
:103A70005A4A0029517A01D0014300E08143517232
:103A800070475949C1F8D8007047544A516821F429
:103A900040410143516070475049002281F8202085
:103AA00081F82020012802D0042802D1052081F8C5
:103AB000200070474D490860704748490A6A024330
:103AC0000A627047494944390860704730B5434934
:103AD0004A6812F00C03464A03D0042B01D0082B8D
:103AE00021D002604A680F23424C03EA1212A35C01
:103AF0000268DA4042604B68072505EA1323E35C5D
:103B000022FA03F383604B6805EAD323E35CDA40CF
:103B1000C2604968032303EA9131231F595CB2FB59
:103B2000F1F1016130BD4A684B6802F470124FF048
:103B3000020413F4803F04EB924202D04B689B03D3
:103B400001D52D4B00E02A4B5A43CAE7234A0029EE
:103B5000516901D0014300E08143516170471F4A20
:103B60000029916901D0014300E0814391617047D0
:103B70001A4A0029D16901D0014300E08143D16193
:103B80007047164A0029D16801D0014300E0814303
:103B9000D1607047114A0029116901D0014300E04A
:103BA00081431161704711494039086070470E49DF
:103BB000C86470470949C87170470848416A41F0B4
:103BC000807141627047054A0146002092680A42AE
:103BD00000D00120704701498872704700100240F0
:103BE0000000FFF8FFFFF6FE000042428004424260
:103BF00000127A004C04002000093D00C44910B5B1
:103C000088420AD101218C032046FFF7BAFF2046E3
:103C1000BDE810400021FFF7B4BFBE49884202D181
:103C200001214C0410E0BC49884202D101218C04DE
:103C30000AE0BA49884202D10121CC0404E0B84923
:103C400088420AD101210C052046FFF7A3FF204638
:103C5000BDE810400021FFF79DBF10BD30B5044600
:103C6000008A85B00D464CF6FF710840E988014393
:103C70002182A1894EF6F3100140A8882A891043B9
:103C80006A890A431043A081A08A4FF6FF41084089
:103C9000A9890143A1826846FFF718FF9C48844226
:103CA00001D1039800E00298A189090400EBC0014A
:103CB00001EB0010296801D5490000E08900B0FB44
:103CC000F1F06422B0FBF2F109010B096FF0180565
:103CD0006B4300EB8300A3891D044FF0320306D52C
:103CE00003EBC000B0FBF2F000F0070005E003EBCF
:103CF0000010B0FBF2F000F00F000843208105B087
:103D000030BD4FF41651016000218180C1800181D6
:103D10000C2242818181704710B5038A4FF2FF0265
:103D200013400A884C8822438C88C9880C4322435C
:103D30001A43028210BD0021018041808180C18030
:103D400070470029818902D041F4005101E021F43B
:103D500000518181704710B5C1F3421301F01F0477
:103D60000121A140012B07D0022B07D01430002ADB
:103D7000026805D00A4304E00C30F8E71030F6E79B
:103D80008A43026010BD002A828A01D00A4300E003
:103D90008A4382827047028A22F00F020282028ADC
:103DA0000A4302827047828922F4006282818289FA
:103DB0000A43828170470029818902D041F00201C3
:103DC00001E021F0020181817047028A22F0200285
:103DD0000282028A0A43028270470029018A02D0C5
:103DE00041F4804101E021F4804101827047C1F338
:103DF0000801818070478088C0F30800704781897E
:103E000041F0010181817047028BD2B20283028BA3
:103E100042EA012101837047028B02F47F42028350
:103E2000028B0A43028370470029818A02D041F045
:103E3000200101E021F02001818270470029818A60
:103E400002D041F0100101E021F0100181827047A1
:103E50000029818A02D041F0080101E021F0080127
:103E6000818270470029818902D041F4004101E03C
:103E7000C1F30E01818170470029818A02D041F48B
:103E8000006101E021F4006181827047828A22F0A2
:103E900004028282828A0A43828270470029818AD0
:103EA00002D041F0020101E021F00201818270475D
:103EB0000246002012880A4200D001207047C94300
:103EC0000180704730B501F01F0201240025C1F3C5
:103ED000421304FA02F2012B0FD0022B0FD0838A77
:103EE0004FEA11210088134204FA01F400EA0400A9
:103EF00001D000B10125284630BD8389F0E7038A4F
:103F0000EEE70A0A01219140C94301807047000091
:103F1000003801400044004000480040004C004090
:103F200000500040C54910B5884202D10121441516
:103F30000AE0C349884202D10121041504E0C149C5
:103F400088420AD10121CC032046FFF71AFE204601
:103F5000BDE810400021FFF714BE10BD10B5426847
:103F6000B94B0C791A400B6842EA042213434360B0
:103F70008368B64A1340D1E9024222434C7943EAAE
:103F800044031A438260C26A097C22F47002491E0B
:103F9000C9B242EA0151C16210BD00210160017144
:103FA00041718160C16001210174704700298168FD
:103FB00002D041F0010101E021F001018160704770
:103FC0000029816802D041F4807101E021F4807100
:103FD00081607047002A4268C9B201D00A4300E0FC
:103FE0008A4342607047816841F0080181607047F0
:103FF000014600208968090700D5012070478168C3
:1040000041F004018160704701460020896849073A
:1040100000D5012070470029816802D041F4A00139
:1040200001E021F4A0018160704701460020896809
:10403000490200D5012070474268491E22F46042BF
:1040400042EA4131416070470029416802D041F4A1
:10405000006101E021F400614160704770B5072400
:1040600009290AD9C568A1F10A0606EB4606B4403B
:10407000A543B3401D43C56007E0056901EB410658
:10408000B440A543B3401D4305611F23072A09D24D
:10409000446B521E02EB820293409C4391400C43BE
:1040A000446370BD0D2A09D2046BD21F02EB820259
:1040B00093409C4391400C43046370BDC46A0D3A25
:1040C00002EB820293409C4391400C43C46270BD5A
:1040D0000029816802D041F4801101E021F48011AF
:1040E00081607047C06C80B2704754484C300068A3
:1040F00070470029416802D041F4806101E021F459
:104100008061416070470029416802D041F48051CC
:1041100001E021F4805141607047826822F4E0425E
:104120000A43826070470029816802D041F400414F
:1041300001E021F40041816070470029816802D0CC
:1041400041F4021101E021F402118160704701463F
:1041500000208968890200D50120704770B50724C6
:1041600009290AD9C568A1F10A0606EB4606B4403A
:10417000A543B3401D43C56007E0056901EB410657
:10418000B440A543B3401D430561836BC3F30154A1
:10419000121B921C02EB82041F22A2409343A140F7
:1041A0000B43836370BD826B491E22F4401242EAC6
:1041B00001518163704708B508440090026008BD52
:1041C00008B5084428300090006880B208BD4268F5
:1041D0001F4B1A400A434260704741628262704737
:1041E000426822F01F020A434260704713490831B7
:1041F0000028086802D040F4000001E020F400002C
:10420000086070470246002012680A4200D0012070
:104210007047C9430160704710B5024600205468DA
:104220000B0AC9B20C401168194202D0002C00D010
:10423000012010BD6FEA1121016070470024014088
:1042400000280140003C0140FFFEF0FFFDF7F1FFB8
:10425000FFFD3FFFFC4A116801F038010143116086
:104260007047F9490A6822F008020A600A680243A6
:104270000A607047F4490A6822F010020A600A686E
:1042800002430A607047F048F0494160F0494160DC
:104290007047ED48ED494160ED4941607047EA489B
:1042A000016941F0800101617047E748016941F00F
:1042B000800101617047E4490420CA68D20701D037
:1042C00001207047CA68520701D502207047C968AB
:1042D000C906FBD50320704700B50346FFF7EBFF87
:1042E00003E000BFFFF7E7FF5B1E012803D0002BB0
:1042F00000D1052000BD002BF4D1FAE770B50546CA
:104300004FF430263046FFF7E7FF042811D1CE4C9A
:10431000206940F0020020616561206940F04000A2
:1043200020613046FFF7D8FF216941F6FD72114048
:10433000216170BD30B54FF430252846FFF7CCFF22
:10434000042810D1C04C206940F00400206120698D
:1043500040F0400020612846FFF7BEFF216941F68A
:10436000FB721140216130BD00B50346FFF7A3FF8A
:1043700003E000BFFFF79FFF5B1E012803D0002B67
:1043800000D1052000BD002BF4D1FAE730B54FF481
:1043900030252846FFF7E8FF042810D1AA4C2069F1
:1043A00040F004002061206940F040002061284670
:1043B000FFF7DAFF216941F6FB721140216130BD40
:1043C000A1490020C969890700D50120704770B54F
:1043D000A525FFF7F5FF00B100254FF43026304644
:1043E000FFF77AFF042827D1974C9848A060984897
:1043F000A060206940F020002061206940F040006A
:1044000020613046FFF768FF41F6EF7604280ED1B1
:10441000206941F6DF7108402061206940F01000FA
:1044200020618C4805804FF40050FFF755FF0528A8
:1044300002D021693140216170BDF8B506460020E7
:104440004FF4005C00900D466046FFF745FF0428DE
:1044500016D17D4C206940F0010020613580604616
:10446000FFF73AFF41F6FE77042806D1B61C280C68
:10447000009630806046FFF72FFF216939402161A7
:10448000F8BDF0B506464FF400570D463846FFF725
:1044900023FF04280CD16C4C206940F001002061FE
:1044A00035803846FFF718FF2169BA1E1140216197
:1044B000F0BDF0B506464FF400570D463846FFF7FD
:1044C0000BFF042813D1604C6048A0606048A060D6
:1044D000206940F01000206135803846FFF7FCFE6F
:1044E000052804D0216941F6EF7211402161F0BD29
:1044F0002DE9F041C04300F0FF0CC0F30727C0F3E3
:104500000746050E4FF400584046FFF7E5FE042825
:1045100037D14D4C4D49A1604D49A160216941F011
:1045200010012161BCF1FF0F08D04A480830A0F803
:1045300000C04046FFF7D0FE04281BD1FF2F07D054
:1045400044480A3007804046FFF7C6FE042811D1D0
:10455000FF2E07D03F480C3006804046FFF7BCFED8
:10456000042807D1FF2D07D03A480E300580404679
:10457000FFF7B2FE052804D0216941F6EF72114021
:104580002161BDE8F08170B505464FF43026304614
:10459000FFF7A2FE042818D12B4C2C48A0602C4811
:1045A000A060206940F020002061206940F04000B8
:1045B00020613046FFF790FE41F6DF71042805D0F8
:1045C000052802D022690A40226170BD2069084096
:1045D0002061206940F0100020611E480DB10021CB
:1045E00000E0A52101803046FFF776FE0528ECD0DB
:1045F000216941F6EF721140216170BDF0B5124C96
:104600000746124816460D46A0601148A0604FF4B8
:10461000005C6046FFF760FE042814D1206940F07A
:104620001000206135430B493D43891C45F0F800DB
:1046300008806046FFF750FE052804D0216941F646
:10464000EF7211402161F0BD002002402301674557
:10465000AB89EFCD00F8FF1F1C48C0698008704788
:104660001A48006A7047194900200968890600D570
:1046700001207047154A0029116901D0014300E06B
:1046800081431161704701460020104A012903D07F
:10469000D2680A4203D17047D169C907FBD0012013
:1046A00070470A49C860704708490420CA68D207A1
:1046B00001D001207047CA68520701D50220704717
:1046C000C968C906FBD503207047000000200240DE
:1046D000F94910B5884202D10121C41486E0B0F135
:1046E000804F09D0F54988420DD101210220FFF702
:1046F00051FA0021022064E001210846FFF74AFA3E
:10470000002101205DE0EE49884206D1012104200C
:10471000FFF740FA0021042053E0EA49884206D11D
:1047200001210820FFF736FA0021082049E0E64978
:10473000884206D101211020FFF72CFA0021102019
:104740003FE0E249884206D101212020FFF722FA0A
:104750000021202035E0DE49884202D101214414A5
:1047600044E0DC49884202D10121CC043EE0DA4930
:10477000884202D101210C0538E0D849884202D193
:1047800001214C0532E0D649884206D10121402062
:10479000FFF700FA0021402013E0D249884206D1F9
:1047A00001218020FFF7F6F90021802009E0CE49A1
:1047B00088420AD1841501212046FFF7EBF9002138
:1047C0002046BDE81040FFF7E5B9C849884202D14C
:1047D00001210C040AE0C649884202D101214C049F
:1047E00004E0C44988420AD101218C042046FFF725
:1047F000C8F92046BDE810400021FFF7C2B910BD3E
:1048000030B50288AC4BB24C98420DD0A0420BD0D0
:10481000B0F1804F08D0A94DA84205D0A84DA842BC
:1048200002D0A84DA84203D122F070054A882A433D
:10483000A54DA84206D0A54DA84203D022F440754C
:10484000CA882A4302808A8882850A88028598421B
:104850000AD0A04208D0A54A904205D0A44A90426E
:1048600002D0A44A904201D1097A018601218182B5
:1048700030BD30B5028C22F001020284028C8388A4
:10488000048B22F0020224F073050C882C430D895E
:1048900015434A882A43884DA8420BD08C4DA84224
:1048A00008D0924DA84205D0914DA84202D0914D1A
:1048B000A8420DD122F008054A8923F440732A4307
:1048C00022F004058A882A438D891D43CB892B4316
:1048D00083800483C9888186028430BD70B5028CD0
:1048E00022F010020284028C8488038B0D8823F44A
:1048F000E6464FF6FF7303EA052535430E8922F09D
:10490000200203EA061616434A8803EA02123243DB
:10491000694EB04202D06E4EB04215D122F08006F0
:104920004A8924F4406403EA0212324322F040062A
:104930008A8803EA021232438E8903EA86062643F6
:10494000CC8903EA8404344384800583C9880187C1
:10495000028470BD70B5028C22F480720284028CD5
:104960008488838B0D8823F073031D4322F4007326
:104970000E894FF6FF7202EA06261E434B8802EAB2
:10498000032333434C4EB04202D0514EB04215D1B6
:1049900023F400664B8924F4405402EA0323334392
:1049A00023F480668B8802EA032333438E8902EA6C
:1049B00006162643CC8902EA041434438480858396
:1049C000C9888187038470BD70B5028C22F480523F
:1049D0000284048C8288838B0D8823F4E6464FF68C
:1049E000FF7303EA0525354324F400560C8903EAD6
:1049F000043434434E8803EA063626432E4CA04244
:104A000002D0334CA04205D122F480448A8903EAC3
:104A10008212224382808583C988A0F840100684D0
:104A200070BD828B22F440628283828B4FF6FF73CB
:104A300003EA01210A4382837047828B22F00C0231
:104A40008283828B0A4382837047028B22F4406206
:104A50000283028B4FF6FF7303EA01210A430283AC
:104A60007047F0B5048C24F010040484078B048C88
:104A70004FF6FF7527F4734705EA03333B4305EA16
:104A800002221A430C4B05EA011698420ED0104B35
:104A900098420BD0B0F1804F08D0084B984205D017
:104AA000074B984202D0074B984225D124F02001B1
:104AB000314341F0100124E0002C0140000400408B
:104AC00000080040000C00400010004000140040AE
:104AD00000340140004C01400050014000540140AE
:104AE00000180040001C0040002000400040014031
:104AF000004401400048014024F0A0030B4343F070
:104B0000100102830184F0BD028B22F00C020283AB
:104B1000028B0A430283704770B5048C24F00104B1
:104B20000484058B048C4FF6FF7606EA03131343C7
:104B300025F0F305F94A2B4390420ED0F84A9042F3
:104B40000BD0B0F1804F08D0F64A904205D0F64A1B
:104B5000904202D0F54A904202D124F0020201E0D4
:104B600024F00A020A4342F001010383018470BD6C
:104B70002DE9F05F0D4604460888E84FDFF8A0C332
:104B8000DFF8A0834988AA882B894FF0804960B359
:104B9000042832D04FF6FF7E082836D0208C9B4662
:104BA00020F480502084A38B268C704600EA0222D9
:104BB00023F473431A4300EA0B3010430EEA013E1C
:104BC000BC420BD0644509D04C4507D0444505D0C4
:104BD000D54A944202D0D54B9C4245D126F400518F
:104BE00041EA0E0141F4805143E02046FFF794FF73
:104BF000E9882046BDE8F05F86E72046FFF731FFF1
:104C0000E9882046BDE8F05F1FE7208C20F4807023
:104C10002084B4F81CA0208C0EEA031313432AF05E
:104C2000F30A0EEA012B43EA0A03BC420BD06445A7
:104C300009D04C4507D0444505D0BB4A944202D028
:104C4000BA4A944204D120F4007040EA0B0002E01A
:104C500020F42060084340F48070A3832084E98816
:104C60002046BDE8F05FE8E626F402420A4342F43B
:104C70008051A08320462184E988BDE8F05FD0E61A
:104C80002DE9F0410C46002649880746012501B967
:104C90000226A288012A00D1022520882389002823
:104CA000384610D0FFF7DDFEE1883846FFF7CDFE2D
:104CB00023892A4631463846FFF72EFFE1883846D9
:104CC000BDE8F04120E7FFF727FFE1883846FFF70E
:104CD0001BFF23892A4631463846FFF7C2FEE1888A
:104CE0003846BDE8F041B0E610B50A884B88CC885C
:104CF0001A438B8823431A430B891A434B898989AA
:104D00001A430A43A0F8442010BD4FF6FF7181807A
:104D100000210180C1804180017270470021018023
:104D200041808180C180018141818181C181704741
:104D300000210180418001228280C1800181704771
:104D40000021018041808180C18001814181818178
:104D500070470029018802D041F0010101E021F0F3
:104D6000010101807047002930F8441F02D041F44E
:104D7000004101E0C1F30E0101807047002A8289E1
:104D800001D00A4300E08A438281704781827047E4
:104D90001143A0F848107047002A828901D00A43C5
:104DA00000E08A4382817047018921F00701018177
:104DB0007047028922F070020A430281704700B5F1
:104DC0000346FFF7F6FF188940F00700188100BD81
:104DD00070B516460D46602904464FF00102314673
:104DE0000AD0FFF799FE29462046FFF7E2FF208907
:104DF00040F00700208170BDFFF733FEF3E730B5C8
:104E000004894FF6FF7505EA03231343E4B20B430D
:104E10002343038130BD10B50446FFF7F0FF20891E
:104E200040F07700208110BD10B50446FFF7E7FF82
:104E3000208940F48040208110BD01858282704726
:104E4000028822F070020A430280704770B505891B
:104E5000048B068C25F007050D434FF6FC410C40F2
:104E600040F201110C434FF6FF7101EA031126F0E5
:104E700022061143314305810483018470BD028BF6
:104E800022F070020A4302837047028B4FF6FF73D1
:104E900022F4E04203EA0121114301837047828B2F
:104EA00022F070020A4382837047828B4FF6FF73B1
:104EB00022F4E04203EA0121114381837047002973
:104EC000018802D041F0800101E021F080010180E1
:104ED00070470029818802D041F0040101E021F0EF
:104EE0000401818070470029818802D041F00801C7
:104EF00001E021F00801818070470029818802D0FB
:104F000041F0010101E021F0010181807047028B35
:104F100022F008020A43028370470000002C01407F
:104F2000003401400004004000080040000C004034
:104F3000028B4FF6FF7322F4006203EA0121114352
:104F40000183E9E7828B22F008020A438283E3E7C8
:104F5000828B4FF6FF7322F4006203EA01211143B2
:104F60008183D9E7028B22F004020A430283D3E74C
:104F7000028B4FF6FF7322F4806203EA0121114392
:104F80000183C9E7828B22F004020A438283C3E7CC
:104F9000828B4FF6FF7322F4806203EA01211143F2
:104FA0008183B9E7028B22F080020A430283B3E7D0
:104FB000028B4FF6FF73C2F30E0203EA0121114385
:104FC0000183A9E7828B22F080020A438283A3E750
:104FD000828B4FF6FF73C2F30E0203EA01211143E5
:104FE000818399E7028C22F002020A43028493E74C
:104FF000028C22F008020A4302848DE7028C4FF6ED
:10500000FF7322F0200203EA01111143018483E7B8
:10501000028C4FF6FF7322F0800203EA0111114364
:10502000018479E7028C4FF6FF7322F4007203EAE1
:105030000121114301846FE7028C4FF6FF7322F4C4
:10504000006203EA01211143018465E7028C4FF6F7
:10505000FF7322F4005203EA0131114301845BE73C
:1050600010B50123048C8B409C430484038C8A403C
:105070001343038410BD10B50423048C8B409C4360
:105080000484038C8A401343038410BD30B501248B
:10509000058C00F118038C40A543058489B10829CB
:1050A0000FD0091FC1F34E001844016821F4E041FC
:1050B000016001684FF6FF7303EA022211430160A9
:1050C00030BD03EB5100016821F0700101600168FF
:1050D000F4E70029018802D041F0020101E021F04B
:1050E0000201018018E70029018802D041F0040183
:1050F00001E021F0040101800EE70029818802D03F
:1051000041F0800101E021F08001818004E7028804
:1051100022F00802028002880A430280FCE68288AC
:1051200022F07002828082880A438280F4E602893B
:1051300022F00702028102890A430281ECE6028919
:1051400022F08002028102890A430281E4E681841E
:10515000E2E68185E0E68186DEE60187DCE681879E
:10516000DAE6A0F84010D7E6028822F44072028006
:1051700002880A430280CFE6808ECDE6008FCBE620
:10518000808FC9E6B0F84000C6E6808CC4E6008D8A
:10519000C2E602460020128A0A4200D00120BBE685
:1051A000C9430182B8E602460020138A92890B4265
:1051B00002EA010202D0002A00D00120ACE6C94375
:1051C0000182A9E6374900200860091D0860091D11
:1051D0000860091D0860334933481431086070477E
:1051E00030B530498379026853B30B6893430B6041
:1051F0000A1D13680468A343136002790A44136804
:10520000046823431360274A083213680468A343E1
:105210001360131D1C680568AC431C604479102C96
:1052200005D021440A68006802430A6030BD116855
:10523000046821431160196800680143196030BD9A
:105240000079084401689143016030BD002101608C
:1052500001710C22427181717047124910310A6844
:1052600002430A60704701460E4A00201432126859
:105270000A4200D0012070470A4914310860704783
:10528000084A014600201268064B0A4014331B6886
:105290000B4202D0002A00D001207047014914318E
:1052A0000860704700040140FFFF0F0010B54FF485
:1052B000F044204600F020FC214600F0E5FE80206E
:1052C00000F074FFBDE81040014801F065BA00002D
:1052D000B8EE000830B414460846214630BC1A46E1
:1052E000FBF73FBB0020704770B5044600691546C8
:1052F0000E468068804703462A4631462046BDE870
:105300007040E7E738B50846F8491C461546096875
:10531000049B2246C96B096800912946FBF72BFBC9
:1053200038BD08B50092FFF7EDFF08BD08B5009342
:105330000B46FFF7E7FF08BD2DE9FF5FEB489346FB
:105340000EAA006892E89002007C0D191E7810F0F9
:10535000030198464FF0C0001CD0022937D15FEA04
:10536000090155D04FEA000AC4F103004100C1F120
:1053700006022AFA02F03040C84006D059F8203020
:105380005A4629460098FFF7A5FF641C6D1C042CA3
:1053900038D03AE05FEA09011BD08246C4F103002D
:1053A0004100C1F106022AFA02F03040C840294605
:1053B00059F820306D1C5A460098FFF78BFF641C8B
:1053C000042C02D118F8016F00247F1EE6D1BDE83D
:1053D000FF9F8146C4F103004000C0F1060129FA95
:1053E00001F33340C34029466D1C5A460098FFF72D
:1053F00071FF641C042C02D118F8016F00247F1E79
:10540000E8D1E4E718F8016F00247F1EACD1DEE795
:105410004FEA0009C4F103004000C0F1060129FA77
:1054200001F33340C34004D05A4629460098FFF7A1
:1054300051FF641C6D1C042C02D118F8016F00246C
:105440007F1EE7D1C3E72DE9FF5FA84893460EAA68
:10545000006892E89002007C0D191E7810F003019C
:1054600098464FF0F0001BD00229B0D15FEA090145
:1054700054D08246C4F101008100C1F104022AFA2D
:1054800002F03040C84006D059F820305A4629462C
:105490000098FFF71FFF641C6D1C022C38D03AE007
:1054A0005FEA09011AD08246C4F101008100C1F10E
:1054B00004022AFA02F03040C840294659F8203048
:1054C0006D1C5A460098FFF705FF641C022C02D1A0
:1054D00018F8016F00247F1EE6D178E74FEA000933
:1054E000C4F101008000C0F1040129FA01F3334046
:1054F000C34029466D1C5A460098FFF7EBFE641C1A
:10550000022C02D118F8016F00247F1EE8D15EE75B
:1055100018F8016F00247F1EACD158E74FEA00094C
:10552000C4F101008000C0F1040129FA01F3334005
:10553000C34004D05A4629460098FFF7CBFE641CAE
:105540006D1C022C02D118F8016F00247F1EE7D1D8
:105550003DE72DE9FF4F83B01D46DDE91060DDE931
:1055600012A4DDE914B99046082845D007DC0128CB
:105570000BD002281ED0042819D1002739E01028AA
:105580004AD0202813D1002084E000270DE000BF7E
:10559000CDF800B0CDE90159DDE9030107EB0802C0
:1055A000234600F03CF954447F1CB742F0DB07B0BF
:1055B000BDE8F08F00270CE0CDF800B0CDE901592F
:1055C000DDE9030107EB08022346FFF7B5FE54446B
:1055D0007F1CB742F0DBEAE7CDF800B0CDE9015916
:1055E000DDE9030107EB08022346FFF72CFF5444D3
:1055F0007F1CB742F0DBDAE700270AE0CDE900596B
:10560000DDE9030107EB0802234600F064F9544486
:105610007F1CB742F2DBCAE700201BE00398029030
:10562000049800900BEB0800A1462F4601900CE077
:10563000DDE90120B9F800300099FFF74BFE009832
:1056400009F10209401C7F1E0090002FF0DC544439
:105650000BF101008346B042E0DBA8E7039802901B
:10566000049800900BEB0800A1462F4601900CE037
:10567000DDE90120D9F800300099FFF72BFE0098F2
:1056800009F10409401C7F1E0090002FF0DC5444F7
:105690000BF101008346B042E0DB88E770B50446B9
:1056A000806860B91C2000F01FFD0546A0602069DD
:1056B0008068804701F000FEA861A06808B1002062
:1056C00070BD012070BD80680F2919D2DFE801F09C
:1056D00018080A0C101818181216141416161600AA
:1056E0004068704780687047C06870479004002029
:1056F0000069FAE78069F8E70120F6E70020F4E79F
:105700004FF0FF30F1E70020EFE7806800220A80C9
:105710004A808289521E8A80008A401EC880E4E73F
:105720001CB5CDE9001280696A46032100F041F9F9
:105730001CBD38B50546002000900C462846FFF7F2
:10574000ADFFAA68002A06D0146000946A460221C0
:10575000A86900F02EF938BD70B515460C4606460E
:10576000FFF79CFFB068002802D0C0E90345446100
:1057700070BD7CB5064600200090019015460C4691
:105780003046FFF78BFFB368002B0CD0586900B987
:1057900020465861C3E90145CDE900456A46072125
:1057A000B06900F006F97CBD70B50546FFF776FFDD
:1057B000044600220121A86900F0FBF8204370BDD7
:1057C00000228069052100F0F4B8002280690621DA
:1057D00000F0EFB81CB5002301938DF8041000927F
:1057E00080696A46042100F0E4F81CBD09390829E3
:1057F00013D2DFE801F00406080A120C0E105B4811
:1058000073E75B4871E75B486FE75B486DE75B48B0
:105810006BE75B4869E75B4867E7002065E72DE9D0
:10582000FF5F8346DDE90F700E9CD0E900A9564862
:105830000D191E4600684FF08008007C10F0030030
:105840001AD0012803D002282CD0032829D1DBF854
:105850001000806880478146317828FA04F00142C0
:1058600005D04B4629465846029AFFF733FD641C83
:105870006D1C082C2AD02BE0317828FA04F0014264
:1058800001D04B4600E0534629466D1C5846029A0B
:10589000FFF720FD641C082C01D10024761C7F1E1C
:1058A000EAD194E5317828FA04F0014205D04B465C
:1058B00029465846029AFFF70DFD641C6D1C082C02
:1058C00001D10024761C7F1EECD180E50024761CDB
:1058D0007F1EC1D17BE52DE9F04781462A48DDE9ED
:1058E000085700681C469046007C0E4610F00300E6
:1058F00003D0022810D14FBB35E05FB917E0207804
:105900004246314657F820304846FFF7E3FC641C16
:105910006D1E761C002DF2DCBDE8F0872378424630
:1059200031464846FFF7D6FC641C6D1E761C002DE0
:10593000F4DCF1E7207830B157F8203042463146A8
:105940004846FFF7C7FC641C6D1E761C002DF1DC79
:10595000E2E7237823B1424631464846FFF7BAFCD6
:10596000641C6D1E761C002DF3DCD5E73357000850
:105970005957000873570008A9570008C157000875
:10598000CB570008D55700089004002010B500231D
:105990001A460B490B4800F0C3FC8022A0210020CE
:1059A00001F04CFC8022A021BDE81040002001F055
:1059B0005BBC012902D04FF0FF30704700207047D8
:1059C00018BB0008E4BA0008074800687047064999
:1059D0000A6810440A68821A002AFBDC7047704784
:1059E00070477047704770475C04002004E000BFB8
:1059F00011F8013B00F8013B521EF9D2704701E05B
:105A000000F8011B521EFBD2704710B54C4C4FF4EE
:105A1000F8620021E068FFF7F2FF4FF4F84200213E
:105A2000A068FFF7ECFF0120207410BD444A10B5B8
:105A30000021D26808464FF4787300BF32F8104056
:105A400004B1491C401C9842F8D364204143B1FB87
:105A5000F3F0C0B210BD70B5394C06460025207C6D
:105A600008B9206880474FF0FF33FEB1C6F34F11ED
:105A7000F00601D0491C89B2D4F80C2040F2DF3086
:105A800032F8106026B100258D420DD1002207E0CA
:105A90006D1CADB2F8E7E3688518521C23F81510A9
:105AA0008A42F8D3400170BD401EE9D5184670BD4A
:105AB00070B523490A7C4AB1B0F5F84F13D24209B8
:105AC000C86830F812300020044608E008688047B3
:105AD000012070BDCD681618401C25F8164098426C
