:020000040800F2
:1000000048130020551B00082D0500082F05000887
:100010003105000833050008350500080000000020
:10002000000000000000000000000000370500088C
:1000300039050008000000003B0500083D050008E8
:100040006F1B00086F1B00086F1B00086F1B000868
:100050006F1B00086F1B00086F1B00086F1B000858
:10006000C916000809170008491700086F1B000887
:100070006F1B00086F1B00086F1B00086F1B000838
:100080006F1B00086F1B00086F1B00086F1B000828
:100090006F1B00086F1B00086F1B00088917000802
:1000A0006F1B00086F1B00086F1B00086F1B000808
:1000B0006F1B0008EF0F00086F1B00086F1B000884
:1000C0006F1B00086F1B00086F1B00086F1B0008E8
:1000D0006F1B00086F1B00086F1B00086F1B0008D8
:1000E0002F1800086F1B00086F1B00086F1B00080B
:1000F0006F1B00086F1B00086F1B00086F1B0008B8
:100100006F1B00086F1B00086F1B00086F1B0008A7
:10011000DD1900086F1B00086F1B00086F1B00082B
:100120006F1B00086F1B00086F1B00086F1B000887
:1001300000F002F800F05AF80AA090E8000C82449F
:100140008344AAF10107DA4501D100F04FF8AFF27C
:10015000090EBAE80F0013F0010F18BFFB1A43F0A5
:100160000103184754650000746500000A444FF00D
:10017000000C10F8013B13F0070408BF10F8014B06
:100180001D1108BF10F8015B641E05D010F8016B4B
:10019000641E01F8016BF9D113F0080F1EBF10F8AF
:1001A000014BAD1C0C1B09D16D1E58BF01F801CBD2
:1001B000FAD505E014F8016B01F8016B6D1EF9D555
:1001C0009142D6D37047000000230024002500266A
:1001D000103A28BF78C1FBD8520728BF30C148BFAA
:1001E0000B6070471FB51FBD10B510BD03F022FA9C
:1001F0001146FFF7F7FF00F021F903F054FA03B4BA
:10020000FFF7F2FF03BC01F083FB000070B50C2286
:100210009649974800F01CFF00F0A8FA002000F073
:10022000CCFB4FF6E0740021234692A2084600F072
:100230007EFD234691A20021322000F078FD234666
:1002400090A20021552000F072FD23468FA20021CC
:10025000782000F06CFD23468EA20C210A2000F0CD
:1002600066FD65112B468CA20C21322000F05FFD4B
:100270002B468BA20C21552000F059FD2B4689A25C
:100280000C21822000F053FD234687A218210A206A
:1002900000F04DFD2B4680A21821322000F047FDD2
:1002A0002B4682A21821552000F041FD2B467DA24D
:1002B0001821822000F03BFD23467EA224210A2043
:1002C00000F035FD2B467CA22421322000F02FFDCA
:1002D0002B467AA22421552000F029FD2B4679A235
:1002E0002421822000F023FD234677A230210A201A
:1002F00000F01DFD2B4670A23021322000F017FDCA
:100300002B466EA23021552000F011FD2B466DA228
:100310003021822000F00BFD23466CA244210520F1
:1003200000F005FD23466BA244212D2000F0FFFCC8
:1003300023466AA24421552000F0F9FC234669A215
:1003400044217D2000F0F3FC2B4653A250210520D0
:1003500000F0EDFC2B4650A250212D2000F0E7FCD0
:100360002B4662A25021552000F0E1FC2B465FA2F3
:100370005021822000F0DBFC23465DA26421002096
:1003800000F0D5FC23465BA26421142000F0CFFCD2
:10039000234659A26421282000F0C9FC234657A215
:1003A00064213C2000F0C3FC234655A26421502068
:1003B00000F0BDFC6421234652A2084600F0B7FCC1
:1003C000234651A26421782000F0B1FC23464FA2BD
:1003D00064218C2000F0ABFC2B464DA27021032041
:1003E00000F0A5FC2B464AA27021172000F09FFCCC
:1003F0002B4647A270212B2000F099FC2B4644A2EB
:1004000070213F2000F093FC2B4642A27021532024
:1004100000F08DFC2B463FA27021672000F087FC86
:100420002B463CA270217B2000F081FC2B46BDE8CE
:100430007040702136A28F2000F079BC01F01CFAC8
:1004400000F0E8FF4FF4E13001F079FA00F0A0FD90
:10045000FFF7DCFE30490120087030A003F044F8BB
:1004600001F033FB00F0A3FFFAE700009004002046
:1004700000F803084C696E6520496E004761696E9B
:1004800000000000426961730000000049205365CC
:100490006E736500496E3100323064420000000026
:1004A000494350004F464600496E3200566F6C7407
:1004B00000000000496E3300306442004E6F6E65EC
:1004C000000000004E4F0000496E3400414D503195
:1004D00000000000414D5032000000004F757433A1
:1004E000000000004F757434000000002000000080
:1004F000423000004231000042320000423300002E
:10050000423400004235000042360000423700000D
:1005100030000000310000000000002050726F67C2
:1005200072616D2053746172740D0A007047FEE7AA
:10053000FEE7FEE7FEE77047704770477047000030
:100540000CB500214B4801910091026842F48032C1
:1005500002604FF4A063026802F400320092019A34
:10056000521C0192009A12B9019A9A42F3D1026880
:10057000920333D5012100913F490A6842F01002ED
:100580000A600A6822F003020A600A6842F0020266
:100590000A604168416041684160416841F480619E
:1005A0004160416821F47C114160416841F4E811E7
:1005B0004160016841F08071016001688901FCD5EA
:1005C000416821F003014160416841F0020141604E
:1005D0004168C1F381010229FAD10CBD00910CBD23
:1005E000244810B5016841F0010101604168234AC7
:1005F000114041600168224A11400160016821F404
:1006000080210160416821F4FE0141604FF41F0127
:100610008160FFF795FF1B494FF00060086010BD37
:10062000144910B54868184A10F00C03174803D055
:10063000042B01D0082B0AD002604968134AC1F389
:100640000311121D515C0268CA40026010BD4A6865
:100650004B6802F470124FF0020413F4803F04EB75
:10066000924202D04B689B0301D5094B00E0064B38
:100670005A43E1E700100240002002400000FFF86A
:10068000FFFFF6FE08ED00E000127A0004000020F3
:1006900000093D002DE9F0474FF4805905464946D1
:1006A000FE4E304601F095FB00244FF400487714CD
:1006B0003946304601F08DFB28064146304602D5CA
:1006C00001F085FB01E001F084FB3946304601F082
:1006D0007EFB6806641C050EE4B2082CE8D349468C
:1006E0003046BDE8F04701F072BB10B504464FF448
:1006F0000071EB4801F06BFB2046BDE81040C9E7F4
:1007000010B504464FF40071E54801F060FBC4F3F6
:100710000720FFF7BFFFE0B2BDE81040BAE710B511
:1007200004464FF40071DE4801F053FB2046BDE85B
:100730001040AFE72DE9F04107461C4615460E462E
:100740002A20FFF7ECFF781CFFF7DAFF681CFFF7A1
:10075000D7FF2B20FFF7E3FFB01CFFF7D1FFA01C52
:10076000FFF7CEFFBDE8F0412C20D8E72DE9F84394
:100770000121282001F0A7FC4FF47046ADF800607D
:100780001024DFF818838DF8034003258DF80250FC
:100790006946404601F0ADFA3146404601F017FB8C
:1007A000BF4F6601ADF800606946384601F0A1FA16
:1007B0003146384601F00BFB2601ADF800608DF89C
:1007C00003408DF802506946384601F092FAA402BF
:1007D0002146404601F0FDFAC82001F07BF8214691
:1007E000404601F0F4FAC82001F074F8314638466A
:1007F00001F0EDFA1120FFF792FF782001F06AF87E
:10080000B120FFF78CFF0520FFF76FFF3C20FFF7BB
:100810006CFF3C20FFF769FFB220FFF780FF052047
:10082000FFF763FF3C20FFF760FF3C20FFF75DFF11
:10083000B320FFF774FF0520FFF757FF3C20FFF7B9
:1008400054FF3C20FFF751FF0520FFF74EFF3C20EF
:10085000FFF74BFF3C20FFF748FFB420FFF75FFF97
:100860000320FFF742FFC020FFF759FF2820FFF7C2
:100870003CFF0820FFF739FF0420FFF736FFC120B7
:10088000FFF74DFFC020FFF730FFC220FFF747FF03
:100890000D20FFF72AFF0020FFF727FFC320FFF7F7
:1008A0003EFF8D20FFF721FF2A20FFF71EFFC42007
:1008B000FFF735FF8D20FFF718FFEE20FFF715FF3C
:1008C000C520FFF72CFF1A20FFF70FFF3620FFF798
:1008D00026FF7020FFF709FFE020FFF720FF04202C
:1008E000FFF703FF2220FFF700FF0720FFF7FDFEC1
:1008F0000A20FFF7FAFE2E20FFF7F7FE3020FFF761
:10090000F4FE2520FFF7F1FE2A20FFF7EEFE282057
:10091000FFF7EBFE2620FFF7E8FE2E20FFF7E5FEAF
:100920003A20FFF7E2FE0020FFF7DFFE0120FFF78D
:10093000DCFE0320FFF7D9FE1320FFF7D6FEE120EF
:10094000FFF7EDFE0420FFF7D0FE1620FFF7CDFEE7
:100950000620FFF7CAFE0D20FFF7C7FE2D20FFF788
:10096000C4FE2620FFF7C1FE2320FFF7BEFE27208E
:10097000FFF7BBFE2720FFF7B8FE2520FFF7B5FEE7
:100980002D20FFF7B2FE3B20FFF7AFFE0020FFF760
:10099000ACFE0120FFF7A9FE0420FFF7A6FE1320FE
:1009A000FFF7A3FE3A20FFF7BAFE0520FFF79DFEF2
:1009B0002920FFF7B4FEBDE8F88370B50646002194
:1009C0007F239F220846FFF7B5FE0024002530460E
:1009D000FFF796FE6D1C802DF9D3641CA02CF5D377
:1009E00070BD2DE9F0471C46DDF820A01646102BFF
:1009F00002D0202C02D002E02A4D00E02A4D0B1933
:100A00000219521E5B1EFFF795FE6443C4F3C7072D
:100A100006FB0756DFF8909000254FF00108A9F17A
:100A2000040912E00024317808FA04F0014201D0F0
:100A3000504601E0D9F80000FFF762FE641CE4B202
:100A4000082CF0D36D1CEDB2761CBD42EAD3BDE894
:100A5000F0872DE9F0471746DDE9085A102B02D040
:100A6000202B04D006E0102D04D10E4E02E0202DE4
:100A700000D10D4EDC085A0700D0641C4B1900EB66
:100A8000C402521E5B1EFFF755FE6C4307FB046752
:100A900000264FF00108DFF8109007E0000C01403D
:100AA000001401409C0200201C000020A9F1040950
:100AB00012E00025397808FA05F0014201D05046CD
:100AC00001E0D9F80000FFF71BFE6D1CEDB2082D08
:100AD000F0D3761CF6B27F1CA642EAD3B7E710B576
:100AE00014460B460246FFF725FE2046BDE810409F
:100AF00006E62DE9F0471F4616460C468046DDF80F
:100B00002090FFF717FE08E0454603E04846FFF750
:100B1000F7FD6D1CB542F9D9641CBC42F4D996E7C7
:100B200008B54B1C0092421C401E491EFFF7E1FF16
:100B300008BD2DE9FE4F151ACDE900104FF0000851
:100B40005E1A47464FF0FF30002D02DD4FF00101E5
:100B500002E003D14FF000018B4602E08346C5F16D
:100B60000005002E02DD4FF0010002E003D14FF03E
:100B70000000824602E08246C5F10006B54201DD72
:100B80002C4600E03446601C4FF00009029015E04E
:100B9000DDE900100C9AFFF7A2FFA8443744A045F6
:100BA00004DD0198A8EB040858440190A74203DD36
:100BB00000983F1B5044009009F1010902998945B2
:100BC000E6D3BDE8FE8F2DE9F8431D46089C164686
:100BD000884607460B460094FFF7ABFF3A462B4684
:100BE000414610460094FFF7A4FF2B4632461946B3
:100BF00038460094FFF79DFF32462B46414610468B
:100C00000094FFF796FFD6E62DE9FF4F81B00E4620
:100C100007460025039C39E0711B381B8846824635
:100C2000049AFFF75CFF381941468146049AFFF7A2
:100C300056FF3119781B8B468046049AFFF74FFF09
:100C4000311B40460091049AFFF749FF711988460D
:100C50004846049AFFF743FF78198146049A0099A1
:100C6000FFF73DFF59464846049AFFF738FF4146D3
:100C70005046049AFFF733FF6D1C05FB05F004FB9B
:100C8000040103984043814200DD641EA542C3DD98
:100C900005B0BDE8F08F70B504460D462A20FFF779
:100CA0003EFD2046FFF72CFD2046FFF729FD2B20B7
:100CB000FFF735FD2846FFF723FD2846FFF720FD07
:100CC000BDE870402C202AE52DE9FF5F0C468046E8
:100CD0008946982829D87A2C27D8203AD0B2A74913
:100CE00000EB4000DFF898B2002501EB400A00BF9E
:100CF0001AF805700026A11C08F10100FFF7CBFFD0
:100D0000F80701D0039801E0DBF80000FFF7F8FCDA
:100D1000761C7F08F6B2641C082EECD36D1CEDB275
:100D20004C4608F10108062DE2D3BDE8FF9F2DE9EE
:100D3000F041984615460E4604464FF4784715E0B4
:100D40009A2C01D900240836782E04D9002426468E
:100D50003846FFF732FE2A78434631462046FFF7F1
:100D6000B3FF2878202806D0A41D6D1C2878002801
:100D7000E6D1BDE8F081A41CF7E72DE9F05F1C4641
:100D80008846814690282BD80846B8F1700F27D89E
:100D9000203AD6B200F10F0309F107024146484656
:100DA000FFF7C8FC7748002C4FF000041AD08346A8
:100DB00004EB061100251BF8017008EB040AF80784
:100DC00005D0514609EB05000A9AFFF788FE6D1C15
:100DD0007F08EDB2082DF2D3641CE4B2102CE7D3E7
:100DE000BDE8F09FDFF898814FEA000904EB061197
:100DF000002519F80170F80701D00A9801E0D8F829
:100E00000000FFF77DFC6D1C7F08EDB2082DF2D3CA
:100E1000641CE4B2102CE9D3E2E72DE9F8431F4645
:100E200016460D4604464FF4784813E0902C01D93D
:100E300000241035702D04D9002425464046FFF7C4
:100E4000BCFD00973278002329462046FFF795FF26
:100E50000834761C30780028E8D1ACE50246012041
:100E600000E05043491EC9B2FBD270472DE9F84F4C
:100E700000261D4691468A4607463446DDF82880FE
:100E800025E0281B401EC1B20A20FFF7E7FFB9FB8F
:100E9000F0F00A21B0FBF1F201FB120026B9691E45
:100EA0008C4201DA40B101263030C2B207EBC400F7
:100EB0000023CDF8008005E0002307EBC4002022CA
:100EC000CDF800805146FFF758FF641CE4B2AC42F5
:100ED000D7D3BDE8F88F2DE9F84F8A4680461D46E6
:100EE00029491046DDF8289002F00AFC02F0E8FBE0
:100EF0000746002429E0281B401EC1B20A20FFF744
:100F0000ADFFB7FBF0F00A21B0FBF1F201FB1206D6
:100F1000A81E84420DD108EBC50000232E225146A5
:100F20001038CDF80090FFF728FF641C6D1CE4B268
:100F3000EDB23036F2B208EBC40000235146CDF8D2
:100F40000090FFF71AFF641CE4B2AC42D3D3C0E7B1
:100F500070B5FFF7EFFB0D4D002442F2F85600BFCD
:100F600005EB44004078FFF7C0FB15F81400FFF7CD
:100F7000BCFB641CB442F3DB70BD00009838000871
:100F800018000020C03A00080000C842B040000825
:100F90007FB50121022001F09FF840F2E730ADF863
:100FA000040040F2CF20ADF8000000241A4DADF847
:100FB0000640ADF802406946284601F03DFD012299
:100FC0001146284601F0F6FF1D208DF80C008DF823
:100FD0000D4003208DF80E0001208DF80F0003A8AE
:100FE00000F0DDFD0121284601F0CFFF7FBD10B5E7
:100FF000094C0121204602F0F2F900280AD0012113
:10100000204602F0F8F905480168054809B1016871
:10101000491C016010BD0000000400409003002046
:101020007C030020008870472DE9F04116460F46EA
:101030000546002408E000BF37F81410284601F0E8
:101040003CFB641CA4B2AD1CB442F5D3BDE8F081F6
:1010500010B5002306E000BF30F8024B21F8134022
:101060005B1C9BB29342F7D310BD2DE9F05FA0F15A
:10107000006415468A468346B4F5802F53D201F0AA
:101080001EFAE70AC4F34906C6F58064A54200D8F3
:101090002C46DFF8A49000BF4FF0006000EBC720A3
:1010A00080464FF480622449FFF7D2FF00204FF6BC
:1010B000FF7106E0331839F813208A4203D1401C2F
:1010C00080B2A042F6D3A04225D2404601F032FAC7
:1010D0000020494607E000BF3AF810208319401C61
:1010E00021F8132080B2A042F6D3134940464FF4B2
:1010F000806200BFFFF798FFA54210D0281B0AEBC3
:10110000440AA344002685B24FF480647F1CA542A4
:10111000C2D82C46C0E7224651465846EAE7BDE809
:10112000F05F01F0D8B9BDE8F09F13B5012201A925
:10113000FFF79BFF1CBD00009C0400202DE9F04739
:10114000DFF870920126DFF8708299F800009B4F5B
:10115000002440F2FF7A002849D098F80000984D0A
:10116000142819D0C5F8B461534696A20C21322038
:10117000FFF7DDFDD8F804109448B1F1804F10D08E
:10118000934A914216D1C5F88841C0F89861C7F8D2
:10119000904153468FA224E0C5F8B44153468FA234
:1011A000E4E7C5F88861C0F89841C7F89041534614
:1011B0008CA216E08D4A914208D1C5F88841C0F84A
:1011C0009841C7F89061534689A20AE011F0FF4F99
:1011D0000BD1C5F88841C0F89841C7F890415346F3
:1011E00085A20C215520FFF7A2FD89F80040D7F811
:1011F000300148B188F80840534681A2BDE8F04765
:101200000C218220FFF793BD88F8086053467DA229
:10121000F4E72DE9F047DFF8F491DFF89C8101262F
:1012200099F80000654F08F10C0840F2FF7A00249D
:10123000E8B398F80000624D142819D0C5F8B861D9
:10124000534660A218213220FFF771FDD8F8041030
:101250005E48B1F1804F10D0644A914216D1C5F872
:101260008C41C0F89C41C7F89461534660A218E0D5
:10127000C5F8B841534659A2E4E7C5F88C61C0F8F7
:101280009C41C7F89441534656A20AE011F0FF4F23
:101290000BD1C5F88C41C0F89C41C7F89441534626
:1012A00055A218215520FFF742FD89F80040D7F8D4
:1012B0002C0148B188F80840534651A2BDE8F047D8
:1012C00018218220FFF733BD88F8086053464DA2ED
:1012D000F4E72DE9F047DFF83891DFF8DC800126EC
:1012E00099F80000354F002408F1180840F2FF7A01
:1012F000002849D098F80000314D142819D0C5F8BD
:10130000BC6153462FA224213220FFF710FDD8F8EC
:1013100004102E48B1F1804F10D02D4A914216D1C1
:10132000C5F89041C0F8A061C7F89841534629A27A
:1013300024E0C5F8BC41534628A2E4E7C5F8906113
:10134000C0F8A041C7F89841534626A216E0274AA4
:10135000914208D1C5F89041C0F8A041C7F8986102
:10136000534623A20AE011F0FF4F0BD1C5F890417C
:10137000C0F8A041C7F8984153461FA22421552028
:10138000FFF7D5FC89F80040D7F8280148B188F864
:10139000084053461AA2BDE8F04724218220FFF7F7
:1013A000C6BC88F80860534616A2F4E77047C5E645
:1013B000704700008D0300209C0C0020000021429B
:1013C000000023423064422020000000000022423E
:1013D000CDCC2C40322E3756000000003230644213
:1013E00000000000322E3056000000000000C04116
:1013F00049435020200000004E6F6E650000000041
:101400004F4646004F4E202000000000FC03002005
:10141000FD0300202DE9F84301217C2000F053FE5C
:10142000F020ADF800001024554F8DF8034003253F
:101430008DF802506946384600F05BFCF0213846D2
:1014400000F0C7FC4FF4F050ADF8000048268DF8CE
:1014500003606946384600F04CFCA701ADF8007007
:10146000DFF820818DF803408DF802506946404630
:1014700000F03FFC3946404600F0A9FC4FF470787C
:10148000ADF80080DFF800918DF803408DF8025030
:101490006946484600F02DFC4146484600F099FC5C
:1014A000FF20ADF80000DFF8E4808DF803408DF8F0
:1014B00002506946404600F01CFCFF21404600F007
:1014C00088FCADF800706946404600F012FCE70168
:1014D000ADF800706946404600F00BFC39464046C6
:1014E00000F077FC6002ADF800006946404600F06D
:1014F00000FCA702ADF800706946404600F0F9FB19
:101500003946404600F065FC2002ADF800008DF839
:1015100003606946404600F0ECFBE002ADF80000D5
:101520008DF803606946404600F0E3FB4020ADF8CB
:1015300000008DF803408DF80250154D694628468D
:1015400000F0D7FB4021284600F043FC3C20ADF8DA
:1015500000006946284600F0CCFB3C21284600F0FC
:1015600038FC4FF46044ADF800406946284600F06E
:10157000C0FB2146284600F02AFCBDE8F8830000A5
:1015800000080140000C014000100140001401401F
:1015900000180140FEB50121084600F094FD01212C
:1015A000202000F090FDFFF735FF0221032000F01E
:1015B00058FC002504208DF804500C2600908DF86E
:1015C000056001248DF80640684601F025FF0321DF
:1015D000084600F046FC8DF8045008278DF8056099
:1015E00000978DF80640684601F016FF042103209D
:1015F00000F037FC10208DF8045000908DF8056045
:101600008DF80640684601F007FF0521032000F031
:1016100028FC20208DF8045000908DF805608DF88E
:101620000640684601F0F8FE0621032000F019FC90
:1016300040208DF8045000908DF805608DF806402C
:10164000684601F0E9FE0721032000F00AFC802033
:101650008DF8045000908DF805608DF806406846BE
:1016600001F0DAFE8DF808708DF809508DF80A4007
:101670008DF80B4002A800F092FA09208DF80800BE
:101680008DF8095002208DF80A008DF80B4002A851
:1016900000F085FA0A208DF808008DF80950032023
:1016A0008DF80A008DF80B4002A800F078FA172098
:1016B0008DF808008DF809408DF80A508DF80B4020
:1016C00002A800F06CFAFEBD10B5042001F0F4FE93
:1016D000A8B1042001F0FEFE654CD4F8080170B9F1
:1016E0000A2000F0F7F8D4F8080140B96148012158
:1016F0000170002141708170C17001714171BDE8BC
:101700001040042001F0E6BE10B5082001F0D4FE20
:10171000A8B1082001F0DEFE554CD4F80C0170B9D8
:101720000A2000F0D7F8D4F80C0140B95148002144
:101730000122017042708170C17001714171BDE878
:101740001040082001F0C6BE10B5102001F0B4FE14
:10175000A8B1102001F0BEFE454CD4F8100170B9BC
:101760000A2000F0B7F8D4F8100140B94148002130
:101770000122017041708270C17001714171BDE838
:101780001040102001F0A6BE2DE9F041202001F00C
:1017900093FE0025374C364E012788B1202001F0FA
:1017A00099FED6F8140158B90A2000F093F8D6F83B
:1017B000140128B925706570A570E77025716571F1
:1017C000402001F079FE88B1402001F083FED6F878
:1017D000180158B90A2000F07DF8D6F8180128B988
:1017E00025706570A570E57027716571802001F026
:1017F00063FE88B1802001F06DFED6F81C0158B957
:101800000A2000F067F8D6F81C0128B92570657029
:10181000A570E57025716771202001F05BFE402006
:1018200001F058FEBDE8F041802001F053BE10B534
:101830004FF48064204601F03FFE10B1204601F0D5
:1018400049FE4FF40064204601F036FE10B12046F8
:1018500001F040FE4FF48054204601F02DFE002898
:1018600004D02046BDE8104001F034BE10BD000099
:10187000008022428003002010B56FF0040000F0C9
:10188000CEF9204820490068B0FBF1F0C1B21F48F2
:1018900001EB41020170C2EBC1114FF6FF7202EA87
:1018A000C101418010BD1949097848434FF0E0213A
:1018B000486100228A61086940F0010008610869F6
:1018C000C30701D0C003FAD5086920F00100086100
:1018D0008A6170470D49498848434FF0E0214861CB
:1018E00000228A61086940F0010008610869C307A5
:1018F00001D0C003FAD5086920F0010008618A61AF
:10190000704700000400002000127A0086030020C7
:10191000704784490A885206FCD5824AC1B2121D1A
:10192000118070477F4910B50B1D04E00C886406D8
:10193000FCD51A80401C0278002AF7D110BD70B582
:101940000546012186B0C80400F0C6FB0121102025
:1019500000F0B9FB4FF48060ADF8100003248DF85F
:1019600012401820704E8DF8130004A9304600F084
:10197000C0F9F014ADF8100004208DF8130004A98C
:10198000304600F0B6F934208DF814008DF815407B
:101990008DF8164001208DF8170005A800F0FFF81B
:1019A0000020ADF80400ADF80600ADF80800ADF871
:1019B0000C000C205B4CADF80A00009569462046EF
:1019C00000F000FC012240F22551204600F077FC97
:1019D0000121204600F069FC06B070BD10B5514CE5
:1019E00040F22551204600F021FD00280FD020466E
:1019F00000F0B5FC4E494D4B4A6898544D4B0020C1
:101A0000521C18604A60142A01D91420486010BD85
:101A100030B5002306E0C45CCD5CAC4201D00020B0
:101A200030BD5B1C9342F6DB012030BD10B50023B6
:101A300006E000BF11F8014B5B1C00F8014BDBB264
:101A40009342F7D310BD2DE9F0413A4801680229CD
:101A500039D90026364D066034492A79A1F114009F
:101A6000FFF7E4FF002405F108076E602F4957F8DF
:101A7000240005221439FFF7CBFF10B1641C2C7031
:101A80000EE057F8240001F03BFDC2B257F82400E5
:101A900029A1FFF7BDFF18B9641CE4B2322CE5D3CD
:101AA000224900200E54401CC0B21428FAD32878D2
:101AB00018B91E481438FFF735FF1C481421143894
:101AC00001F03DFD6E60BDE8F08170B5FFF7BBFF32
:101AD000174C0025012022781949082A1FD2DFE877
:101AE00002F01E04080B0F13171A16A001F0FCFCDD
:101AF00013E060700D7010E06070142008700CE04E
:101B000060704FF0804001E060701048486004E071
:101B100060700F48FAE760704D60257070BD002A54
:101B2000FBD170BD004C004000100140D40C0020DF
:101B30008C0300207C030020636D645F656E64008D
:101B40009C0C00205445535400000000CDCC2C4088
:101B50000000C0410948804709480047FEE7FEE70A
:101B6000FEE7FEE7FEE7FEE7FEE7FEE7FEE7FEE74D
:101B700004480549054A064B70470000E105000886
:101B800031010008480D002048130020480F0020B4
:101B9000480F00202849084328490860704770B55D
:101BA0000F23C47801780122F4B1244C24684578CD
:101BB00004F4E064C4F5E064240AC4F10406E340DC
:101BC0008478B5401C402C4301F1E021230181F8C9
:101BD0000034007800F01F018A404009800000F1C5
:101BE000E020C0F8002170BD01F01F0082404809CC
:101BF000800000F1E020C0F8802170BD104A114043
:101C000001430E48001F016070470C4A121D002955
:101C1000116801D0014300E08143116070474FF02B
:101C2000E0210428086903D020F00400086170470F
:101C300040F00400FAE700000000FA050CED00E0B7
:101C400080FFFF1F914910B5884206D10121042071
:101C500000F04BFA002104203BE08D49884206D178
:101C60000121082000F041FA0021082031E08949D3
:101C7000884206D10121102000F037FA00211020FF
:101C800027E08549884206D10121202000F02DFA65
:101C9000002120201DE08149884206D101214020F9
:101CA00000F023FA0021402013E07D49884206D14C
:101CB0000121802000F019FA0021802009E07949F3
:101CC00088420AD184150121204600F00EFA002135
:101CD0002046BDE8104000F008BA10BD10B5012143
:101CE000084600F002FA0021BDE81040012000F093
:101CF000FCB9F0B5CA78002502F00F03D20601D571
:101D00008A7813430A784FF00F0E12F0FF0F4FF04E
:101D100001021DD0D0F800400F8802FA05F63740C6
:101D2000B74211D14FEA850C0EFA0CF724EA0707E7
:101D300003FA0CF43C43CF78282F02D0482F02D06E
:101D400002E0466100E006616D1C082DE4D30460EA
:101D50000C88FF2C1ED944685FF0000606F10807C6
:101D600002FA07F50F882F40AF420FD14FEA860CD9
:101D70000EFA0CF7BC4303FA0CF73C43CF78282F3C
:101D800000D14561CF78482F00D10561761C082E1F
:101D9000E4D34460F0BD4FF6FF71018002218170F1
:101DA0000421C17070470246002092680A4200D0A8
:101DB00001207047806880B2704702460020D268D8
:101DC0000A4200D001207047C06880B270470161AC
:101DD0007047416170470AB10161704741617047C6
:101DE000C160704741F480328261816182618169A2
:101DF000806970472C4B10B51A684FF680742240EA
:101E000042EA00100843186010BD2849C8617047B5
:101E1000F0B5254C002801DAE36900E06368420D63
:101E2000120185B2C0F301579540C0F30346032F5A
:101E300005D0C2020AD50322B240934307E023F043
:101E40007062636823F07063636002E0AB4343F049
:101E5000706201B12A43002801DAE261F0BD6260DC
:101E6000F0BD10B58A0721F003040F49130F214478
:101E70000F228C689A4094438C608A689840024391
:101E80008A6010BD0949C1F8DC00704700080140B4
:101E9000000C0140001001400014014000180140F6
:101EA000001C0140002001400000014000002042D1
:101EB000A448016841F0010101604168A24A114053
:101EC00041600168A14A11400160016821F480214C
:101ED0000160416821F4FE0141604FF41F018160FF
:101EE000704798490A6822F480320A600A6822F42E
:101EF00080220A60B0F5803F07D0B0F5802F03D173
:101F0000086840F4A02008607047086840F48030FA
:101F1000F9E70246002053098A49012B0AD0022B17
:101F20000AD0496A02F01F02012393400B4200D0FD
:101F3000012070470968F5E7096AF3E718B5002042
:101F40004FF4A06400903120FFF7E3FF0099491C93
:101F50000091A14201D00028F5D03120FFF7D9FF30
:101F6000002800D0012018BD76490A6822F0F80246
:101F700042EAC00008607047754908607047714ABE
:101F80005368084323F47C1318435060704770492A
:101F9000086670476B4A516821F0030101435160A4
:101FA00070476848406800F00C007047654A516807
:101FB00021F0F001014351607047624A516821F4F9
:101FC000E0610143516070475E494A6822F4605203
:101FD00042EAC000486070475A4A0029517A01D04D
:101FE000014300E08143517270475949C1F8D8005C
:101FF0007047544A516821F4404101435160704791
:102000005049002281F8202081F82020012802D0A8
:10201000042802D1052081F8200070474D4908604E
:10202000704748490A6A02430A627047494944397D
:102030000860704730B543494A6812F00C03464ABD
:1020400003D0042B01D0082B21D002604A680F2353
:10205000424C03EA1212A35C0268DA4042604B6809
:10206000072505EA1323E35C22FA03F383604B6838
:1020700005EAD323E35CDA40C2604968032303EA3C
:102080009131231F595CB2FBF1F1016130BD4A6807
:102090004B6802F470124FF0020413F4803F04EB1B
:1020A000924202D04B689B0301D52D4B00E02A4B96
:1020B0005A43CAE7234A0029516901D0014300E08D
:1020C0008143516170471F4A0029916901D0014342
:1020D00000E08143916170471A4A0029D16901D01B
:1020E000014300E08143D1617047164A0029D1685D
:1020F00001D0014300E08143D1607047114A0029BB
:10210000116901D0014300E0814311617047114919
:102110004039086070470E49C86470470949C87162
:1021200070470848416A41F0807141627047054A32
:102130000146002092680A4200D001207047014900
:1021400088727047001002400000FFF8FFFFF6FEA3
:10215000000042428004424200127A0080040020C3
:1021600000093D00C44910B588420AD101218C0301
:102170002046FFF7BAFF2046BDE810400021FFF7D8
:10218000B4BFBE49884202D101214C0410E0BC49D1
:10219000884202D101218C040AE0BA49884202D166
:1021A0000121CC0404E0B84988420AD101210C0580
:1021B0002046FFF7A3FF2046BDE810400021FFF7AF
:1021C0009DBF10BD30B50446008A85B00D464CF663
:1021D000FF710840E98801432182A1894EF6F3107E
:1021E0000140A8882A8910436A890A431043A081C4
:1021F000A08A4FF6FF410840A9890143A1826846A1
:10220000FFF718FF9C48844201D1039800E0029830
:10221000A189090400EBC00101EB0010296801D578
:10222000490000E08900B0FBF1F06422B0FBF2F15C
:1022300009010B096FF018056B4300EB8300A389BC
:102240001D044FF0320306D503EBC000B0FBF2F0E3
:1022500000F0070005E003EB0010B0FBF2F000F027
:102260000F000843208105B030BD4FF416510160C6
:1022700000218180C18001810C22428181817047CF
:1022800010B5038A4FF2FF0213400A884C8822439C
:102290008C88C9880C4322431A43028210BD002156
:1022A000018041808180C18070470029818902D0EE
:1022B00041F4005101E021F400518181704710B5D3
:1022C000C1F3421301F01F040121A140012B07D0EB
:1022D000022B07D01430002A026805D00A4304E01C
:1022E0000C30F8E71030F6E78A43026010BD002A90
:1022F000828A01D00A4300E08A4382827047028AC0
:1023000022F00F020282028A0A4302827047828907
:1023100022F40062828182890A4382817047002907
:10232000818902D041F0020101E021F002018181A6
:102330007047028A22F020020282028A0A43028245
:1023400070470029018A02D041F4804101E021F464
:10235000804101827047C1F3080181807047808805
:10236000C0F308007047818941F001018181704705
:10237000028BD2B20283028B42EA012101837047B1
:10238000028B02F47F420283028B0A43028370476E
:102390000029818A02D041F0200101E021F02001D2
:1023A000818270470029818A02D041F0100101E04A
:1023B00021F01001818270470029818A02D041F00A
:1023C000080101E021F0080181827047002981891C
:1023D00002D041F4004101E0C1F30E018181704758
:1023E0000029818A02D041F4006101E021F40061FA
:1023F00081827047828A22F004028282828A0A43A2
:10240000828270470029818A02D041F0020101E0F6
:1024100021F00201818270470246002012880A42A0
:1024200000D001207047C9430180704730B501F0EA
:102430001F0201240025C1F3421304FA02F2012B0A
:102440000FD0022B0FD0838A4FEA1121008813424C
:1024500004FA01F400EA040001D000B10125284685
:1024600030BD8389F0E7038AEEE70A0A0121914033
:10247000C94301807047000000380140004400401B
:1024800000480040004C004000500040FC4A1168E9
:1024900001F03801014311607047F9490A6822F0E0
:1024A00008020A600A6802430A607047F4490A6831
:1024B00022F010020A600A6802430A607047F0487E
:1024C000F0494160F04941607047ED48ED49416095
:1024D000ED4941607047EA48016941F080010161BE
:1024E0007047E748016941F0800101617047E449A4
:1024F0000420CA68D20701D001207047CA68520779
:1025000001D502207047C968C906FBD50320704772
:1025100000B50346FFF7EBFF03E000BFFFF7E7FF5F
:102520005B1E012803D0002B00D1052000BD002B2D
:10253000F4D1FAE770B505464FF430263046FFF780
:10254000E7FF042811D1CE4C206940F00200206141
:102550006561206940F0400020613046FFF7D8FFF8
:10256000216941F6FD721140216170BD30B54FF413
:1025700030252846FFF7CCFF042810D1C04C206935
:1025800040F004002061206940F0400020612846AE
:10259000FFF7BEFF216941F6FB721140216130BD9A
:1025A00000B50346FFF7A3FF03E000BFFFF79FFF5F
:1025B0005B1E012803D0002B00D1052000BD002B9D
:1025C000F4D1FAE730B54FF430252846FFF7E8FF9D
:1025D000042810D1AA4C206940F004002061206931
:1025E00040F0400020612846FFF7DAFF216941F6FC
:1025F000FB721140216130BDA1490020C9698907E2
:1026000000D50120704770B5A525FFF7F5FF00B193
:1026100000254FF430263046FFF77AFF042827D1F3
:10262000974C9848A0609848A060206940F020002E
:102630002061206940F0400020613046FFF768FFCC
:1026400041F6EF7604280ED1206941F6DF7108408B
:102650002061206940F0100020618C4805804FF413
:102660000050FFF755FF052802D021693140216154
:1026700070BDF8B5064600204FF4005C00900D4692
:102680006046FFF745FF042816D17D4C206940F0D5
:102690000100206135806046FFF73AFF41F6FE7782
:1026A000042806D1B61C280C009630806046FFF73F
:1026B0002FFF216939402161F8BDF0B506464FF47E
:1026C00000570D463846FFF723FF04280CD16C4C09
:1026D000206940F00100206135803846FFF718FF7F
:1026E0002169BA1E11402161F0BDF0B506464FF4D4
:1026F00000570D463846FFF70BFF042813D1604CF6
:102700006048A0606048A060206940F0100020612F
:1027100035803846FFF7FCFE052804D0216941F6D4
:10272000EF7211402161F0BD2DE9F041C04300F08E
:10273000FF0CC0F30727C0F30746050E4FF40058FF
:102740004046FFF7E5FE042837D14D4C4D49A160C6
:102750004D49A160216941F010012161BCF1FF0FD9
:1027600008D04A480830A0F800C04046FFF7D0FE25
:1027700004281BD1FF2F07D044480A300780404669
:10278000FFF7C6FE042811D1FF2E07D03F480C30BA
:1027900006804046FFF7BCFE042807D1FF2D07D076
:1027A0003A480E3005804046FFF7B2FE052804D0B7
:1027B000216941F6EF7211402161BDE8F08170B5E9
:1027C00005464FF430263046FFF7A2FE042818D104
:1027D0002B4C2C48A0602C48A060206940F02000C1
:1027E0002061206940F0400020613046FFF790FEF4
:1027F00041F6DF71042805D0052802D022690A407D
:10280000226170BD206908402061206940F01000FD
:1028100020611E480DB1002100E0A5210180304655
:10282000FFF776FE0528ECD0216941F6EF721140E2
:10283000216170BDF0B5124C0746124816460D4690
:10284000A0601148A0604FF4005C6046FFF760FE96
:10285000042814D1206940F01000206135430B4951
:102860003D43891C45F0F80008806046FFF750FEA4
:10287000052804D0216941F6EF7211402161F0BDB5
:102880000020024023016745AB89EFCD00F8FF1F10
:102890001C48C069800870471A48006A7047194987
:1028A00000200968890600D501207047154A0029D3
:1028B000116901D0014300E0814311617047014675
:1028C0000020104A012903D0D2680A4203D1704780
:1028D000D169C907FBD0012070470A49C860704719
:1028E00008490420CA68D20701D001207047CA688D
:1028F000520701D502207047C968C906FBD50320DD
:102900007047000000200240F94910B5884202D10A
:102910000121C41486E0B0F1804F09D0F549884206
:102920000DD101210220FFF7E9FB0021022064E024
:1029300001210846FFF7E2FB002101205DE0EE499E
:10294000884206D101210420FFF7D8FB0021042092
:1029500053E0EA49884206D101210820FFF7CEFB67
:102960000021082049E0E649884206D101211020D3
:10297000FFF7C4FB002110203FE0E249884206D166
:1029800001212020FFF7BAFB0021202035E0DE499D
:10299000884202D10121441444E0DC49884202D13A
:1029A0000121CC043EE0DA49884202D101210C0524
:1029B00038E0D849884202D101214C0532E0D6499D
:1029C000884206D101214020FFF798FB00214020DA
:1029D00013E0D249884206D101218020FFF78EFB07
:1029E0000021802009E0CE4988420AD184150121C6
:1029F0002046FFF783FB00212046BDE81040FFF78B
:102A00007DBBC849884202D101210C040AE0C649B5
:102A1000884202D101214C0404E0C44988420AD111
:102A200001218C042046FFF760FB2046BDE81040E2
:102A30000021FFF75ABB10BD30B50288AC4BB24C39
:102A400098420DD0A0420BD0B0F1804F08D0A94DD4
:102A5000A84205D0A84DA84202D0A84DA84203D153
:102A600022F070054A882A43A54DA84206D0A54DFC
:102A7000A84203D022F44075CA882A4302808A887B
:102A800082850A88028598420AD0A04208D0A54AC9
:102A9000904205D0A44A904202D0A44A904201D16B
:102AA000097A01860121818230BD30B5028C22F085
:102AB00001020284028C8388048B22F0020224F03B
:102AC00073050C882C430D8915434A882A43884D89
:102AD000A8420BD08C4DA84208D0924DA84205D0F8
:102AE000914DA84202D0914DA8420DD122F0080587
:102AF0004A8923F440732A4322F004058A882A4332
:102B00008D891D43CB892B4383800483C9888186AB
:102B1000028430BD70B5028C22F010020284028C57
:102B20008488038B0D8823F4E6464FF6FF7303EA8F
:102B3000052535430E8922F0200203EA06161643C6
:102B40004A8803EA02123243694EB04202D06E4E06
:102B5000B04215D122F080064A8924F4406403EA89
:102B60000212324322F040068A8803EA02123243FC
:102B70008E8903EA86062643CC8903EA840434431B
:102B800084800583C9880187028470BD70B5028C7A
:102B900022F480720284028C8488838B0D8823F057
:102BA00073031D4322F400730E894FF6FF7202EA8D
:102BB00006261E434B8802EA032333434C4EB042A1
:102BC00002D0514EB04215D123F400664B8924F453
:102BD000405402EA0323334323F480668B8802EADD
:102BE000032333438E8902EA06162643CC8902EA80
:102BF0000414344384808583C9888187038470BD2D
:102C000070B5028C22F480520284048C8288838BFB
:102C10000D8823F4E6464FF6FF7303EA0525354396
:102C200024F400560C8903EA043434434E8803EA42
:102C3000063626432E4CA04202D0334CA04205D18A
:102C400022F480448A8903EA8212224382808583A7
:102C5000C988A0F84010068470BD828B22F44062BF
:102C60008283828B4FF6FF7303EA01210A4382833A
:102C70007047828B22F00C028283828B0A4382830C
:102C80007047028B22F440620283028B4FF6FF737F
:102C900003EA01210A4302837047F0B5048C24F053
:102CA00010040484078B048C4FF6FF7527F47347D8
:102CB00005EA03333B4305EA02221A430C4B05EABB
:102CC000011698420ED0104B98420BD0B0F1804FB5
:102CD00008D0084B984205D0074B984202D0074BCA
:102CE000984225D124F02001314341F0100124E025
:102CF000002C01400004004000080040000C00408F
:102D0000001000400014004000340140004C01401D
:102D1000005001400054014000180040001C0040D9
:102D200000200040004001400044014000480140B4
:102D300024F0A0030B4343F0100102830184F0BD93
:102D4000028B22F00C020283028B0A43028370473B
:102D500070B5048C24F001040484058B048C4FF6B8
:102D6000FF7606EA0313134325F0F305F94A2B43D4
:102D700090420ED0F84A90420BD0B0F1804F08D06C
:102D8000F64A904205D0F64A904202D0F54A904267
:102D900002D124F0020201E024F00A020A4342F0C8
:102DA00001010383018470BD2DE9F05F0D460446E7
:102DB0000888E84FDFF8A0C3DFF8A0834988AA8815
:102DC0002B894FF0804960B3042832D04FF6FF7E44
:102DD000082836D0208C9B4620F480502084A38B7A
:102DE000268C704600EA022223F473431A4300EA59
:102DF0000B3010430EEA013EBC420BD0644509D0B3
:102E00004C4507D0444505D0D54A944202D0D54B15
:102E10009C4245D126F4005141EA0E0141F4805113
:102E200043E02046FFF794FFE9882046BDE8F05FC5
:102E300086E72046FFF731FFE9882046BDE8F05FCE
:102E40001FE7208C20F480702084B4F81CA0208C14
:102E50000EEA031313432AF0F30A0EEA012B43EAA6
:102E60000A03BC420BD0644509D04C4507D0444509
:102E700005D0BB4A944202D0BA4A944204D120F40D
:102E8000007040EA0B0002E020F42060084340F4A8
:102E90008070A3832084E9882046BDE8F05FE8E6DF
:102EA00026F402420A4342F48051A0832046218442
:102EB000E988BDE8F05FD0E62DE9F0410C46002638
:102EC00049880746012501B90226A288012A00D1B6
:102ED0000225208823890028384610D0FFF7DDFE20
:102EE000E1883846FFF7CDFE23892A463146384629
:102EF000FFF72EFFE1883846BDE8F04120E7FFF7F5
:102F000027FFE1883846FFF71BFF23892A46314611
:102F10003846FFF7C2FEE1883846BDE8F041B0E62A
:102F200010B50A884B88CC881A438B8823431A43F0
:102F30000B891A434B8989891A430A43A0F8442014
:102F400010BD4FF6FF71818000210180C18041805A
:102F5000017270470021018041808180C180018120
:102F600041818181C181704700210180418001221E
:102F70008280C18001817047002101804180818071
:102F8000C18001814181818170470029018802D07F
:102F900041F0010101E021F00101018070470029A9
:102FA00030F8441F02D041F4004101E0C1F30E01AA
:102FB00001807047002A828901D00A4300E08A43D9
:102FC00082817047818270471143A0F84810704792
:102FD000002A828901D00A4300E08A438281704737
:102FE000018921F0070101817047028922F07002F6
:102FF0000A430281704700B50346FFF7F6FF1889C0
:1030000040F00700188100BD70B516460D466029D6
:1030100004464FF0010231460AD0FFF799FE2946D7
:103020002046FFF7E2FF208940F00700208170BDB5
:10303000FFF733FEF3E730B504894FF6FF7505EA75
:1030400003231343E4B20B432343038130BD10B584
:103050000446FFF7F0FF208940F07700208110BD83
:1030600010B50446FFF7E7FF208940F48040208137
:1030700010BD018582827047028822F070020A43E7
:103080000280704770B50589048B068C25F0070512
:103090000D434FF6FC410C4040F201110C434FF63A
:1030A000FF7101EA031126F0220611433143058125
:1030B0000483018470BD028B22F070020A430283F4
:1030C0007047028B4FF6FF7322F4E04203EA0121BE
:1030D000114301837047828B22F070020A4382837E
:1030E0007047828B4FF6FF7322F4E04203EA01211E
:1030F0001143818370470029018802D041F080018B
:1031000001E021F08001018070470029818802D010
:1031100041F0040101E021F00401818070470029A1
:10312000818802D041F0080101E021F0080181808E
:1031300070470029818802D041F0010101E021F0AF
:10314000010181807047028B22F008020A4302834A
:1031500070470000002C0140003401400004004092
:1031600000080040000C0040028B4FF6FF7322F471
:10317000006203EA012111430183E9E7828B22F017
:1031800008020A438283E3E7828B4FF6FF7322F43F
:10319000006203EA012111438183D9E7028B22F007
:1031A00004020A430283D3E7028B4FF6FF7322F433
:1031B000806203EA012111430183C9E7828B22F077
:1031C00004020A438283C3E7828B4FF6FF7322F423
:1031D000806203EA012111438183B9E7028B22F067
:1031E00080020A430283B3E7028B4FF6FF73C2F3F8
:1031F0000E0203EA012111430183A9E7828B22F029
:1032000080020A438283A3E7828B4FF6FF73C2F3E7
:103210000E0203EA01211143818399E7028C22F017
:1032200002020A43028493E7028C22F008020A4356
:1032300002848DE7028C4FF6FF7322F0200203EA2E
:1032400001111143018483E7028C4FF6FF7322F0D2
:10325000800203EA01111143018479E7028C4FF6E1
:10326000FF7322F4007203EA0121114301846FE726
:10327000028C4FF6FF7322F4006203EA012111432E
:10328000018465E7028C4FF6FF7322F4005203EAD3
:103290000131114301845BE710B50123048C8B409D
:1032A0009C430484038C8A401343038410BD10B5EF
:1032B0000423048C8B409C430484038C8A40134376
:1032C000038410BD30B50124058C00F118038C4037
:1032D000A543058489B108290FD0091FC1F34E0009
:1032E0001844016821F4E041016001684FF6FF7362
:1032F00003EA02221143016030BD03EB5100016873
:1033000021F0700101600168F4E70029018802D012
:1033100041F0020101E021F00201018018E70029DB
:10332000018802D041F0040101E021F00401018094
:103330000EE70029818802D041F0800101E021F0F0
:103340008001818004E7028822F00802028002885E
:103350000A430280FCE6828822F070028280828822
:103360000A438280F4E6028922F007020281028980
:103370000A430281ECE6028922F08002028102897E
:103380000A430281E4E68184E2E68185E0E6818603
:10339000DEE60187DCE68187DAE6A0F84010D7E6B2
:1033A000028822F44072028002880A430280CFE63B
:1033B000808ECDE6008FCBE6808FC9E6B0F8400066
:1033C000C6E6808CC4E6008DC2E602460020128A62
:1033D0000A4200D00120BBE6C9430182B8E602469A
:1033E0000020138A92890B4202EA010202D0002ACD
:1033F00000D00120ACE6C9430182A9E6374900208C
:103400000860091D0860091D0860091D086033492E
:10341000334814310860704730B530498379026809
:1034200053B30B6893430B600A1D13680468A343EE
:10343000136002790A441368046823431360274A1F
:10344000083213680468A3431360131D1C680568E1
:10345000AC431C604479102C05D021440A680068F4
:1034600002430A6030BD1168046821431160196885
:1034700000680143196030BD007908440168914338
:10348000016030BD0021016001710C224271817127
:103490007047124910310A6802430A6070470146BA
:1034A0000E4A0020143212680A4200D001207047F0
:1034B0000A49143108607047084A01460020126822
:1034C000064B0A4014331B680B4202D0002A00D07E
:1034D0000120704701491431086070470004014021
:1034E000FFFF0F00704700000FB4044910B503AA96
:1034F000029800F071F810BC5DF814FB780400200D
:1035000010B5431C02E010F8011B71B18107FAD11C
:103510004FF0013202C88C1A8C4314EAC211F9D060
:10352000C01A0A0603D0C01E10BDC01A10BD0A047E
:1035300001D0801E10BD0902FCD0401E10BD4FF00E
:1035400000020429C0F0128010F0030C00F01B8070
:10355000CCF1040CBCF1020F18BF00F8012BA8BF7E
:1035600020F8022BA1EB0C0100F00DB85FEAC17C42
:1035700024BF00F8012B00F8012B48BF00F8012BF5
:1035800070474FF0000200B5134694469646203926
:1035900022BFA0E80C50A0E80C50B1F12001BFF40C
:1035A000F7AF090728BFA0E80C5048BF0CC05DF872
:1035B00004EB890028BF40F8042B08BF704748BFC0
:1035C00020F8022B11F0804F18BF00F8012B704734
:1035D0007047704770477047074B70B50D467B4486
:1035E00000F011F80446284600F020F810B14FF022
:1035F000FF3070BD204670BD31E3FFFF01694A1CFA
:1036000002610878704700B58FB0CDE90131002123
:10361000059105497944CDE903101146684600F04B
:103620002EF80FB000BD0000E5FFFFFF007B00F0AB
:1036300080007047754600F03FF8AE4605006946C9
:10364000534620F00700854618B020B5FEF790FAE3
:10365000BDE820404FF000064FF000074FF0000893
:103660004FF0000B21F00701AC46ACE8C009ACE814
:10367000C009ACE8C009ACE8C0098D4670472DE927
:10368000F04106460024D6E90170F56880463046D0
:1036900003E04146B847641C3046A8470028F8D1EB
:1036A0002046BDE8F08110B50446AFF30080204607
:1036B000BDE81040FCF7A3BD00487047E80C0020AF
:1036C000C10DD1F19E0206DB4FEA002343F0004317
:1036D00023FA02F07047004207D54FEA4001B1F1EA
:1036E000FE4F02D24FF00000704710B500F089F88D
:1036F00049922480002070476FEA20007047000044
:103700004FF47F0C1CEAD0121EBF1CEAD11392EAC0
:103710000C0F93EA0C0F00F0478090EA010F48BFAE
:1037200042F480724FF0004C4CEA00204CEA012138
:1037300002EB0302A0FB0113A2F50002002918BF4F
:1037400043F001035B0028BF4FEA330342EB224200
:103750005FEA132C4CEBC2502EBFBCEB436FB2F5AB
:103760007C0F70474FEA036CBCF1004F08BF20F09C
:103770000100B2F57C0F38BF70470BD582F0FF0215
:1037800012F5803FC8BF704700F1C040D8BF00F0BD
:103790000040704700F5000C5FEA4C0C48BF7047D2
:1037A000B0F1C04000F073B890EA010F0CEAD113F9
:1037B00048BF42F48072624538BF634504D280EA54
:1037C000010000F00040704710B500F01AF800BF8B
:1037D0008900013E00F007B800F009B85FEA410C2B
:1037E0005FEA1C6C08D080EA010000F050B85FEA84
:1037F000400C5FEA1C6CF6D14FF00040A0F5800051
:1038000070470EF1020E2EF0030E5EF8044B2442B8
:1038100004D44FEA4102B2F17F4F11D84FEA40037E
:10382000B3F17F4F0CD80ED14FEAD07CB2F17F4F6D
:103830000CEB4C0C0CF1020C08BF4CEBD17C04E0FF
:103840004FF0080C01E04FEAD17C0CEB4C0324FA5A
:1038500003F404F00704B4F1040C06D20EEB840C5C
:10386000BDE810404CF0010C6047DFE80CF00708A1
:1038700002024FF00040A0F5800010BD0846420053
:1038800018BFD2F1807288BF00F0004010BDFF2148
:1038900041EAD050C0057047000000000000000061
:1038A000002F000000000700070000147F147F14A1
:1038B00000242A7F2A120062640813230036495527
:1038C000225000000503000000001C2241000000FF
:1038D00041221C000014083E08140008083E080895
:1038E000000000A0600000080808080800006060F0
:1038F0000000002010080402003E5149453E00002F
:10390000427F4000004261514946002141454B3110
:10391000001814127F10002745454539003C4A49DC
:10392000493000017109050300364949493600064E
:103930004949291E000036360000000056360000B6
:103940000008142241000014141414140000412231
:10395000140800020151090600324959513E007C09
:103960001211127C007F49494936003E41414122F3
:10397000007F4141221C007F49494941007F0909DC
:103980000901003E4149497A007F0808087F00008C
:10399000417F4100002040413F01007F0814224147
:1039A000007F40404040007F020C027F007F0408FF
:1039B000107F003E4141413E007F09090906003E5B
:1039C0004151215E007F0919294600464949493184
:1039D0000001017F0101003F4040403F001F2040A7
:1039E000201F003F4038403F006314081463000765
:1039F0000870080700615149454300007F414100BC
:103A000000552A552A55000041417F00000402015B
:103A10000204004040404040000001020400002039
:103A200054545478007F4844443800384444442077
:103A300000384444487F00385454541800087E0924
:103A400001020018A4A4A47C007F080404780000EC
:103A5000447D4000004080847D00007F10284400A9
:103A60000000417F4000007C04180478007C0804BA
:103A7000047800384444443800FC242424180018F6
:103A8000242418FC007C08040408004854545420E2
:103A900000043F444020003C4040207C001C20406B
:103AA000201C003C4030403C004428102844001CAE
:103AB000A0A0A07C004464544C44141414141414A6
:103AC00000000000000000000000000000000000F6
:103AD000000000080808080808080000181800007E
:103AE00000486C24120000000000000000000000EC
:103AF0000000002424247F1212127F1212120000F0
:103B00000000081C2A2A0A0C1828282A2A1C08083F
:103B100000000022251515152A585454542200007F
:103B20000000000C1212120A76252911916E000075
:103B30000006060403000000000000000000000072
:103B40000040201010080808080808101020400045
:103B500000020408081010101010100808040200D9
:103B60000000000008086B1C1C6B08080000000027
:103B700000000000080808087F0808080800000086
:103B80000000000000000000000000000606040322
:103B90000000000000000000FE0000000000000027
:103BA0000000000000000000000000000606000009
:103BB0000000804040202010100808040402020089
:103BC00000000018244242424242424224180000AF
:103BD000000000080E08080808080808083E000051
:103BE0000000003C4242422020100804427E0000B7
:103BF0000000003C4242201820404042221C0000AD
:103C0000000000203028242422227E20207800007A
:103C10000000007E0202021A26404042221C0000E0
:103C2000000000382402021A2642424224180000F2
:103C30000000007E22221010080808080808000072
:103C40000000003C4242422418244242423C000010
:103C5000000000182442424264584040241C0000E6
:103C600000000000000018180000000018180000F4
:103C70000000000000000008000000000008080428
:103C8000000000402010080402040810204000003A
:103C90000000000000007F0000007F000000000026
:103CA0000000000204081020402010080402000058
:103CB0000000003C4242464020101000181800004E
:103CC0000000001C225A555555552D42221C00005B
:103CD0000000000808181414243C224242E70000A7
:103CE0000000001F2222221E22424242221F000008
:103CF0000000007C4242010101010142221C00003F
:103D00000000001F2242424242424242221F000063
:103D10000000003F4212121E12120242423F0000F7
:103D20000000003F4212121E12120202020700009F
:103D30000000003C2222010101712122221C00000E
:103D4000000000E7424242427E42424242E7000017
:103D50000000003E0808080808080808083E00009F
:103D60000000007C10101010101010101010110F17
:103D70000000007722120A0E0A1212222277000097
:103D8000000000070202020202020202427F00005B
:103D900000000077363636362A2A2A2A2A6B000097
:103DA000000000E346464A4A52525262624700000F
:103DB0000000001C2241414141414141221C0000C0
:103DC0000000003F424242423E020202020700005F
:103DD0000000001C2241414141414D53321C600012
:103DE0000000003F4242423E1212222242C700001F
:103DF0000000007C4242020418204042423E000083
:103E00000000007F4908080808080808081C00008E
:103E1000000000E74242424242424242423C00002D
:103E2000000000E74242222424141418080800006D
:103E30000000006B494949495555362222220000AD
:103E4000000000E7422424181818242442E7000048
:103E5000000000772222141408080808081C00003B
:103E60000000007E2120101008040442423F0000A0
:103E700000780808080808080808080808087800F2
:103E8000000002020404080808101020202040400E
:103E9000001E1010101010101010101010101E0026
:103EA0000038440000000000000000000000000096
:103EB000000000000000000000000000000000FF03
:103EC00000060800000000000000000000000000E4
:103ED000000000000000003C4278444242FC000028
:103EE000000000030202021A26424242261A000083
:103EF00000000000000000384402020244380000C4
:103F000000000060404040784442424264D80000D3
:103F1000000000000000003C427E0202423C000023
:103F2000000000F08808087E08080808083E000025
:103F3000000000000000007C22221C023C42423CA7
:103F4000000000030202023A4642424242E70000F9
:103F50000000000C0C00000E08080808083E0000D5
:103F60000000003030000038202020202020221EB9
:103F70000000000302020272120A161222770000E9
:103F80000000000E0808080808080808083E00009D
:103F9000000000000000007F9292929292B7000011
:103FA000000000000000003B4642424242E70000A1
:103FB000000000000000003C42424242423C00003F
:103FC000000000000000001B26424242221E0207A1
:103FD000000000000000007844424242447840E083
:103FE00000000000000000774C040404041F0000DF
:103FF000000000000000007C42023C40423E000005
:10400000000000000008083E08080808083000000A
:1040100000000000000000634242424262DC0000F7
:1040200000000000000000E74224241408080000FB
:1040300000000000000000EB494955552222000015
:10404000000000000000007624181818246E0000FC
:1040500000000000000000E74224241418080807AC
:10406000000000000000007E22100808447E0000CE
:1040700000C0202020202010202020202020C00050
:104080001010101010101010101010101010101030
:1040900000060808080808100808080808080600AC
:1040A0000C32C20000000000000000000000000010
:1040B000FFFFFFFFFFFFFFFFFFFFFFFFFFFFFFFF10
:1040C000FFFFFFFFFFFFFFFFFFFFFFFFFFFFFFFF00
:1040D000FFFFFFFFFFFFFFFFFFFFFFFFFFFFFFFFF0
:1040E000FFFFFFFFFFFFFFFFFFFFFFFFFFFFFFFFE0
:104550003FBF1FB77FCFFFFFFFFFFFFFFFFFFFFF43
:10456000FFFFFFFFFFFFFFFFFFFFFFFFFFFFFFFF5B
:10457000FFFFFFFFFFFFFFFFFFFFFFFFFFFFFFFF4B
:10458000FFFFFFFFFFFFFFFFFFFFFFFFFFFFFFFF3B
:10459000FFFFFFFFFFFFFFFFFFFFFFFFFFFFFFFF2B
:1045A000FFFFFFFFFFFFFFFFFFFFFFFFFFFFFFFF1B
:1045B000FFFFFFFFFFFFFFFFFFFFFFFFFFFFFFFF0B
:1045C000FFFFFFFFFFFFFFFFFFFFFFFFFFFFFFFFFB
:1045D000FFFFFFFFFFFFFFFFFFFFFFFFFFFFFFFFEB
:1045E000FFFFFFFFFFFFFFFFFFFFFFFFFFFFFFFFDB
:1045F000FFFFFFFFFFFFFFFFFFFFFFFFFFFFFFFFCB
:10460000FFFFFFFFFFFFFFFFFFFFFFFFFFFFFFFFBA
:10461000FFFFFFFFFFFFFFFFFFFFFFFFFFFFFFFFAA
:10462000FFFFFFFFFFFFFFFFFFFFFFFFFFFFFFFF9A
:10463000FFFFFFFFFFFFFFFFFFFFFFFFFFFFFFFF8A
:10464000FFFFFFFFFFFFFFFFFFFFFFFFFFFFFFFF7A
:10465000FFFFFFFFFFFFFFFFFFFFFFFF1D0DFD043B
:104660005D053D05DD2DFFFFFFFFFFFFFFFFFFFFA6
:10467000FFFFFFFFFFFFFFFFFFFFFFFFFFFFFFFF4A
:10468000FFFFFFFFFFFFFFFFFFFFFFFFFFFFFFFF3A
:10469000FFFFFFFFFFFFFFFFFFFFFFFFFFFFFFFF2A
:1046A000FFFFFFFFFFFFFFFFFFFFFFFFFFFFFFFF1A
:1046B000FFFFFFFFFFFFFFFFFFFFFFFFFFFFFFFF0A
:1046C000FFFFFFFFFFFFFFFFFFFFFFFFFFFFFFFFFA
:1046D000FFFFFFFFFFFFFFFFFFFFFFFFFFFFFFFFEA
:1046E000FFFFFFFFFFFFFFFFFFFFFFFFFFFFFFFFDA
:1046F000FFFFFFFFFFFFFFFFFFFFFFFFFFFFFFFFCA
:10470000FFFFFFFFFFFFFFFFFFFFFFFFFFFFFFFFB9
:10471000FFFFFFFFFFFFFFFFFFFFFFFFFFFFFFFFA9
:10472000FFFFFFFFFFFFFFFFFFFFFFFFFFFFFFFF99
:10473000FFFFFFFFFFFFFFFFFFFFFFFFFFFFFFFF89
:10474000FFFFFFFFFFFFFFFFFFFFFFFFFFFFFFFF79
:10475000FFFFFFFFFFFFFFFFFFFFFFFFFFFFFFFF69
:10476000FFFFFFFFFFFFFFFF5C3D1D059D051E4690
:104770001E4E7D059E7EFFFFFFFFFFFFFFFFFFFF39
:10478000FFFFFFFFFFFFFFFFFFFFFFFFFFFFFFFF39
:10479000FFFFFFFFFFFFFFFFFFFFFFFFFFFFFFFF29
:1047A000FFFFFFFFFFFFFFFFFFFFFFFFFFFFFFFF19
:1047B000FFFFFFFFFFFFFFFFFFFFFFFFFFFFFFFF09
:1047C000FFFFFFFFFFFFFFFFFFFFFFFFFFFFFFFFF9
:1047D000FFFFFFFFFFFFFFFFFFFFFFFFFFFFFFFFE9
:1047E000FFFFFFFFFFFFFFFFFFFFFFFFFFFFFFFFD9
:1047F000FFFFFFFFFFFFFFFFFFFFFFFFFFFFFFFFC9
:10480000FFFFFFFFFFFFFFFFFFFFFFFFFFFFFFFFB8
:10481000FFFFFFFFFFFFFFFFFFFFFFFFFFFFFFFFA8
:10482000FFFFFFFFFFFFFFFFFFFFFFFFFFFFFFFF98
:10483000FFFFFFFFFFFFFFFFFFFFFFFFFFFFFFFF88
:10484000FFFFFFFFFFFFFFFFFFFFFFFFFFFFFFFF78
:10485000FFFFFFFFFFFFFFFFFFFFFFFFFFFFFFFF68
:10486000FFFFFFFFFFFFFFFFFFFFFFFFFFFFFFFF58
:10487000FFFFFFFFFFFF5A043D059D051E563E5EEC
:104880009D059D25FFFFFFFFFFFFFFFFFFFFFFFFD0
:10489000FFFFFFFFFFFFFFFFFFFFFFFFFFFFFFFF28
:1048A000FFFFFFFFFFFFFFFFFFFFFFFFFFFFFFFF18
:1048B000FFFFFFFFFFFFFFFFFFFFFFFFFFFFFFFF08
:1048C000FFFFFFFFFFFFFFFFFFFFFFFFFFFFFFFFF8
:1048D000FFFFFFFFFFFFFFFFFFFFFFFFFFFFFFFFE8
:1048E000FFFFFFFFFFFFFFFFFFFFFFFFFFFFFFFFD8
:1048F000FFFFFFFFFFFFFFFFFFFFFFFFFFFFFFFFC8
:10490000FFFFFFFFFFFFFFFFFFFFFFFFFFFFFFFFB7
:10491000FFFFFFFFFFFFFFFFFFFFFFFFFFFFFFFFA7
:10492000FFFFFFFFFFFFFFFFFFFFFFFFFFFFFFFF97
:10493000FFFFFFFFFFFFFFFFFFFFFFFFFFFFFFFF87
:10494000FFFFFFFFFFFFBFEF3ECFBDAE3C86DC6D3C
:104950007B551B3DDB24BB1C9B0C7A047B049B0416
:104960005B047B047B04BC04DC04FC043C0D7D156F
:104970009D25DD353E4E9E6EBE7E1EA79FDFFFFF4E
:10498000FFFFFFFFF9031D057D05BD05BD055D05A5
:104990009D25FFFFFFFFFFFFFFFFFFFFFFFFFFFF63
:1049A000FFFFFFFFFFFFFFFFFFFFFFFFFFFFFFFF17
:1049B000FFFFFFFFFFFFFFFFFFFFFFFFFFFFFFFF07
:1049C000FFFFFFFFFFFFFFFFFFFFFFFFFFFFFFFFF7
:1049D000FFFFFFFFFFFFFFFFFFFFFFFFFFFFFFFFE7
:1049E000FFFFFFFFFFFFFFFFFFFFFFFFFFFFFFFFD7
:1049F000FFFFFFFFFFFFFFFFFFFFFFFFFFFFFFFFC7
:104A0000FFFFFFFFFFFFFFFFFFFFFFFFFFFFFFFFB6
:104A1000FFFFFFFFFFFFFFFFFFFFFFFFFFFFFFFFA6
:104A2000FFFFFFFFFFFFFFFFFFFFFFFFFFFFFFFF96
:104A3000FFFFFFFFFFFFFFFFFFFFFFFFFFFFFFFF86
:104A4000FFFFFFFFFFFFFFFF1ECF1C965A65793463
:104A5000D80B7703780378039803B803D803D903F6
:104A6000F903190419043A045A045A045A047A043A
:104A70007B049B049B04BB04DC04DC04FC04FC04FA
:104A80001C053D053D055D055D055D05BD0D7FC74B
:104A9000FFFF1A5D3A043D055D055D05BC04BE9649
:104AA000FFFFFFFFFFFFFFFFFFFFFFFFFFFFFFFF16
:104AB000FFFFFFFFFFFFFFFFFFFFFFFFFFFFFFFF06
:104AC000FFFFFFFFFFFFFFFFFFFFFFFFFFFFFFFFF6
:104AD000FFFFFFFFFFFFFFFFFFFFFFFFFFFFFFFFE6
:104AE000FFFFFFFFFFFFFFFFFFFFFFFFFFFFFFFFD6
:104AF000FFFFFFFFFFFFFFFFFFFFFFFFFFFFFFFFC6
:104B0000FFFFFFFFFFFFFFFFFFFFFFFFFFFFFFFFB5
:104B1000FFFFFFFFFFFFFFFFFFFFFFFFFFFFFFFFA5
:104B2000FFFFFFFFFFFFFFFFFFFFFFFFFFFFFFFF95
:104B3000FFFFFFFFFFFFFFFFFFFFFFFFFFFFFFFF85
:104B4000FFFFFFFFFFFFFFFFFFFFFFFFFFFFBDC6F0
:104B5000F72B560BF602D502F6021603570377031E
:104B600077039703B803B803D803D803D803F9032E
:104B7000F9031904190439043A043A045A045A048A
:104B80005A047B049B04BB04BB04DB04FC04FC044C
:104B90001C053C053C057D059D059D057D05FE9E8E
:104BA000FFFF793499035B041B04DC65FFFFFFFF03
:104BB000FFFFFFFFFFFFFFFFFFFFFFFFFFFFFFFF05
:104BC000FFFFFFFFFFFFFFFFFFFFFFFFFFFFFFFFF5
:104BD000FFFFFFFFFFFFFFFFFFFFFFFFFFFFFFFFE5
:104BE000FFFFFFFFFFFFFFFFFFFFFFFFFFFFFFFFD5
:104BF000FFFFFFFFFFFFFFFFFFFFFFFFFFFFFFFFC5
:104C0000FFFFFFFFFFFFFFFFFFFFFFFFFFFFFFFFB4
:104C1000FFFFFFFFFFFFFFFFFFFFFFFFFFFFFFFFA4
:104C2000FFFFFFFFFFFFFFFFFFFFFFFFFFFFFFFF94
:104C3000FFFFFFFFFFFFFFFFFFFFFFFFFFFFFFFF84
:104C4000FFFFFFFFFFFFFFFFFFFFFFFFFFFFFFFF74
:104C5000FFFFFFFFFFFFFFFFFFFFFFFFFFFFB72B80
:104C6000950216031603160336033603570357033C
:104C70007703770397039703B803B803D803D803E0
:104C8000D803F903F9031904190419043A043A047E
:104C90005A045A047A049B04BB04BB04DB04FC04DE
:104CA000FC043C055C057D05BD1DBD259D1D5FBF4C
:104CB000FFFF7EE7DDBEBFF7FFFFFFFFFFFFFFFF48
:104CC000FFFFFFFFFFFFFFFFFFFFFFFFFFFFFFFFF4
:104CD000FFFFFFFFFFFFFFFFFFFFFFFFFFFFFFFFE4
:104CE000FFFFFFFFFFFFFFFFFFFFFFFFFFFFFFFFD4
:104CF000FFFFFFFFFFFFFFFFFFFFFFFFFFFFFFFFC4
:104D0000FFFFFFFFFFFFFFFFFFFFFFFFFFFFFFFFB3
:104D1000FFFFFFFFFFFFFFFFFFFFFFFFFFFFFFFFA3
:104D2000FFFFFFFFFFFFFFFFFFFFFFFFFFFFFFFF93
:104D3000FFFFFFFFFFFFFFFFFFFFFFFFFFFFFFFF83
:104D4000FFFFFFFFFFFFFFFFFFFFFFFFFFFFFFFF73
:104D5000FFFFFFFFFFFFFFFFFFFFFFFFFFFFFFFF63
:104D6000FFFFFFFFFFFFFFFFFFFFFFFFFFFF161328
:104D7000B502F502F5021603160336033603560391
:104D8000570357037703770397039803B803B803D0
:104D9000F803F903F903190439043A045A047A04AC
:104DA0005A047B049B049B04BB04BB04DB04FC048B
:104DB0001C053C057C059D1DBD3DDD45DD45FFFF1A
:104DC000FFFFFFFFFFFFFFFFFFFFFFFFFFFFFFFFF3
:104DD000FFFFFFFFFFFFFFFFFFFFFFFFFFFFFFFFE3
:104DE000FFFFFFFFFFFFFFFFFFFFFFFFFFFFFFFFD3
:104DF000FFFFFFFFFFFFFFFFFFFFFFFFFFFFFFFFC3
:104E0000FFFFFFFFFFFFFFFFFFFFFFFFFFFFFFFFB2
:104E1000FFFFFFFFFFFFFFFFFFFFFFFFFFFFFFFFA2
:104E2000FFFFFFFFFFFFFFFFFFFFFFFFFFFFFFFF92
:104E3000FFFFFFFFFFFFFFFFFFFFFFFFFFFFFFFF82
:104E4000FFFFFFFFFFFFFFFFFFFFFFFFFFFFFFFF72
:104E5000FFFFFFFFFFFFFFFFFFFFFFFFFFFFFFFF62
:104E6000FFFFFFFFFFFFFFFFFFFFFFFFFFFFFFFF52
:104E7000FFFFFFFFFFFFFFFFFFFFFFFFDFFF54020A
:104E8000B402D502D502D502D502F502F602771397
:104E90009713B71BF823970BB713D723971B561BF2
:104EA000562335231523D41AD422B422B422F43243
:104EB000B432D43A153B563BD733183C99445C4541
:104EC000DD253C057C25BD4DDD5D9D353FBFFFFFEC
:104ED000FFFFFFFFFFFFFFFFFFFFFFFF9FEF763B9F
:104EE000D753D753D753D753D753D753D753D75372
:104EF000D753D753D753D753D753D753D753D75362
:104F0000D74B9643FFFFFFFF9A95B643D753D7532E
:104F1000D753D753D753D753D753D753D753D75341
:104F2000D753D74BF753398DFFFFFFFFFFFFFFFF2D
:104F3000FFFFFFFFFFFFFFFFFFFFBB9DF753D74BB7
:104F4000D753D753D753D753D753D753D74BF753F9
:104F5000398DFFFFFFFFFFFFFFFFFFFFFFFFFFFF99
:104F6000FFFFFFFFFFFFFFFFFFFFFFFFFFFFFFFF51
:104F7000FFFFFFFFFFFFFFFFFFFFFFFFFFFFFFFF41
:104F8000FFFFFFFFFFFFFFFFFFFFFFFF1EDF13021B
:104F9000B50A761BD81BF8133914F803B803570366
:104FA0001603F60216031603761BD72BF73B17449E
:104FB00098649864F97CD87CD87CB87C987C577CC1
:104FC000B66B555BD34A7242F1310F196D00EE207A
:104FD000BD255C259C3D9C2D5C057D6EFFFFFFFF84
:104FE000FFFFFFFFFFFFFFFFFFFF5EE71101B201C1
:104FF000B201B201B201B201B201B201B201B20119
:10500000B201B201B201B201B201B201B201B20108
:105010003101FFFFFFFF375C7101B201B201B20144
:10502000B201B201B201B201B201B201B201B201E8
:10503000B201B201920171013CB6FFFFFFFFFFFF19
:10504000FFFFFFFF3CB692017201B201B201B20153
:10505000B201B201B201B201B201B201B2019201D8
:1050600051011985FFFFFFFFFFFFFFFFFFFFFFFF5C
:10507000FFFFFFFFFFFFFFFFFFFFFFFFFFFFFFFF40
:10508000FFFFFFFFFFFFFFFFFFFFFFFFFFFFFFFF30
:10509000FFFFFFFFFFFFFFFFFFFFFFFF9FE7DD5564
:1050A0005B041A0419049A245B55FC7DBDAE5ED7DF
:1050B000DFF7FFFFFFFFFFFFFFFFFFFFFFFFFFFF28
:1050C000FFFFFFFFFFFFFFFFFFFFFFFFFFFFFFFFF0
:1050D000FFFFFFFFFFFFFFFFFFFFFFFFFDF659147C
:1050E0001C051B051C05FB04FD5DFFFFFFFFFFFF0B
:1050F000FFFFFFFFFFFFFFFFDFFF5101B201B20122
:10510000B201B201B201B201B201B201B201B20107
:10511000B201B201B201B201B201B2019201920137
:10512000FFFFFFFFBB9D11019201920192019201CD
:1051300092019201920192019201920192019201D7
:105140009201F201F20131011DD7FFFFFFFFFFFFC6
:105150003CB63101F201F301D201B201B201B20158
:10516000B201B201B201B201B201B201F301F30125
:105170005101B874FFFFFFFFFFFFFFFFFFFFFFFFBD
:10518000FFFFFFFFFFFFFFFFFFFFFFFFFFFFFFFF2F
:10519000FFFFFFFFFFFFFFFFFFFFFFFFFFFFFFFF1F
:1051A000FFFFFFFFFFFFFFFFFFFFFFFFFFFFFFFF0F
:1051B000DFEFFFFFFFFFFFFFFFFFFFFFFFFFFFFF2F
:1051C0009FEF3ED7BDBE3CA6FB95DB8D9B7D9B7DB7
:1051D000BB7DBB7DBB7DBB7DBB7D1C8E1C967DA638
:1051E000DDB63ECF9FE7DFF7FFFF7FDF9A04BB040A
:1051F000BB04BB047A045D86FFFFFFFFFFFFFFFFD8
:10520000FFFFFFFFFFFFFFFF9CC6F753375C375CD4
:10521000375C375C375C375C375C375C375C375CF6
:10522000375C375C375C375C375C175C1DD7FFFF3A
:10523000FFFFFFFF9CC67A959A9D9A9D9A9D9A9D25
:105240009A9D9A9D9A9D9A9D9A9D9A9DBA9D5A95CE
:10525000F301F201D201B422FFFFFFFFFFFFB20111
:10526000F201F3017101B643B874B874B874B8743C
:10527000B874B874B874B874375C9201F201F30171
:1052800051011EDFFFFFFFFFFFFFFFFFFFFFFFFFDB
:10529000FFFFFFFFFFFFFFFFFFFFFFFFFFFFFFFF1E
:1052A000FFFFFFFFFFFFFFFFFFFFFFFFFFFFFFFF0E
:1052B000FFFFFFFFFFFFFFFFFFFFFFFFFFFF3EDFDF
:1052C0003CAE39855854762BB40254025402540231
:1052D0005402740294029502B502D502D502F60278
:1052E000F6021603160336033703570357037703F3
:1052F00077039803B803F903F9035A045A045A04CC
:105300007A04F9035ED7FFFFFFFFFFFFFFFFFFFFF8
:10531000FFFFFFFFFFFFFFFFFFFFFFFFFFFFFFFF9D
:10532000FFFFFFFFFFFFFFFFFFFFFFFFFFFFFFFF8D
:10533000FFFFFFFFFFFFFFFFFFFFFFFFFFFFFFFF7D
:10534000FFFFFFFFFFFFFFFFFFFFFFFFFFFFFFFF6D
:10535000FFFFFFFFFFFFFFFFFFFFFFFFFFFFBFF7A5
:105360007201F3017101DFFFFFFF9A957201F301F2
:1053700092019CC6FFFFFFFFFFFFFFFFFFFFFFFF44
:10538000FFFFFFFFFFFFFFFFBFF7D201F301B201F5
:10539000F753FFFFFFFFFFFFFFFFFFFFFFFFFFFFD1
:1053A000FFFFFFFFFFFFFFFFFFFFFFFFFFFFFFFF0D
:1053B000FFFFFFFFFFFFFFFFFFFFFFFFFFFFFFFFFD
:1053C000FFFFFFFFFFFFFFFFFFFFFFFF5312510132
:1053D000D201130233025302740274029402B40223
:1053E000B502D502D502D502F502F5021603160361
:1053F000360336035703770377037703970397033F
:105400009803D803D803F9031904190419041904DB
:10541000190CFFFFFFFFFFFFFFFFFFFFFFFFFFFF75
:10542000FFFFFFFFFFFFFFFFFFFFFFFFFFFFFFFF8C
:10543000FFFFFFFFFFFFFFFFFFFFFFFFFFFFFFFF7C
:10544000FFFFFFFFFFFFFFFFFFFFFFFFFFFFFFFF6C
:10545000FFFFFFFFFFFFFFFFFFFFFFFFFFFFFFFF5C
:10546000FFFFFFFFFFFFFFFFFFFFFFFFFFFFD20177
:10547000F3015101BFF7FFFF1754B201D2013533D9
:10548000FFFFFFFFFFFFFFFFFFFFFFFFFFFFFFFF2C
:10549000FFFFFFFFFFFFFFFFB874B201D2019412BC
:1054A000FFFFFFFFFFFFFFFFFFFFFFFFFFFFFFFF0C
:1054B000FFFFFFFFFFFFFFFFFFFFFFFFFFFFFFFFFC
:1054C000FFFFFFFFFFFFFFFFFFFFFFFFFFFFFFFFEC
:1054D000FFFFFFFFFFFFFFFFFFFFFFFFF309D20109
:1054E0001302330233025302530274027402940211
:1054F0009402B402B502D502D502F502F5021603F4
:10550000160316033603360357035703770377034F
:1055100097039803B803D803D803D803D90379A510
:10552000FFFFFFFFFFFFFFFFFFFFFFFFFFFFFFFF8B
:10553000FFFFFFFFFFFFFFFFFFFFFFFFFFFFFFFF7B
:10554000FFFFFFFFFFFFFFFFFFFFFFFFFFFFFFFF6B
:10555000FFFFFFFFFFFFFFFFFFFFFFFFFFFFFFFF5B
:10556000FFFFFFFFFFFFFFFFFFFFFFFFFFFFFFFF4B
:10557000FFFFFFFFFFFFFFFFFFFFFBAD9201F30106
:105580009201FFFFFFFFF753B201D201D64BFFFF9D
:10559000FFFFFFFFFFFFFFFFFFFFFFFFFFFFFFFF1B
:1055A000FFFFFFFFFFFF9A9D9201F201530AFFFFE9
:1055B000FFFFFFFFFFFFFFFFFFFFFFFFFFFFFFFFFB
:1055C000FFFFFFFFFFFFFFFFFFFFFFFFFFFFFFFFEB
:1055D000FFFFFFFFFFFFFFFFFFFFFFFFFFFFFFFFDB
:1055E000FFFFFFFFFFFFFFFFFFFF7EEF5101D20133
:1055F000F201130213023302330233025302530245
:1056000054027402740294029402B402D502D502C8
:10561000D502F502F5021603360336035703570386
:105620007703970397039803D803754BFFFFFFFF9A
:10563000FFFFFFFFFFFFFFFFFFFFFFFFFFFFFFFF7A
:10564000FFFFFFFFBBA5F97C198519851985198511
:10565000198519851985198519851985198519855A
:1056600019851985D974FFFFFFFF1985D422152BE1
:10567000152B152B152B152B152B152B152B152B2A
:10568000152B152B152BF5229201F301B201B64B08
:10569000FFFFFFFFF753B201D201D64BFFFFFFFF21
:1056A000FFFFFFFFFFFFFFFFFFFFFFFFFFFFFFFF0A
:1056B000FFFFFFFF7A959201F201530AFFFFFFFF00
:1056C000FFFFFFFFFFFFFFFFFFFFFFFFFFFFFFFFEA
:1056D000FFFFFFFFFFFFFFFFFFFFFFFFFFFFFFFFDA
:1056E000FFFFFFFFFFFFFFFFFFFFFFFFFFFFFFFFCA
:1056F000FFFFFFFFFFFFFFFFFFFF5CCEF000710128
:105700009101B201B201F3091312330AB422D52276
:10571000F5221523352B76335633D743763376333C
:10572000763B762BD5021603160336033603360373
:105730003603B80B361B1453FFFFFFFFFFFFFFFFBD
:10574000FFFFFFFFFFFFFFFFFFFFFFFFFFFF1DD773
:1057500092017201920192019201920192019201D1
:1057600092019201920192019201920192019201A1
:1057700092011101FFFFFFFF58647201D201D201B3
:10578000D201D201D201D201D201D201D201D20181
:10579000D201D201D201F301F3011302FFFFFFFF97
:1057A000FFFFF753B201D201D64BFFFFFFFFFFFF10
:1057B000FFFFFFFFFFFFFFFFFFFFFFFFFFFFFFFFF9
:1057C000FFFF7A959201F201530AFFFFFFFFFFFFEF
:1057D000FFFFFFFFFFFFFFFFFFFFFFFFFFFFFFFFD9
:1057E000FFFFFFFFFFFFFFFFFFFFFFFFFFFFFFFFC9
:1057F000FFFFFFFFFFFFFFFFFFFFFFFFFFFFFFFFB9
:10580000FFFFFFFFFFFFFFFFFFFF9AAD5623570B80
:10581000980BF8137934DA3C1A557A6DBB7DFB95F9
:105820001C9E3CAE7CB67CBE5CBE5CBE5CBEFBAD72
:105830005BC69964B502F50216031603360B345B9A
:10584000B5731BC6FFFFFFFFFFFFFFFFFFFFFFFF5B
:10585000FFFFFFFFFFFFFFFFFFFFFFFFF201D2018E
:105860001302F301D201D201D201D201D201D2013D
:10587000D201D201D201D201D201D201D201D20190
:105880005101FFFFFFFF786CB2011302D2017201D8
:105890007201720172017201720172017201720170
:1058A00072019201F201F3019201BDC6FFFFFFFFF9
:1058B000F753B201D201D64BFFFFFFFFFFFFFFFFFF
:1058C000FFFFFFFFFFFFFFFFFFFFFFFFFFFFFFFFE8
:1058D0007A959201F201530AFFFFFFFFFFFFFFFFDE
:1058E000FFFFFFFFFFFFFFFFFFFFFFFFFFFFFFFFC8
:1058F000FFFFFFFFFFFFFFFFFFFFFFFFFFFFFFFFB8
:10590000FFFFFFFFFFFFFFFFFFFFFFFFFFFFFFFFA7
:10591000FFFFFFFFFFFFFFFFFFFFFFFFFFF7FFFF9F
:10592000FFFFFFFFFFFFFFFFFFFFFFFFFFFFFFFF87
:10593000FFFFFFFFFFFFFFFFFFFFFFFFFFFFFFFF77
:105940005CB65402D502D502D5029502FFFFFFFFD7
:10595000FFFFFFFFFFFFFFFFFFFFFFFFFFFFFFFF57
:10596000FFFFFFFFFFFFFFFF1DDF5101F301F30109
:10597000B201D422D422D422D422D422D422D422BA
:10598000D422D422D422D422D422D422941AFBA505
:10599000FFFFFFFF786CB201D201F7539CC65CBEDB
:1059A0005CBE5CBE5CBE5CBE5CBE5CBE5CBE5CBE27
:1059B0001BAE530AF201D201941AFFFFFFFFF75307
:1059C000B201D201D64BFFFFFFFFFFFFFFFFFFFF3A
:1059D000FFFFFFFFFFFFFFFFFFFFFFFFFFFF7A95C6
:1059E0009201F201530AFFFFFFFFFFFFFFFFFFFFDE
:1059F000FFFFFFFFFFFFFFFFFFFFFFFFFFFFFFFFB7
:105A0000FFFFFFFFFFFFFFFFFFFFFFFFFFFFFFFFA6
:105A1000FFFFFFFFFFFFFFFFFFFFFFFFFFFFFFFF96
:105A2000FFFFFFFFFFFFFFFFFFFFFFFFFFFFFFFF86
:105A3000FFFFFFFFFFFFFFFFFFFFFFFFFFFFFFFF76
:105A4000FFFFFFFFFFFFFFFFFFFFFFFFFFFFF5125D
:105A500074029402B402B402B412BFFFFFFFFFFF4E
:105A6000FFFFFFFFFFFFFFFFFFFFFFFFFFFFFFFF46
:105A7000FFFFFFFFFFFFFDD67101F3019201FDD68D
:105A8000FFFFFFFFFFFFFFFFFFFFFFFFFFFFFFFF26
:105A9000FFFFFFFFFFFFFFFFFFFFFFFFFFFFFFFF16
:105AA000FFFF786CB201B201D97CFFFFFFFFFFFF5F
:105AB000FFFFFFFFFFFFFFFFFFFFFFFFFFFFFFFFF6
:105AC000FFFF7101F3015101DFFFFFFFF753B20147
:105AD000D201F753FFFFFFFFFFFFFFFFFFFFFFFFB5
:105AE000FFFFFFFFFFFFFFFFFFFFFFFF9A9D9201F8
:105AF000F201530AFFFFFFFFFFFFFFFFFFFFFFFF62
:105B0000FFFFFFFFFFFFFFFFFFFFFFFFFFFFFFFFA5
:105B1000FFFFFFFFFFFFFFFFFFFFFFFFFFFFFFFF95
:105B2000FFFFFFFFFFFFFFFFFFFFFFFFFFFFFFFF85
:105B3000FFFFFFFFFFFFFFFFFFFF19A5966B155348
:105B4000132AD219710951011001100131013101DB
:105B500051015101710192019201B20133025402CB
:105B60007402740254023543FFFFFFFFFFFFFFFF83
:105B7000FFFFFFFFFFFFFFFFFFFFFFFFFFFFFFFF35
:105B8000FFFFFFFFFDD67101F301B201FFFFFFFF31
:105B9000FFFFFFFFFFFFFFFFFFFFFFFFFFFFFFFF15
:105BA000FFFFFFFFFFFFFFFFFFFFFFFFFFFFFFFF05
:105BB000786CB201B201B874FFFFFFFFFFFFFFFF77
:105BC000FFFFFFFFFFFFFFFFFFFFFFFFFFFFFFFFE5
:105BD000D201F3015101BFF7FFFF7864B201F20176
:105BE0005312FFFFFFFFFFFFFFFFFFFFFFFFFFFF5E
:105BF000FFFFFFFFFFFFFFFFFFFFB643D201D20110
:105C0000D422FFFFFFFFFFFFFFFFFFFFFFFFFFFFAC
:105C1000FFFFFFFFFFFFFFFFFFFFFFFFFFFFFFFF94
:105C2000FFFFFFFFFFFFFFFFFFFFFFFFFFFFFFFF84
:105C3000FFFFFFFFFFFFFFFFFFFFFFFFFFFFFFFF74
:105C4000FFFFFFFFFFFFFFFF7EEF2F00B008F01008
:105C5000111131095109710971099201B201B201A1
:105C6000D201D201F201F201130213023302330214
:105C7000530233025AADFFFFFFFFFFFFFFFFFFFF9D
:105C8000FFFFFFFFFFFFFFFFFFFFFFFFFFFFFFFF24
:105C9000FFFFFDD67101F301B201FFFFFFFFFFFF20
:105CA000FFFFFFFFFFFFFFFFFFFFFFFFFFFFFFFF04
:105CB000FFFFFFFFFFFFFFFFFFFFFFFFFFFF786C0E
:105CC000B201B201F984FFFFFFFFFFFFFFFFFFFFFB
:105CD000FFFFFFFFFFFFFFFFFFFFFFFFBBA59201DD
:105CE000F3019201FFFFFFFF7CBE5101F301B201FE
:105CF0001754FFFFFFFFFFFFFFFFFFFFFFFFFFFF47
:105D0000FFFFFFFFFFFF398D9201F3019201D97C64
:105D1000FFFFFFFFFFFFFFFFFFFFFFFFFFFFFFFF93
:105D2000FFFFFFFFFFFFFFFFFFFFFFFFFFFFFFFF83
:105D3000FFFFFFFFFFFFFFFFFFFFFFFFFFFFFFFF73
:105D4000FFFFFFFFFFFFFFFFFFFFFFFFFFFFFFFF63
:105D5000FFFFFFFFFFFFFFFFDDE64F08F018F01821
:105D6000111911193111511151097109710992015A
:105D7000B201B201D201D201F201F3011302D20148
:105D8000354BFFFFFFFFFFFFFFFFFFFFFFFFFFFFA1
:105D9000FFFFFFFFFFFFFFFFFFFFFFFFFFFFFFFF13
:105DA000FDD67101F301B201FFFFFFFFFFFFFFFF0F
:105DB000FFFFFFFFFFFFFFFFFFFFFFFFFFFFFFFFF3
:105DC000FFFFFFFFFFFFFFFFFFFFFFFF786CB20148
:105DD000F20194123533153315331533153315335A
:105DE0001533153315333533D4229201F301920163
:105DF000F753FFFFFFFFFFFFB41AB201F301B20137
:105E00009201530A530A530A530A530A530A530A74
:105E1000530AB2019201F301F201B201FFFFFFFF49
:105E2000FFFFFFFFFFFFFFFFFFFFFFFFFFFFFFFF82
:105E3000FFFFFFFFFFFFFFFFFFFFFFFFFFFFFFFF72
:105E4000FFFFFFFFFFFFFFFFFFFFFFFFFFFFFFFF62
:105E5000FFFFFFFFFFFFFFFFFFFFFFFFFFFFFFFF52
:105E6000FFFFFFFFFFFFFFFFFBC54F00F018F1181A
:105E7000F018F01811191111311151095109710956
:105E800071019201B201B201910192017553DFFFDC
:105E9000FFFFFFFFFFFFFFFFFFFFFFFFFFFFFFFF12
:105EA000FFFFFFFFFFFFFFFFFFFFFFFFFFFFFDD62D
:105EB0007101F301B201FFFFFFFFFFFFFFFFFFFFD3
:105EC000FFFFFFFFFFFFFFFFFFFFFFFFFFFFFFFFE2
:105ED000FFFFFFFFFFFFFFFFFFFF786CB201130220
:105EE000F201D201D201D201D201D201D201D201FA
:105EF000D201D201D201D201F30192011302FFFFBC
:105F0000FFFFFFFFFFFFFFFF13029201F301F30109
:105F1000F201F201F201F201F201F201F201F201E9
:105F2000F301F301B2017101FDD6FFFFFFFFFFFF97
:105F3000FFFFFFFFFFFFFFFFFFFFFFFFFFFFFFFF71
