:020000040800F2
:10000000A09500204501000823530008C93A0008C4
:10001000215300085D140008FD6400080000000082
:10002000000000000000000000000000D15E000899
:100030007914000800000000C15C0008955F00080A
:100040005F0100085F0100085F0100085F01000810
:100050005F0100085F0100085F0100085F01000800
:100060005F0100085F0100085F0100085F010008F0
:100070005F0100085F0100085F0100085F010008E0
:100080005F0100085F0100085F0100085F010008D0
:100090005F0100085F0100085F0100085F010008C0
:1000A0005F0100085F0100085F0100085F010008B0
:1000B0005F010008156100085F0100085F0100088A
:1000C0005F0100085F0100085F0100085F01000890
:1000D0005F0100085F0100085F0100085F01000880
:1000E0005F0100085F0100085F0100085F01000870
:1000F0005F0100085F0100085F0100085F01000860
:100100005F0100085F0100085F0100085F0100084F
:100110007D6300085F0100085F0100085F010008BF
:100120005F0100085F0100085F0100085F0100082F
:10013000DFF80CD000F014FA00480047DD8C00080E
:10014000A09500200648804706480047FEE7FEE7E6
:10015000FEE7FEE7FEE7FEE7FEE7FEE7FEE7FEE777
:10016000995F00083101000810B5431A934209D283
:100170008318881803E010F8011D03F8011D521EB2
:10018000F9D210BD40EA01039B0703D009E008C97A
:10019000121F08C0042AFAD203E011F8013B00F84C
:1001A000013B521EF9D210BDD2B201E000F8012B82
:1001B000491EFBD270470022F6E710B513460A46E7
:1001C00004461946FFF7F0FF204610BD421C10F808
:1001D000011B0029FBD1801A704710B5002200E0F6
:1001E000521C835C8C5CA34201D1002BF8D1D8B2A5
:1001F000E1B2401A10BD30B480EA010202F00045BD
:1002000030F0004221F0004013D090B1C30DD40D66
:10021000C2F31601C0F31600E41A41F4000140F4E1
:1002200000027D34914201D3641C00E04900002C9F
:1002300002DA30BC002070474FF4000000239142E6
:1002400001D3891A034340084FEA4101F7D151B164
:10025000914202D14FF0004105E002D24FF001017E
:1002600001E06FF0010103EBC450284430BC00F002
:10027000E3B8420005D0C0F3C7525242914201DCBC
:100280000020704700EBC15070472DE9FE4F81EA16
:10029000030404F0004421F0004100944FF0000BEF
:1002A00023F0004350EA01045ED052EA03045BD01D
:1002B000C3F30A54C1F30A552C44A4F2F334019455
:1002C000A0FB0254C1F3130141F48011C3F31303E3
:1002D00043F4801301FB024400FB034E840A970A97
:1002E00044EA815447EA8357A4FB076802958D0AC4
:1002F00005FB07854FEA932C04FB0C542705029D50
:100300004FEA065847EA1637B5EB08056EEB070CBF
:10031000870E920E47EA811742EA8312A7FB020179
:10032000B6EB0B0164EB00042B0D43EA0C335E18B3
:1003300044EB1C50DA465146E7FB0201C5F31304B7
:100340004FEA0B3343EA14534FEA0432019C43EA69
:100350000603A4F10C040294009CCDE900B400F063
:10036000B1F803B0BDE8F08F00200146F9E796230D
:100370000022114600F069B800F0004230F0004061
:100380000AD0C10D01F56071C0F3160042EA0151B7
:10039000C20840071143704700200146704701F032
:1003A000004330B421F0004150EA010206D00A0DAA
:1003B000A2F56072C1F31301002A02DC30BC0020F8
:1003C0007047440F44EAC104C100E01830BC00EBA0
:1003D000C25000F031B82DE9F05F0546002092468A
:1003E0009B4688460646814640241BE028464146F7
:1003F0004746224600F0D5F853465A46C01A914166
:1004000010D311461846224600F0BCF82D1A67EBAF
:1004100001084F4622460120002100F0B3F817EBF7
:1004200000094E41201EA4F10104DFDC484631469C
:100430002A464346BDE8F09F0029A8BF7047401CEC
:10044000490008BF20F00100704710B4B0FA80FCEA
:1004500000FA0CF050EA010404BF10BC704749B127
:10046000CCF1200421FA04F411FA0CF118BF012197
:1004700021430843A3EB0C01CB1D4FEA00614FEA77
:10048000102042BF002010BC704700EBC350104446
:100490000029A4BF10BC7047401C490008BF20F0D1
:1004A000010010BC704710B5141E73F1000408DA87
:1004B000401C41F1000192185B411A4301D120F028
:1004C000010010BD2DE9F04D92469B4611B1B1FAE5
:1004D00081F202E0B0FA80F22032904600F052F849
:1004E00004460F4640EA0A0041EA0B0153465A46C9
:1004F000084313D0114653EA010019D0C8F1400255
:10050000504600F04EF805460E46504659464246C3
:1005100000F038F8084305D0012004E020463946B1
:10052000BDE8F08D0020054346EAE0762C433743D2
:100530000A986305E40AA0EB08000022FD0A44EAD9
:1005400047540A3002D500200146E9E70105101999
:100550006941DDE9084500196941BDE8F04DA2E7B0
:10056000064C074D06E0E06840F0010394E8070000
:1005700098471034AC42F6D3FFF7DEFD34F501089E
:1005800054F50108202A04DB203A00FA02F1002089
:1005900070479140C2F1200320FA03F319439040C1
:1005A0007047202A04DB203A21FA02F0002170472C
:1005B00021FA02F3D040C2F12002914008431946CB
:1005C000704770B58C1810F8015B15F0070301D166
:1005D00010F8013B2A1106D110F8012B03E010F8A6
:1005E000016B01F8016B5B1EF9D12B0705D40023C9
:1005F000521E0DD401F8013BFAE710F8013BCB1A6B
:10060000921C03E013F8015B01F8015B521EF9D55F
:10061000A142D8D3002070BD0029816802D041F0EA
:10062000010101E021F00101816070470D4910B521
:10063000884202D1012144150AE00B49884202D1C7
:100640000121041504E0094988420AD10121CC03A3
:10065000204605F065FB2046BDE81040002105F06E
:100660005FBB10BD0024014000280140003C014058
:10067000014600208968490700D501207047C06CF9
:1006800080B270470246002012680A4200D0012062
:100690007047014600208968090700D5012070478E
:1006A00010B542680E4B0C791A400B6842EA0422DE
:1006B0001343436083680B4A1340D1E9024222434B
:1006C0004C7943EA44031A438260C26A097C22F4EB
:1006D0007002491EC9B242EA0151C16210BD000058
:1006E000FFFEF0FFFDF7F1FF70B5072409290AD9D5
:1006F000C568A1F10A0606EB4606B440A543B3401F
:100700001D43C56007E0056901EB4106B440A54300
:10071000B3401D4305611F23072A09D2446B521EB3
:1007200002EB820293409C4391400C43446370BDB2
:100730000D2A09D2046BD21F02EB820293409C4324
:1007400091400C43046370BDC46A0D3A02EB82020F
:1007500093409C4391400C43C46270BD816841F05A
:100760000801816070470029816802D041F4A0012E
:1007700001E021F4A00181607047816841F004012B
:100780008160704710B5044800F090F8BDE8104053
:10079000014800F03BB800002600002010B50448D6
:1007A00000F084F8BDE81040014800F02FB80000C8
:1007B0002E0000200849884203D101230222194655
:1007C00005E00649884205D10123022200210620C6
:1007D00005F054BC70470000260000202E000020C9
:1007E0000849884203D100230222012105E006497D
:1007F000884205D1002302221946062005F03EBC9E
:1008000070470000260000202E00002010B504468E
:100810000188C07901290BD0022808D02046FFF7B3
:10082000C9FF09A1204600F03DFF0220E07110BD84
:100830000128FCD02046FFF7D3FF04A1204600F09A
:1008400031FF0120F2E700003064420032306442A0
:10085000000000000849884203D10023022207213A
:1008600005E00649884205D1002302220621052021
:1008700005F004BC70470000260000202E00002078
:100880000849884203D101230222072105E00649D5
:10089000884205D1012302220621052005F0EEBB86
:1008A00070470000260000202E00002070B504468E
:1008B000174A002517498079944204D1D1F83011A4
:1008C00007E0A5800BE0124A0832944203D1D1F828
:1008D0003C110029F5D0A188B1F5967F0BD20128F3
:1008E00014D02046FFF7CCFF0BA1204600F0DAFE23
:1008F0000120A07009E0022808D02046FFF7AAFFD7
:10090000204600F09FFEA5700220A07170BD00007F
:1009100026000020008022424F5645520000000071
:1009200010B50C4800F01AFC0A210A4800F0FCFC43
:100930000948D0F83001C1B2064800F093FB0548E1
:1009400000F02EFA034ABDE810400449104600F0BA
:100950007BBA00001C0B00200000214200F80308B5
:1009600010B50C4800F0FAFB0B210A4800F0DCFC43
:100970000948D0F82C01C1B2064800F073FB0548C5
:1009800000F00EFA034ABDE810400449104600F09A
:100990005BBA0000380B00200000214204F8030875
:1009A00010B50C4800F0DAFB0C210A4800F0BCFC42
:1009B0000948D0F82801C1B2064800F053FB0548A9
:1009C00000F0EEF9034ABDE810400449104600F07B
:1009D0003BBA0000540B00200000214208F8030835
:1009E00010B50C4800F0BAFB0D210A4800F09CFC41
:1009F0000948D0F82401C1B2064800F033FB05488D
:100A000000F0CEF9034ABDE810400449104600F05A
:100A10001BBA0000700B0020000021420CF80308F4
:100A200010B50C4800F0B9FB01210A4800F07CFC2D
:100A30000948D0F82001C1B2064800F013FB054870
:100A400000F0AEF9034ABDE810400449104600F03A
:100A5000FBB900008C0B00200000214210F80308B5
:100A600010B50C4800F099FB02210A4800F05CFC2C
:100A70000948D0F82C01C1B2064800F0F3FA054845
:100A800000F08EF9034ABDE810400449104600F01A
:100A9000DBB90000A80B00200080214216F80308F3
:100AA0001649884203D100230222194621E0144945
:100AB000884203D10023022201211AE01149884211
:100AC00003D100230222114613E00F49884203D1CB
:100AD0000023022203210CE00C49884203D10023A9
:100AE0000222042105E00A49884205D1002302229E
:100AF0000521042005F0C2BA704700001C0B00203D
:100B0000380B0020540B0020700B00208C0B0020B1
:100B1000A80B00201649884203D10123022200219C
:100B200021E01449884203D10123022219461AE028
:100B30001149884203D101230222114613E00F49D3
:100B4000884203D10123022203210CE00C49884290
:100B500003D101230222042105E00A49884205D17C
:100B6000012302220521042005F088BA7047000005
:100B70001C0B0020380B0020540B0020700B0020B1
:100B80008C0B0020A80B00203C4910B588420FD1E7
:100B900001231A460621052005F070FA05210023DD
:100BA0000122084605F06AFA00230122042111E01F
:100BB0003349884210D101231A461946062005F010
:100BC0005DFA002301221946062005F057FA00239A
:100BD0000122072105204BE02A4988420FD1012339
:100BE0001A460021052005F049FA002301220721B9
:100BF000042005F043FA00230122062137E02249B0
:100C000088420FD101231A460321052005F036FA48
:100C1000002301220221052005F030FA00230122E1
:100C20001146D7E7194988420FD101231A460221FC
:100C3000042005F023FA012200231146042005F0C8
:100C40001DFA00230122194611E01149884213D1EF
:100C500001231A460521042005F010FA042100237F
:100C60000122084605F00AFA00230122032104208C
:100C7000BDE8104005F002BA10BD00001C0B0020BA
:100C8000380B0020540B0020700B00208C0B002030
:100C9000A80B00203C4910B588420FD10023012247
:100CA0000621052005F0EAF9012305211A46084628
:100CB00005F0E4F900230122042111E033498842C0
:100CC00010D1012200231146062005F0D7F9012397
:100CD0001A460021062005F0D1F900230122072140
:100CE00005204BE02A4988420FD1002301221946F2
:100CF000052005F0C3F901231A460721042005F059
:100D0000BDF900230122062137E0224988420FD194
:100D1000002301220321052005F0B0F901231A4622
:100D20000221052005F0AAF9002301221146D7E788
:100D3000194988420FD1002301220221042005F025
:100D40009DF901231A461946042005F097F900235E
:100D50000122194611E01149884213D100230122D2
:100D60000521042005F08AF9012304211A460846CA
:100D700005F084F90023012203210420BDE810407E
:100D800005F07CB910BD00001C0B0020380B0020C2
:100D9000540B0020700B00208C0B0020A80B0020AF
:100DA00070B504464188C07D01290ED0022917D0B4
:100DB000032921D000281ED0204600F02FFA18A1C8
:100DC000204600F0E1FE002014E0012813D0204668
:100DD000FFF7DAFE14A1204600F0D6FE012009E05C
:100DE000022808D02046FFF755FF11A1204600F049
:100DF000CBFE0220E07570BD0328FCD020790325CE
:100E00000028204607D000F0A7F80BA1204600F0EC
:100E1000BBFEE57570BD00F09FF808A1F6E7000085
:100E20004E4F4E4500000000322E305600000000AC
:100E3000322E375600000000494350004943502DE0
:100E40004241434B000000002DE9FC410F463B4965
:100E500004461646D1E90101CDE900016D46384846
:100E600002F0E6F822883748C2F3071101703648CD
:100E7000D1B1012948D1A168814247DA627D042AB3
:100E800044D00122A91D384604F0ACFF01223146AE
:100E9000384604F099FF2046FFF73CFE2BA1204680
:100EA00000F072FE04202EE0012A0DD0002A2BD182
:100EB000607D032828D02046FFF7F2FD25A12046BB
:100EC00000F062FE03201EE0A16881420BDA627D21
:100ED000012A08D02046FFF71DFE1CA1204600F085
:100EE00053FE01200FE081420EDB607D02280BD013
:100EF00001222946384604F075FF01223146384662
:100F000004F062FF02206075BDE8FC818142FBDBDA
:100F1000607D0528F8D00122291D384604F062FFC3
:100F200001223146384604F04FFF2046FFF7B8FD56
:100F300008A1204600F028FE0520E4E73C920008C6
:100F400000FFFF00240000200000A0403230644277
:100F500000000000306442003C4910B588420FD1C7
:100F6000002301220621052005F088F80521002331
:100F70000122084605F082F801231A46042111E0F7
:100F80003349884210D1012200231146062005F082
:100F900075F8002301221946062005F06FF8012399
:100FA0001A46072105204BE02A4988420FD1002329
:100FB00001221946052005F061F8002301220721CE
:100FC000042005F05BF801231A46062137E0224988
:100FD00088420FD1002301220321052005F04EF89D
:100FE000002301220221052005F048F801231A46BA
:100FF0001946D7E7194988420FD10023012202215F
:10100000042005F03BF8012200231146042005F0DE
:1010100035F801231A46002111E01149884213D105
:10102000002301220521042005F028F804210023D3
:101030000122084605F022F801231A460321042064
:10104000BDE8104005F01AB810BD00001C0B0020D0
:10105000380B0020540B0020700B00208C0B00205C
:10106000A80B002010B504460079884228D0207EC5
:10107000401C207629A007F0C9FB2B492B488C4245
:1010800002D1D0F830011AE027491C318C4202D13C
:10109000D0F82C0113E0244938318C4202D1D0F829
:1010A00028010CE0204954318C4202D1D0F82401AF
:1010B00005E01D4970318C421ED1D0F8200120710D
:1010C000207E002817D0617E062911D3022819D06E
:1010D0002079D0B16088012819D0022819D00328BE
:1010E00019D013A1204600F04FFD00202076607635
:1010F000607E401C607610BD0B488C308442DFD18E
:101100000D48C5E703202076F2E70CA1EAE70EA11F
:10111000E8E70FA1E6E710A1E4E700006D6972209F
:101120006368616E676500001C0B002000002142AF
:101130004E4F4E4500000000008021424943502D93
:101140004241434B00000000322E305600000000A8
:10115000322E3756000000004943500010B50446B7
:10116000807BC107A07D0BD0012815D0204604F05C
:1011700029F8207B10B9204600F0FCFA01200AE093
:10118000002809D0204603F0E3FF207B10B9204659
:1011900000F0F0FA0020A07510BD10B50446807B69
:1011A000C107A07D17D0012809D0204604F00AF815
:1011B000207B10B9204600F0DDFA0120A075E08800
:1011C0000128204603D0BDE8104003F0F1B9BDE886
:1011D000104003F005BAE188012907D000281CD08F
:1011E000204603F0B5FF207B78B111E0022814D02F
:1011F000204603F0ADFF207B10B9204600F0BAFA7C
:10120000204603F0EDF9022006E0204600F0B2FA95
:10121000204603F0CDF90020A07510BD3C4910B563
:1012200088420FD1002301220621052004F026FF69
:10123000052100230122084604F020FF002301229B
:10124000042111E03349884210D1012200231146C4
:10125000062004F013FF002301221946062004F0A3
:101260000DFF00230122072105204BE02A49884277
:101270000FD1002301221946052004F0FFFE0023B0
:1012800001220721042004F0F9FE00230122062197
:1012900037E0224988420FD1002301220321052093
:1012A00004F0ECFE002301220221052004F0E6FEFA
:1012B000002301221146D7E7194988420FD10023A4
:1012C00001220221042004F0D9FE0122002311464C
:1012D000042004F0D3FE00230122194611E0114935
:1012E000884213D1002301220521042004F0C6FE08
:1012F000042100230122084604F0C0FE002301223D
:1013000003210420BDE8104004F0B8BE10BD000069
:101310001C0B0020380B0020540B0020700B002009
:101320008C0B0020A80B002070B50A4604469621BD
:10133000104602F063F9A0602188002511B101294F
:1013400004D007E01849884203DC03E017498842CB
:1013500000DB6582217C012904D11549884201DD29
:10136000658203E0608AB0F5967F0ED2207D012869
:101370000AD001252573204603F098FF0DA12046D1
:1013800000F002FC2574257570BD207D0228FBD07D
:101390002573204603F050FF204600F0F1FA257433
:1013A0000220207570BD0000295C4F40E17A943E18
:1013B000CDCCCC3E4F5645520000000030B587B032
:1013C00001214FF4057004F09FFC4FF4004004F03D
:1013D00079FC0F20ADF8140000248DF8174005A902
:1013E0001B4800F007FF0E20ADF814008DF81740E1
:1013F00005A9184800F0FEFE174D2846FFF716F91C
:101400004FF46020CDE9020401208DF804408DF8EE
:10141000100000948DF8054069462846FFF740F912
:1014200001212846FFF7F8F82846FFF797F92C46E0
:101430002046FFF72EF90028FAD12046FFF79DF944
:101440002046FFF715F90028FAD107B030BD00009B
:10145000001001400008014000240140FEE70000A8
:1014600003480449C2788A818078C88170470000A7
:10147000D40B00204C000020704700002DE9F843F9
:1014800001217C2004F040FCE020ADF80000102495
:10149000674F8DF8034003258DF8025069463846A2
:1014A00000F0A8FEE021384600F0F5FEADF800405F
:1014B0006946384600F09EFE1021384600F0EDFEE9
:1014C0004FF4F850ADF8000048268DF803606946E7
:1014D000384600F08FFE4FF48467ADF80070DFF8F7
:1014E00054818DF803408DF802506946404600F063
:1014F00081FE3946404600F0D0FE0120ADF80000E4
:101500006946404600F076FE0121404600F0C3FEE9
:101510004FF40C60ADF800008DF80360694640465A
:1015200000F068FEC020ADF80000434F8DF8034086
:101530008DF802506946384600F05CFEC0213846FE
:1015400000F0ABFE3020ADF800006946384600F0F0
:1015500051FE3021384600F09EFE6002ADF80000DA
:101560008DF803606946384600F044FE7C20ADF8F3
:101570000000324F8DF803408DF80250694638461E
:1015800000F038FE7C21384600F085FEADF80050B2
:101590006946384600F02EFE0321384600F07BFEF7
:1015A0002002ADF800008DF803606946384600F06F
:1015B00021FEE002ADF800008DF803606946384670
:1015C00000F018FE4020ADF800008DF803408DF8C3
:1015D00002501B4D6946284600F00CFE402128466B
:1015E00000F059FE2420ADF800006946284600F0BE
:1015F00001FE2421284600F050FE4FF4C064ADF8EF
:1016000000406946284600F0F5FD2146284600F0D6
:1016100042FE4FF47844ADF800406946284600F099
:10162000E9FD2146284600F038FEBDE8F8830000B9
:1016300000080140000C014000100140001401406E
:101640000018014010B504464FF6FF7001F0F0FCA1
:101650000E48844209D130233C221D21052001F08F
:10166000E5F91F220C210AA00BE00B4884420CD1A3
:1016700044233C223121052001F0D8F933220C21EA
:1016800006A0BDE8104001F013BB10BD26000020ED
:10169000414D5020310000002E000020414D5020CF
:1016A0003200000070B50E462649884201D1002460
:1016B00003E02549884200D1142424A13046FEF7D6
:1016C0008CFDF0B123A13046FEF787FD234D40B3DA
:1016D00023A13046FEF781FD002832D1284601F0D3
:1016E000A7FC04F13003782204F11D013D2001F034
:1016F0009DF904F11F024F211AA0BDE8704001F0CE
:10170000D7BAFF2001F094FC04F130033C2204F12D
:101710001D01052001F08AF904F11F020F210BA021
:10172000EBE7284601F084FC04F13003782204F151
:101730001D013D2001F07AF904F11F0248210BA0A0
:10174000DBE770BD260000202E0000204F564552DA
:1017500000000000323064420000000000FFFF0083
:101760003064420030206442202000003230206487
:101770004200000010B504465E4801F059FC5E4886
:10178000844216D1A07D4FF0300300284FF0B40200
:101790004FF01D014FF07B0005D001F047F91F22EB
:1017A000842156A09AE001F041F91F22872155A01B
:1017B00094E05648844216D1A07D4FF0440300289F
:1017C0004FF0B4024FF031014FF07B0005D001F033
:1017D0002DF9332284214EA080E001F027F9332235
:1017E00087214DA07AE04E48844216D1A07D4FF06B
:1017F000580300284FF0B4024FF045014FF07B0032
:1018000005D001F013F94722842146A066E001F0DB
:101810000DF94722872145A060E04648844216D151
:10182000A07D4FF06C0300284FF0B4024FF0590137
:101830004FF07B0005D001F0F9F85B2284213EA037
:101840004CE001F0F3F85B2287213DA046E03E48E2
:10185000844223D1A07BC00709D08023B4226D210C
:101860007B2001F0E3F86F22872138A036E0E08882
:101870004FF0800301284FF0B4024FF06D014FF09C
:101880007B0005D001F0D2F86F22842131A025E041
:1018900001F0CCF86F22872130A01FE0314884424C
:1018A00026D1A07BC00709D09423B42281217B20BC
:1018B00001F0BCF8832287212BA00FE0E0884FF0D5
:1018C000940301284FF0B4024FF081014FF07B00E8
:1018D00008D001F0ABF88322842125A0BDE8104098
:1018E00001F0E6B901F0A2F88322872122A0F5E7F2
:1018F00010BD000000FFFF001C0B00204C696E654E
:10190000203100004D69632031000000380B0020B9
:101910004C696E65203200004D6963203200000082
:10192000540B00204C696E65203300004D69632024
:1019300033000000700B00204C696E6520340000FD
:101940004D696320340000008C0B00204D6963203A
:10195000350000004C696E6520350000496D70202F
:1019600035200000A80B00204D69632036000000E0
:101970004C696E6520360000496D702036200000ED
:1019800010B504465D4801F053FB5D48844216D112
:10199000A07D4FF0300301284FF0B4024FF01D013D
:1019A0004FF07B0005D001F041F81F22842155A0A3
:1019B0008EE001F03BF81F22872154A088E05548B3
:1019C000844216D1A07D4FF0440301284FF0B402A9
:1019D0004FF031014FF07B0005D001F027F83322A2
:1019E00084214DA074E001F021F8332287214CA01E
:1019F0006EE04D48844216D1A07D4FF05803012877
:101A00004FF0B4024FF045014FF07B0005D001F0DC
:101A10000DF84722842145A05AE001F007F847223B
:101A2000872144A054E04548844216D1A07D4FF060
:101A30006C0301284FF0B4024FF059014FF07B00C6
:101A400005D000F0F3FF5B2284213DA040E000F0D0
:101A5000EDFF5B2287213CA03AE03D48844222D141
:101A6000A07D01280FD002284FF080034FF0B40270
:101A70004FF06D014FF07B000FD000F0D7FF6F22C9
:101A8000842134A024E08023B4226D217B2000F047
:101A9000CDFF6F22872131A01AE000F0C7FF6F222F
:101AA000872130A014E03148844225D1A07D01284F
:101AB00012D002284FF094034FF0B4024FF081018E
:101AC0004FF07B0012D000F0B1FF8322842128A0C8
:101AD000BDE8104001F0ECB89423B42281217B20B2
:101AE00000F0A4FF8322872123A0F1E700F09EFFEE
:101AF0008322872122A0EBE710BD000000FFFF003A
:101B00001C0B00204C696E65203100004D6963207C
:101B100031000000380B00204C696E652032000057
:101B20004D69632032000000540B00204C696E6543
:101B3000203300004D69632033000000700B00204B
:101B40004C696E65203400004D696320340000004C
:101B50008C0B00204C696E65203500004D696320B8
:101B600035000000496D702035200000A80B0020D2
:101B70004C696E65203600004D6963203600000018
:101B8000496D7020362000002DE9FC4188467049DF
:101B9000884201D1002417E06E49884201D1142403
:101BA00012E06D49884201D128240DE06B4988423A
:101BB00001D13C2408E06A49884201D1502403E065
:101BC0006849884200D1642467A14046FEF705FBBE
:101BD000664F4FF49B7640F20315002842D064A173
:101BE0004046FEF7FAFA00284DD063A14046FEF7C2
:101BF000F4FA002858D062A14046FEF7EEFA624D92
:101C00004FF4817600285FD060A14046FEF7E5FAE8
:101C100000286BD05FA14046FEF7DFFA00287AD09B
:101C20005DA14046FEF7D9FA00287AD05DA1404672
:101C3000FEF7D3FA00286DD1384601F0F9F9009586
:101C400004F13003324604F11D01B520019501F085
:101C5000A3F804F11F02CD2154A002B0BDE8F04169
:101C600001F026B8384601F0E3F904F130033246BA
:101C700004F11D01284600F0D9FE04F11F024FF4C3
:101C800087714CA0E9E7384601F0D2F904F130033E
:101C9000324604F11D01284600F0C8FE04F11F027F
:101CA00040F20B1145A0D8E7FF2001F0C1F904F183
:101CB0003003B42204F11D017B2000F0B7FE04F1D3
:101CC0001F0282212CA0C8E7384601F0B1F9009527
:101CD00004F13003324604F11D01B520019501F0F5
:101CE0005BF804F11F02BE2136A0B6E7384601F0CA
:101CF0009FF9009504F13003324604F11D01B5202F
:101D0000019501F049F804F11F02BE2130A0A4E7BB
:101D100001E006E019E0384601F08AF900950195E6
:101D200006E0384601F084F94FF40000009001907D
:101D300004F13003324604F11D01B52001F02CF806
:101D400004F11F02BE2125A087E7BDE8FC81000049
:101D50001C0B0020380B0020540B0020700B0020BF
:101D60008C0B0020A80B00203064420000FFFF0015
:101D700032306442000000004F564552000000001F
:101D8000322E30560000000066666600322E37564E
:101D900000000000494350004943502D4241434B4D
:101DA000000000004E4F4E45000000004E6F6E6573
:101DB00000000000203020644220200032302064E7
:101DC00042000000566F6C7420322E305600000026
:101DD000566F6C7420322E37560000004343502853
:101DE00032345629000000002DE9FC5FDFF8FC8149
:101DF0004FF47F09CDE900981B234FF49B72072114
:101E0000052000F0C9FF7A4C00274FF0300A4FF050
:101E10001D0B07EB87000AEB80060BEB8005009497
:101E200033463C2229460520019400F0B5FF00947A
:101E30003346294678223D20019400F0ADFF0094FE
:101E400033462946B4227B20019400F0A5FF00947C
:101E5000334629464FF48172B520019400F09CFF6F
:101E60000094334629464FF49B7240F203100194CC
:101E700000F092FF7F1C062FCBDBCDE90098AA2350
:101E80004FF49B729621052000F086FF0025A046A6
:101E90004FF01F094FF0040AC5EBC501002409EB00
:101EA00081070AEB810600BFC4EBC40000EB4001D0
:101EB00001F1C003CDF800803A463046AC31CDF890
:101EC000048000F069FF641C032CEDDB6D1C0B2DFE
:101ED000E2DB022001F0E6F84FF6FF7001F0A8F80F
:101EE000444801F0B9F806220F2143A000F0E0FEBB
:101EF0000622BE2142A000F0DBFE95220F2142A067
:101F000000F0D6FE434801F0A7F81F220C2142A0A2
:101F100000F0CEFE33220C2141A000F0C9FE472282
:101F20000E2141A000F0C4FE47224F2140A000F046
:101F3000BFFE5B220E2140A000F0BAFE5B224F21C3
:101F40003BA000F0B5FEAD2208213DA000F0B0FEA0
:101F5000AD222B213BA000F0ABFEAD2247213AA0E1
:101F600000F0A6FEAD22632138A000F0A1FEAD2254
:101F70007F2137A000F09CFEAD229B2135A000F010
:101F800097FEAD22B72134A000F092FEAD22D321FE
:101F900032A000F08DFEAD22EF2122A000F088FEDD
:101FA000AD2240F20B111DA000F082FEAD2240F2E6
:101FB00027112BA000F07CFED822052129A000F0DB
:101FC00077FEC422052128A000F072FEFF2001F058
:101FD0002FF8C422202125A000F06AFE02B0C422FE
:101FE000BDE8F05F3C2122A000F062BE808080004E
:101FF000666666003CB400084F55545055540000C6
:10200000494E50555400000054544C20436F6E7498
:10201000726F6C005CEB0108416D702031000000B4
:10202000416D7020320000004C696E652033000065
:1020300030206442000000004C696E6520340000CE
:1020400042697400390000003800000037000000C9
:1020500036000000350000003400000033000000AE
:1020600030000000572F5200312F30002B35560022
:10207000474E440070B505464FF43026304600F018
:1020800059F8042811D1094C206940F00200206160
:102090006561206940F040002061304600F04AF858
:1020A000216941F6FD721140216170BD002002409E
:1020B00008490420CA68D20701D001207047CA68C5
:1020C000520701D502207047C968C906FBD5032015
:1020D00070470000002002400248016941F0800181
:1020E0000161704700200240F0B506464FF40057EA
:1020F0000D46384600F01EF804280CD1064C206925
:1021000040F0010020613580384600F013F8216965
:10211000BA1E11402161F0BD00200240034802496F
:102120004160034941607047230167450020024038
:10213000AB89EFCD00B50346FFF7BAFF03E000BF60
:10214000FFF7B6FF5B1E012803D0002B00D105204E
:1021500000BD002BF4D1FAE72DE9F0430446C56831
:1021600087B090468946002000F074FF064625B1EE
:10217000287910B146F0020001E026F0020000F0DC
:1021800069FF2069012558B1D4E902128DE82600C3
:10219000039563882288046841464846A0471EE0AC
:1021A000124F134B214638681B68427CE068984701
:1021B00030B9E088012801D0002001E03868806B48
:1021C000A288E388A1680095CDE90410CDE9023228
:1021D0000195638822884146484602F055FA07B0C7
:1021E0003046BDE8F04300F035BF0000B4010020E8
:1021F000AC010020F0B5CA78002502F00F03D2062A
:1022000001D58A7813430A784FF00F0E12F0FF0FB2
:102210004FF001021CD004680F8802FA05F637401F
:10222000B74211D14FEA850C0EFA0CF724EA0707E2
:1022300003FA0CF43C43CF78282F02D0482F02D069
:1022400002E0466100E006616D1C082DE4D30460E5
:102250000C88FF2C1ED944685FF0000606F10807C1
:1022600002FA07F50F882F40AF420FD14FEA860CD4
:102270000EFA0CF7BC4303FA0CF73C43CF78282F37
:1022800000D14561CF78482F00D10561761C082E1A
:10229000E4D34460F0BD41617047016170470000C4
:1022A0002DE9F04FDFF828B191B04FF0FF35DBF8A2
:1022B0000030B3F922100691DE69B3F924A0F46965
:1022C000A189814206D8E289824203D3471AD4F811
:1022D000008012E0D4E90181002970D00A8882428E
:1022E0006DD84D8885426AD3801A82B2486800EB67
:1022F0008200B0F90070B0F90250781C5FD0307ED7
:10230000A27C014600FB02F9207CCDE90810B3F95C
:102310002A60304602F020FDC0B20E90DBF80010BB
:1023200007FB0980A37C8A6B0127CDE90402CDE974
:102330000273C869DDE90832C17E807ECDE9000103
:102340005146069802F0A0F9681C18D046F0020029
:1023500002F002FDDBF80000A37C05FB0981826B23
:10236000CDE90273CDE90412C069DDE90832C17E0E
:10237000807ECDE900015146069802F085F9DBF830
:1023800000005D46C069417E007E814214D9022E64
:1023900012D086F0040002F0DFFC2868C069027EDB
:1023A000C37E857E02FB03A1437E099A06985344AF
:1023B00002FB050202F022FB0E9802F0CDFCDBF8D6
:1023C0000000627C418C1144418411B0BDE8F08F63
:1023D000B401002004480068C069C06909B1027CEA
:1023E0000A60407C70470000B40100200220088091
:1023F0007047C06982898A4202D8C2898A4210D253
:10240000806880B102888A420DD843888B420AD303
:10241000406800EB8100A0EB8200B0F900000028CA
:1024200001DB01207047002070470000F0B52B4D04
:10243000044687B028682146B0F92A60C069C0699F
:1024400000F082F9002847D041680088201A00EB8C
:10245000400001EB80042078401C4708304602F021
:102460007BFC06461E48D0F800C0BCF1000F19D016
:102470000021A068CDE904010422012001A90090F7
:1024800085C1286894F90320DCF80070B0F92410A5
:10249000B0F92200114494F90220637810442278A4
:1024A000B84711E0A068CDE90070286894F90320CE
:1024B0006378B0F92410B0F92200114494F9022095
:1024C0001044227800F082F9304602F045FC28687A
:1024D0002279418C1144418407B0F0BDB401002041
:1024E000D80100202DE9F0432F4C034687B0206827
:1024F0001946B0F92A80C069C06900F05CF900286B
:102500004ED041680088181A01EBC0054046AE78ED
:1025100002F022FC814620686A680123816BCDE9C4
:102520000236CDE90421C169CB7E8A7ECDE9002344
:102530000B7EB0F924102A78B0F9220002F0A4F83A
:102540002068C069477E067EB7421DD9C07E4743DA
:102550004643B8F1020F17D000F06AFC804600F045
:102560004FFC00F065FD21682A78CB69B1F92200A3
:10257000B1F92410DB7E02FB0302CB19314402F0D7
:102580003DFA404600F054FD484602F0E5FB206865
:102590006A78C369B0F922109B7E02FB0311418463
:1025A00007B0BDE8F0830000B401002030B50F4C47
:1025B00005460B4620682946C069C06900F0C4F88A
:1025C000002812D0416800882468281A00EB4002D5
:1025D0000420E46900EB8200085CA47E6043002BC9
:1025E00003D011F822106143196030BDB4010020FE
:1025F00003460D4810B500680C461946C069C0690D
:1026000000F0A2F870B141680088181A00EB400091
:1026100001EB8000D0E9001280682160C4E901204C
:10262000002010BD012010BDB40100200120088051
:10263000704700B5C06900F087F8002800D001207D
:1026400000BD00002DE9F35F0E46002500F0F0FB11
:10265000DFF8A8808346D8F8000090F82A004007E9
:1026600002D500F0E5FB01E000F0CAFB00F0E0FC61
:10267000D8F800000024C269B0F92290B0F92470A3
:10268000517ED27E01FB02FA1EE0684600F024FD76
:102690000546D8F800002946C069C06900F054F822
:1026A00090B141680088281A00EB400001EB8000DF
:1026B00090F9021000790844D8F80010C969897EA1
:1026C0004843002800DD0444761EDED51DB12846AF
:1026D00000F00CFE044407EB0A0309EB04025B1E46
:1026E0004846521E394602F089F9584600F0A0FCCF
:1026F000034901200870BDE8FC9F0000B4010020E0
:10270000E00100202DE9F3410D4D0E4F0E462868E3
:10271000B0F92A40A0070AD17A680098904706E0ED
:10272000684600F0D9FC2968C96909688847761E9F
:10273000F6D50020387028684485BDE8FC8100008B
:10274000B4010020E001002006E002888A4202D89D
:1027500042888A4202D280680028F6D17047000081
:1027600030B50E4C05460B4620682946C069C06945
:1027700000F021F8002810D04168008824682A1A47
:102780000120E46900EBC200085CA47E6043002BDA
:1027900003D011F832106143196030BDB40100203C
:1027A00001200880704700B5C06900F004F80028D7
:1027B00000D0012000BD06E002888A4202D842888B
:1027C0008A4202D280680028F6D17047FEB50E4ECC
:1027D000DDE908543668367C16F003060CD0012E6D
:1027E00003D0022E0DD0032E05D1084ECDE90054A2
:1027F000029605F00FF9FEBDCDE9005405F0BAF8D8
:10280000FEBD034EF2E70000B4010020194E00089F
:10281000914D0008002801D004F034BB704738B552
:102820000546FFF7F7FF040009D000F08FF82A46AD
:102830000021009000F0A2FE684600F0A3F82046B8
:1028400038BD0000024A106021F00300506070475C
:102850002090002010B5002814D004460A48006BD0
:1028600010F8341000290DD002290BD2042101EBFD
:10287000C4014158486804F0C9FA2046BDE8104038
:1028800005F0EEBD10BD0000648F0020002805D0CB
:10289000034A916B016001B148609063704700008A
:1028A000648F00202DE9F041044605F0C7FC26485E
:1028B000E41C24F00305C16B2D1DA94200D90D466F
:1028C000846B13E054F8042CAA420ED184B1216821
:1028D00009B162684A60616809B122680A60826B66
:1028E000A2422ED1216881632BE02468002CE9D11B
:1028F0008046416B80680F1857F8040C3E1A306808
:1029000038B1002005F0D8FD57F8040C3E1A3068A5
:10291000B8B97068A84214DB3044441B304605F057
:10292000B1FDD8F80810491BC8F80810D8F81010E5
:102930002944C8F8101070683146401B04F066FA4C
:1029400020C42046BDE8F081648F002005498A69D3
:10295000521C8A61096B01EBC0010A78521C0A7093
:1029600000F028B8648F00200549102805D94A686E
:10297000B0EB520F02D3500800E01020886070477F
:10298000209000200A4902680B6B52F8082C03EBD8
:10299000C2021378022B03D38B690BB15B1E8B61D0
:1029A0001178491E1170002101600846704700002F
:1029B000648F0020002806D00349042202EBC000E7
:1029C000096B085808307047648F002010B5C2B2F8
:1029D000CBB2D21A02D5C2F1000212B293B2C0F346
:1029E0000722C1F3072403FB03F3121B01D5524254
:1029F00012B2000C92B2A0EB114002FB023200B204
:102A0000002801DA404200B280B200FB002010BD75
:102A100010B50021084600F03BFA40F6FF72504224
:102A2000BDE8104013460146AFF300802DE9FC419C
:102A300007461C4615460E46042002F08DF98046D6
:102A40001148C068C16C006D0F4406440D44044435
:102A5000ADF80070ADF80450ADF80260ADF8064076
:102A6000684604F03DF807E023462A4631463846DA
:102A700001F0C4FF03F0F6FF0028F5D1404602F054
:102A80006BF9BDE8FC810000A80100202DE9F041B0
:102A90001C4616460D460746022B02DB0020BDE809
:102AA000F0811C20FFF7FEFE0028F8D00DB1056173
:102AB0000AE0094A52F8241009B905E011460A68EB
:102AC000002AFBD1096901618461868200210160CD
:102AD0004160C0E90217E2E7CC01002070B51D4655
:102AE000FFF7D4FF040001D000F00EF8E0680068A2
:102AF00020B90348006800EB85008465204670BD5E
:102B0000B4010020FFF7C2BE70B590B38269022AFB
:102B100030DA1C4C54F8221019B944F822002FE086
:102B200019464B68002BFBD106E0CB68C5681B68D3
:102B30002D68AB4203DD09680029F6D11AE0C1B166
:102B4000CB68C6681B683668B3420CD1838A012BF8
:102B500005D008E01946DB681B68AB4203DB0B6855
:102B6000002BF7D129B14B6833B118604A68426035
:102B700004E0FFE7012070BD44F8220048600160D6
:102B8000002070BDCC01002005F012BE022801DB40
:102B900000207047054951F8200004E0C168096829
:102BA0000029F6D000680028F8D17047CC01002039
:102BB0002DE9FC4706005BD000F042F93B4C814612
:102BC0002068B0F9228000F043F9216807468A8C1A
:102BD000D01B888441E000BF47F6FF71304600F00B
:102BE00069FB82460146304600F03AFB2168054603
:102BF00091F82C0000F0030001283FD0022839D0C2
:102C000000204A8C101A4884ADF800006A1E104457
:102C1000ADF80400888CADF80200A9F10101084468
:102C2000ADF806006A465146304600F0C1FA216808
:102C3000BDF8020088845146304600F063FA06442D
:102C400030780A281CD00D281AD0BDF80000216861
:102C500028444884307818B1761C30780028BBD1DD
:102C60002068818C39448184818D21F00301818524
:102C7000BDE8FC8705EBD5704010C2E72846C0E7E9
:102C8000206890F82C1001F0030101290BD00229D3
:102C900009D0018C418431780A29DBD1828C02EB86
:102CA00009018184D6E7A0F82280F4E7B40100206E
:102CB000024B1B6859849A84FFF77ABFB401002045
:102CC0002DE9FF4F324F98460446B0F800B0B0F8F7
:102CD00002A0C66838682F4B89B0427C1B68DDF8BB
:102CE0005890214630469847050005D1E0880128D4
:102CF00000D001E03868856B1EB1307908B1022040
:102D000000E0002000F0A6F9069038680A99C26C2D
:102D10005718016D0B98ADF81C700E18781E0BFB40
:102D20000800ADF82000701E0AFB0900ADF8220073
:102D3000ADF81E6007A803F0D3FE20E0206968B15B
:102D4000D4E9023CCDE9003CCDE90289D0F800C0CD
:102D50006388228831463846E0470EE0A188E28841
:102D6000A068CDE90221CDE9040553465A46314613
:102D70003846CDE9008901F087FC03F073FE002896
:102D8000DCD106980DB0BDE8F04F00F063B900004B
:102D9000B4010020AC0100202DE9F04F0C4616498B
:102DA00087B00D68DDE91098E96C0F18286D8D1853
:102DB0000619C418ADF81070ADF81450ADF81260D3
:102DC000ADF8164004A803F08BFE002811D0DFF800
:102DD0002CB04FF0000ACDE90098CDE902BA2B469D
:102DE00022463946304604F04AFE03F03BFE0028F6
:102DF000F1D107B0BDE8F08FB401002069490008A7
:102E000010B501F02BFEBDE8104001F0C1BE00007E
:102E100002490968C9694A6800211047B4010020C5
:102E2000024A1268D269526810470000B4010020BB
:102E300010B501F01BFEBDE8104001F0A9BE000076
:102E400002480068C069407E70470000B40100205D
:102E50000A490020096891F82C2002F00C02042A8B
:102E600007D0082A01D00C2A02D1C869007E400888
:102E70007047C869007E401E70470000B401002002
:102E8000024951F82000006940687047CC010020D9
:102E900070B50D4605F02CF90446284605F030F9CA
:102EA000204370BD124810B5016821F00101016096
:102EB0001048012181601049016000680F49884273
:102EC00000D0FEE700F05AF90D492E20087000F0FE
:102ED00054F90C4805F064F905F0AEFE04460021F3
:102EE000084600F0C3F803F037FC204610BD000090
:102EF000002000E000300240C2A507F4CDB5E8B5DF
:102F0000A80100202C90002038B5040018D00D48EE
:102F10000068006EA04201D100F06DF82046FFF776
:102F200015FD0090406908B100F000F900980068B4
:102F3000FFF7E8FD6846FFF725FD2046FFF78AFC0E
:102F400038BD0000B401002010B5002821D009B31D
:102F50000AB3B1F90040B2F900309C4200DA2346CE
:102F60000380B1F90240B2F902309C4200DA2346F4
:102F70004380B1F90440B2F904309C4200DD23469D
:102F80008380B1F90610B2F90620914200DC1146A7
:102F9000C18010BD11460A6802604968416010BDD9
:102FA00000280BD003880B44038083881944818058
:102FB000418811444180C1881144C1807047B0F9F3
:102FC0000220B1F906309A4213DCB1F90220B0F9BF
:102FD00006309A420DDCB0F90020B1F904309A4273
:102FE00007DCB1F90010B0F90400814201DC0120D6
:102FF00070470020704710B501F042FE01F084FFD9
:10300000BDE8104003F07CBA70B504460548022CB8
:103010000068457C02D24474FFF7EDFF024804606B
:10302000284670BDB40100205802002001F04ABEBD
:1030300001F080BE034A6FF070411268116301F025
:103040007FBE0000B4010020014988607047000085
:10305000A801002001F080BE03490968CA6900B1D7
:10306000C861104670470000B4010020094A30B41E
:103070001080094A1180094A1268537C084A52F8A4
:103080002330DA68146A0A46A446014630BC184662
:1030900060470000DC010020DE010020B4010020B8
:1030A000CC01002003490968B1F92A20488510465F
:1030B00070470000B401002002480068002800D0DA
:1030C00000477047BC02002002498A6802B9886044
:1030D000FFF7F2BFB00200202DE9F041084E044690
:1030E00005683068016828468847074630684168A7
:1030F00028468847284420603846BDE8F081000013
:10310000B80100202DE9F0410C4606460025064F87
:1031100005E0386841683046884706440544641E27
:10312000F7D22846BDE8F081B801002038B5054641
:10313000FFF70CFC00908189491E0CB2848168461F
:10314000FFF720FC002C02D12846FFF783FB38BD97
:1031500010B54FF4A044204605F058FE2146FFF775
:1031600071FB8020FFF700FCBDE810400148FFF72D
:103170006BBF000074F20108704770470A4810B531
:10318000816900290ED101218161FFF7E1FF01F082
:1031900019FF054905481C310860BDE81040084684
:1031A00000F0ACB910BD0000A8010020AD830008FC
:1031B0007CB5064628480D46006868B1002003F03B
:1031C0008FFC06E06A462946304603F02DFF03F0E7
:1031D00049FC0028F6D17CBD106800901F4C506857
:1031E00001902268BDF8000032F84C1F0844ADF889
:1031F0000000BDF8020091880844ADF80200BDF857
:10320000040011880844ADF80400BDF80600918858
:103210000844ADF80600684603F062FC0EE000BF0B
:103220002068BDF800106A464184BDF80210818410
:103230002946304603F0F8FE03F014FC0028EFD1D5
:10324000206830F8221F428D891A01804188C28D82
:10325000891A41807CBD0000D8010020B401002003
:1032600073B5124A01A90098126890470024009093
:10327000C8B10F4900250968C969496959B10A6887
:103280004AB1019990477CBD6846FFF725FF054686
:10329000FFF7BEFD04440198401E0190F4D5284676
:1032A00000F024F8044420467CBD000038020020D1
:1032B000B401002073B50D460098002490B10A496E
:1032C0000968C969496959B14A684AB129469047AC
:1032D0007CBD6846FFF700FF20B10A2802D0641CBD
:1032E000AC42F6DB20467CBDB401002038B500249A
:1032F00069460094FFF794FD0099814200DD0C1AA5
:10330000204638BDB0F90030B1F90020934200DA10
:103310000280B0F90230B1F90220934200DA428013
:10332000B0F90430B1F90420934200DD8280B0F995
:103330000620B1F906108A4200DDC180704770B5E1
:10334000B1F90040B2F900309C4200DD2346038011
:10335000B1F90250B2F90240A54200DD2C4644808A
:10336000B1F90460B2F90450AE4200DA3546858006
:10337000B1F90610B2F90620914200DB1146C18076
:103380009D4201DBA14201DA002070BD012070BD29
:10339000014602480068407C00F002B8B4010020F9
:1033A000F8B501260F46054602284BDA264C5FB3D6
:1033B000012F02D0022F45D116E054F8250088B91C
:1033C0002846FFF7E3FB0090B8B3C0680D21426ABE
:1033D00068469047020035D039460098904754F827
:1033E00025000026401C2BE0FFF7D0FB009020B307
:1033F000C0680D21426A68469047020022D03946D3
:103400000098904700261DE054F8250001280FD1B0
:103410002846FFF7BBFB009050B1C0680D21426AFF
:1034200068469047020003D039460098904700262E
:1034300054F8250010B1012101E003E00021401AF9
:1034400044F825003046F8BDA802002070B5FF23DF
:10345000B3EB116F29D0C3B200F47F4500F47F04B1
:10346000060E5343554354435643C2F1FF00CAB2BC
:1034700002FB003201F47F4303FB005301F47F059C
:1034800005FB0044090E01FB0065C2F307204FF461
:103490007F4101EA1322090201EA14214FF07F4320
:1034A000104303EA05430843184370BD2DE9F04F6C
:1034B0001546DDE90CB90C4606464FF0000818E049
:1034C0000B9F4FF0FF0A01CE08CCAAEB106202FB63
:1034D00009F2B2FBFAF1CAB21946FFF7B7FF20F0C2
:1034E0007F4001C57F1EEED1099808F1010804EB69
:1034F0008004D845E4D3BDE8F08F000002494A6952
:103500004260486170470000A80100202DE9F041A9
:10351000184C06460D46206898461746B0F90A1022
:10352000A94224DCB0F90E10A94220DBB0F9081042
:10353000B1421CDCB0F90C00B04218DB2946304621
:1035400001F0C8FA01463A464046FFF77FFF01F016
:103550008DF8034620682A46417C074850F8210030
:10356000C1688C693146A446BDE8F0416047BDE8BA
:10357000F0810000B4010020CC01002010B502E071
:1035800000F8011B521E0AB18307F9D1930818D025
:1035900001EB014402F0030204EB042405E00460A3
:1035A00044608460C46010301B1F042BF7DA01E014
:1035B00010C05B1E002BFBD103E000BF00F8011B15
:1035C000521E002AFAD110BD10B50B4C014607233C
:1035D00001222046FDF788F801212046FDF7C3F8B7
:1035E00002212046FDF74EF80028F9D02046BDE81C
:1035F0001040FDF744B80000002401402DE9F041DF
:1036000000250E4607462C4605E03846FFF7DCFF4E
:10361000641C0544E4B2B442F7D33046FCF7A7FE7D
:1036200004462846FCF7A3FE2146FCF7E4FD6FF0B4
:103630000B01FCF71EFEFCF79FFE4FF06632034BBA
:10364000FCF723FEBDE8F041FCF7A9BE66660A4020
:103650002DE9F0475FA005F0D9F8684E68A03188E1
:1036600005F0D4F871886AA005F0D0F831796CA023
:1036700005F0CCF8317B6EA005F0C8F8724F73A04E
:10368000398805F0C3F8798874A005F0BFF8397956
:1036900076A005F0BBF8397B78A005F0B7F8DFF825
:1036A000F4817DA0B8F8001005F0B0F8B8F8021069
:1036B0007DA005F0ABF898F804107FA005F0A6F8FF
:1036C00098F80C1080A005F0A1F8DFF8149285A0FE
:1036D000B9F8001005F09AF8B9F8021085A005F0C5
:1036E00095F899F8041087A005F090F899F80C1057
:1036F00088A005F08BF88D4C8DA0218805F086F808
:1037000061888FA005F082F8217991A005F07EF8FC
:10371000E18893A005F07AF8217B95A005F076F872
:10372000994D9AA0298805F071F869889BA005F049
:103730006DF829799DA005F069F8E9889FA005F04A
:1037400065F8297BA1A005F061F8DFF898A2A6A092
:10375000BAF8001005F05AF89AF80210A6A005F081
:1037600055F8DFF8A8A2AAA0BAF8001005F04EF8A4
:103770009AF80210AAA005F049F8DFF8B8A2AEA0A6
:10378000BAF8001005F042F8BAF80210AEA005F041
:103790003DF8BAF80410B0A005F038F8B17DB2A039
:1037A00005F034F8B97DB4A005F030F898F816109B
:1037B000B5A005F02BF899F81610B7A005F026F87B
:1037C000A17DB9A005F022F8A97DBDE8F047BAA017
:1037D00005F01CB856657273696F6E206D6F646575
:1037E0006C203A205041493636322D312E305F322E
:1037F00030323330393038200D0A00001C0B0020E5
:103800004155315F6761696E2025780D0A0000001F
:103810004155315F626961732025780D0A0000000F
:103820004155315F6D69632025780D0A0000000065
:103830004155315F766F6C5F70726F746563742091
:1038400025780D0A00000000380B00204155325F3A
:103850006761696E2025780D0A0000004155325FCE
:10386000626961732025780D0A0000004155325FBE
:103870006D69632025780D0A000000004155325F14
:10388000766F6C5F70726F746563742025780D0AB3
:1038900000000000540B00204155335F6761696EE2
:1038A0002025780D0A0000004155335F626961737D
:1038B0002025780D0A0000004155335F6D696320B3
:1038C00025780D0A000000004155335F766F6C5F6C
:1038D00070726F746563742025780D0A0000000013
:1038E000700B00204155345F6761696E2025780DAB
:1038F0000A0000004155345F626961732025780D2C
:103900000A0000004155345F6D69632025780D0A77
:10391000000000004155345F766F6C5F70726F7409
:103920006563742025780D0A000000008C0B0020D0
:103930004155355F6761696E2025780D0A000000EA
:103940004155355F626961732025780D0A000000DA
:103950004155355F6D69632025780D0A0000000030
:103960004155355F6973656E2025780D0A000000AA
:103970004155355F766F6C5F70726F74656374204C
:1039800025780D0A00000000A80B00204155365F85
:103990006761696E2025780D0A0000004155365F89
:1039A000626961732025780D0A0000004155365F79
:1039B0006D69632025780D0A000000004155365FCF
:1039C0006973656E2025780D0A0000004155365F49
:1039D000766F6C5F70726F746563742025780D0A62
:1039E0000000000026000020414D50315F676169F2
:1039F0006E2025780D0A0000414D50315F6F7665CD
:103A0000726C6F61642025780D0A00002E00002082
:103A1000414D50325F6761696E2025780D0A0000C4
:103A2000414D50325F6F7665726C6F61642025780E
:103A30000D0A0000C40B0020494F5F636F6E66697A
:103A4000672025780D0A0000494F5F6F7574707507
:103A5000742025780D0A0000494F5F696E707574F7
:103A60002025780D0A0000004C696E6B315F466CB2
:103A700061672025780D0A004C696E6B325F466CD9
:103A800061672025780D0A004C696E6B335F466CC8
:103A900061672025780D0A004C696E6B345F466CB7
:103AA00061672025780D0A004C696E6B355F466CA6
:103AB00061672025780D0A004C696E6B365F466C95
:103AC00061672025780D0A00FEE7000070B5094CFB
:103AD0000025C4F8A45104F5D07400F067F82560FF
:103AE000022005F08FF801206060022005F08AF8BE
:103AF000656070BD0000224270B5094C0025C4F815
:103B0000A45104F5D07400F051F80126266002207B
:103B100005F078F86660022005F074F8656070BD05
:103B2000000022422DE9F0478146002400F028F8E9
:103B30000025124E2F464FF0010800BFC6F8A471B1
:103B4000022005F05FF8C6F8A4816006040ED6F8DE
:103B5000200108B1641CE4B2012005F053F86D1C8B
:103B6000EDB2082DEAD3B9F1000F04D0FFF7AEFF94
:103B70002046BDE8F087FFF7BFFFF9E700002242CB
:103B800008B50121102002F0BFF84FF48070ADF8A5
:103B9000000048208DF8030003208DF802006946DC
:103BA0000148FEF727FB08BD0010014008B50121C0
:103BB000102002F0A9F84FF48070ADF8000010203A
:103BC0008DF8030003208DF8020069460148FEF7D6
:103BD00011FB08BD001001402DE9F0410646FFF73A
:103BE000E5FF114C0027C4F8A4713D464FF00108D1
:103BF000300602D5C4F8A08101E0C4F8A0717006B7
:103C0000060E022004F0FEFFC4F8A481022004F096
:103C1000F9FFC4F8A471022004F0F4FF6D1CEDB2AA
:103C2000082DE5D3BDE8F0810000224270B5FFF712
:103C3000BDFF094C0120C4F8A001C4F8A401042070
:103C400004F5D07404F0DEFF00252560042004F0A4
:103C5000D9FF656070BD00000000224210B5FFF77B
:103C6000A5FF094C0020C4F8A401C4F8A001042059
:103C700004F5D07404F0C6FF012060602060BDE848
:103C80001040042004F0BEBF0000224270B50024A2
:103C9000FFF776FF0D4D0126C5F8A061304604F010
:103CA000B1FFC5F8A461012004F0ACFF07E0641C7B
:103CB000E4B2FA2C03D9FFF7D1FF012070BDD5F88B
:103CC00020010028F3D1C5F8A40170BD00002242F4
:103CD00070B5094C0025C4F8905104F5C67400F085
:103CE00067F82560022004F08DFF0120606002204B
:103CF00004F088FF656070BD0000234270B5094C78
:103D00000025C4F8905104F5C67400F051F801265E
:103D10002660022004F076FF6660022004F072FF45
:103D2000656070BD000023422DE9F0478146002404
:103D300000F028F80025124E2F464FF0010800BF72
:103D4000C6F89071022004F05DFFC6F8908160060D
:103D5000040ED6F80C0108B1641CE4B2012004F092
:103D600051FF6D1CEDB2082DEAD3B9F1000F04D05C
:103D7000FFF7AEFF2046BDE8F087FFF7BFFFF9E78A
:103D80000000234208B50121402001F0BDFF0820BA
:103D9000ADF8000048208DF8030003208DF80200E4
:103DA00069460248FEF726FA08BD000000180140E7
:103DB00008B50121402001F0A7FF0820ADF8000060
:103DC00010208DF8030003208DF802006946024898
:103DD000FEF710FA08BD0000001801402DE9F0417F
:103DE0000646FFF7E5FF114C0027C4F890713D46E9
:103DF0004FF00108300602D5C4F88C8101E0C4F808
:103E00008C717006060E022004F0FCFEC4F890814E
:103E1000022004F0F7FEC4F89071022004F0F2FED4
:103E20006D1CEDB2082DE5D3BDE8F0810000234202
:103E300070B5FFF7BDFF094C0120C4F88C01C4F830
:103E40009001042004F5C67404F0DCFE0025256012
:103E5000042004F0D7FE656070BD0000000023421E
:103E600010B5FFF7A5FF094C0020C4F89001C4F875
:103E70008C01042004F5C67404F0C4FE01206060C7
:103E80002060BDE81040042004F0BCBE00002342C6
:103E900070B50024FFF776FF0D4D0126C5F88C6143
:103EA000304604F0AFFEC5F89061012004F0AAFE90
:103EB00007E0641CE4B2FA2C03D9FFF7D1FF01201C
:103EC00070BDD5F80C010028F3D1C5F8900170BD84
:103ED0000000234208B50121082001F015FF8020D1
:103EE000ADF8000048208DF8030003208DF8020093
:103EF00069460248FEF77EF908BD0000000C01404B
:103F000008B50121082001F0FFFE8020ADF8000077
:103F100010208DF8030003208DF802006946024846
:103F2000FEF768F908BD0000000C01402DE9F041E2
:103F30000646FFF7E5FF114C0027C4F898713D468F
:103F40004FF00108300602D5C4F89C8101E0C4F8A6
:103F50009C717006060E022004F054FEC4F898818D
:103F6000022004F04FFEC4F89871022004F04AFECB
:103F70006D1CEDB2082DE5D3BDE8F0810080214233
:103F800070B5FFF7BDFF094C0120C4F89C01C4F8CF
:103F90009801042004F5CC7404F034FE002565601B
:103FA000042004F02FFE256070BD00000080214237
:103FB00010B5FFF7A5FF094C0020C4F89801C4F81C
:103FC0009C01042004F5CC7404F01CFE0120206048
:103FD0006060BDE81040042004F014BE008021425F
:103FE00070B50024FFF776FF0D4D0126C5F89C61E2
:103FF000304604F007FEC5F89861012004F002FE87
:1040000007E0641CE4B2FA2C03D9FFF7D1FF0120CA
:1040100070BDD5F81C010028F3D1C5F8980170BD1A
:104020000080214270B5094C0025C4F8985104F570
:10403000CC7400F067F86560022004F0E3FD012015
:104040002060022004F0DEFD256070BD008021426A
:1040500070B5094C0025C4F8985104F5CC7400F0F3
:1040600051F801266660022004F0CCFD2660022093
:1040700004F0C8FD256070BD008021422DE9F047A5
:104080008146002400F028F80025124E2F464FF0FC
:10409000010800BFC6F89871022004F0B3FDC6F80D
:1040A00098816006040ED6F81C0108B1641CE4B2C5
:1040B000012004F0A7FD6D1CEDB2082DEAD3B9F183
:1040C000000F04D0FFF7AEFF2046BDE8F087FFF7F2
:1040D000BFFFF9E70080214208B50121082001F067
:1040E00013FE8020ADF8000048208DF80300032067
:1040F0008DF8020069460248FEF77CF808BD000012
:10410000000C014008B50121082001F0FDFD8020D0
:10411000ADF8000010208DF8030003208DF8020098
:1041200069460248FEF766F808BD0000000C014031
:104130002DE9F0410646FFF7E5FF114C0027C4F8D2
:1041400098713D464FF00108300602D5C4F89C81B5
:1041500001E0C4F89C717006060E022004F052FDC6
:10416000C4F89881022004F04DFDC4F89871022033
:1041700004F048FD6D1CEDB2082DE5D3BDE8F081DB
:104180000080214270B5FFF7BDFF094C0120C4F843
:104190009C01C4F89801042004F5CC7404F032FDAD
:1041A00000256560042004F02DFD256070BD000031
:1041B0000080214210B5FFF7A5FF094C0020C4F88C
:1041C0009801C4F89C01042004F5CC7404F01AFD95
:1041D000012020606060BDE81040042004F012BDA2
:1041E0000080214270B50024FFF776FF0D4D0126B7
:1041F000C5F89C61304604F005FDC5F898610120C2
:1042000004F000FD07E0641CE4B2FA2C03D9FFF7C8
:10421000D1FF012070BDD5F81C010028F3D1C5F8ED
:10422000980170BD008021422DE9F843012128202A
:1042300001F06AFD4FF47046ADF800601024DFF81D
:104240007C928DF8034003258DF80250694648465C
:10425000FDF7D0FF31464846FEF71DF8DFF86082D3
:104260006601ADF8006069464046FDF7C3FF314680
:104270004046FEF710F82601ADF800608DF80340C7
:104280008DF8025069464046FDF7B4FF314640467E
:10429000FEF701F8A70239464846FDF7FCFF642007
:1042A00004F096FC39464846FDF7F7FF642004F019
:1042B0008FFC31464046FDF7F0FF642004F088FC97
:1042C000112000F03DFE782004F082FCCF2000F0A9
:1042D00037FE002000F048FEC12000F045FE3020EF
:1042E00000F042FEED2000F02BFE642000F03CFECA
:1042F000284600F039FE122000F036FE812000F042
:1043000033FEE82000F01CFE852000F02DFE00208A
:1043100000F02AFE792000F027FECB2000F010FEEE
:10432000392000F021FE2C2000F01EFE002000F0BD
:104330001BFE342000F018FE022000F015FEF720CE
:1043400000F0FEFD202000F00FFEEA2000F0F8FD56
:10435000002000F009FE002000F006FEC02000F062
:10436000EFFD1D2000F000FEC12000F0E9FD12204D
:1043700000F0FAFDC52000F0E3FD332000F0F4FD6D
:104380003F2000F0F1FDC72000F0DAFD922000F0A0
:10439000EBFD3A2000F0D4FD552000F0E5FD36207D
:1043A00000F0CEFDA82000F0DFFDB12000F0C8FD38
:1043B000002000F0D9FD122000F0D6FDB62000F05C
:1043C000BFFD0A2000F0D0FDA22000F0CDFD44206A
:1043D00000F0B6FD022000F0C7FDF22000F0B0FDB5
:1043E000002000F0C1FD262000F0AAFD012000F011
:1043F000BBFDE02000F0A4FD0F2000F0B5FD222061
:1044000000F0B2FD1C2000F0AFFD1B2000F0ACFD61
:10441000082000F0A9FD0F2000F0A6FD482000F0C4
:10442000A3FDB82000F0A0FD342000F09DFD052084
:1044300000F09AFD0C2000F097FD092000F094FD9B
:104440000F2000F091FD072000F08EFD002000F00D
:104450008BFDE12000F074FD002000F085FD23209D
:1044600000F082FD242000F07FFD072000F07CFD9D
:10447000204600F079FD072000F076FD382000F09E
:1044800073FD472000F070FD4B2000F06DFD0A2009
:1044900000F06AFD132000F067FD062000F064FDC7
:1044A000302000F061FD382000F05EFD0F2000F0AC
:1044B0005BFD292000F044FDBDE8F883000C0140BD
:1044C000001401402DE9F05FDFF8C490314E99F8F7
:1044D0000000A8B300244FF49A7A40F2251840F265
:1044E000271B3078E04010F0010F2ED02A48FEF74D
:1044F0009FFDA4EBC40508EB85070AEB8502EA23C0
:10450000D6213846FEF792FA3946D82223A0FEF784
:10451000CFFB30792AE000BFFEF788FA2946C42293
:104520001FA004E0FEF782FA2946C4221DA0FEF770
:10453000BFFB641CE4B2072CD3D9002189F800101A
:1045400019480078B080BDE8F09FA4EBC40508EBE3
:1045500085070AEB8502EA23D6213846FEF766FA7C
:104560003946D82211A0FEF7A3FBB0784FF0D5034F
:10457000C0B2E04010F0010F40F2311000EB8502B4
:104580000BEB85054FF0C1012846CBD0C4E70000F6
:1045900055000020C40B002000FFFF005200000067
:1045A00031000000300000004200002057000000F1
:1045B000074A0021904203D10648C0F8981170477D
:1045C000054A9042FBD10548C0F8801170470000B1
:1045D0008C0B002000002342A80B00200080214209
:1045E000074A0121904203D10648C0F8981170474C
:1045F000054A9042FBD10548C0F880117047000081
:104600008C0B002000002342A80B002000802142D8
:10461000054B10B502EB02121B68D2B29847034952
:104620000968084010BD000010020020C8020020E8
:104630002DE9F04104461D4616460F462A2000F09B
:104640007FFC204600F072FC304600F06FFC2B200F
:1046500000F076FC384600F069FC284600F066FC65
:10466000BDE8F0412C2000F06BBC00000449054A75
:104670000968497C52F82110096909680847000057
:10468000B4010020CC0100202DE9F04F05468DB08B
:104690007C48DDF860901A9C00681E4617464FF073
:1046A000000A78B11B9B199ACDF808900593CDE9C3
:1046B0000324DDE91623CDE90023046833463A4696
:1046C000284682E0DDE9160201EB060805EB070C3F
:1046D0001043A8F10108ACF1010C012806D0C9F182
:1046E00008000590002002910890C8E06648026822
:1046F000B2F90A30581A002806DD361A002E65DD98
:104700001946199B00FB0344B2F90E00A8EB000008
:10471000002802DD361A002E58DDB2F90C00ACEB91
:104720000000002800DD3F1AB2F908300020AB423B
:1047300037DD581B3F1A4B46B9F1080F28D007DC6C
:10474000012B0DD0022B13D0B9F1040F29D117E0A2
:10475000102B1FD0182B20D0B9F1200F21D11CE035
:1047600020F0070304EBE0041D4400F0070018E00C
:1047700020F0030304EBA0041D4400F0030010E04C
:1047800020F0010304EB60041D4400F0010008E088
:10479000044404E004EB400401E004EB800405441D
:1047A0000020002F12DD1B9BDDF864C0CDE904035F
:1047B000CDE902C4CDE90069527C34483B4650F84B
:1047C0002200C26854680A462946A0470DB0BDE8D9
:1047D000F08F17990298084409902B49401E0090C9
:1047E0000A68B2F90A30834241DCB2F90E1002982D
:1047F00081423CDB4FF0000BD84603950B9434E02C
:10480000BBF1000F05D10B984FF0080B10F801AB6E
:104810000B900599ABEB090B3AFA01F00AFA09F192
:1048200001F0FF0A04D118490968097C890716D4E8
:1048300015490968C96B0A680C921B9A0AB152F8AB
:104840002000086016990398009B4218521E029996
:1048500000F0D4F80C490C980968C96B08600399FA
:10486000169808F1010808440390B845C8DB089879
:10487000401C089009980290199804440898B04286
:10488000A7DBA3E7D8010020B4010020CC01002061
:10489000F0B40C4612490968B1F90A30A3421CDC95
:1048A000B1F90E30A34218DBB1F90830834200DDC4
:1048B0001846B1F90C30934200DA1A4682420CDBFA
:1048C0004B7C084951F8235013462246E9688E680C
:1048D00001462846B446F0BC6047F0BC7047000073
:1048E000B4010020CC0100200A46174930B4096801
:1048F000B1F90A30934225DCB1F90E30934221DB45
:10490000B1F9083083421DDCB1F90C30834219DB68
:104910000B7C0E4CDB0709D0497C54F82130D96858
:10492000CC690146A44630BC18466047CB6B497C35
:104930001B6854F82140E1688D6901462046AC4669
:1049400030BC604730BC7047B4010020CC0100206F
:1049500010B514460B460246FFF76AFE2046BDE836
:10496000104000F0E3BA0000124B30B41B68B3F9FA
:10497000084084421CDCB3F90C40844218DBB3F9D4
:104980000A408C4200DD2146B3F90E40944200DA21
:1049900022468A420CDB5C7C074B53F82440E368D8
:1049A000DD6813460A4601462046AC4630BC6047E7
:1049B00030BC7047B4010020CC0100202DE9F04745
:1049C00080461F46581E83B21646501E82B20C46C1
:1049D0004046DDF82090FFF72BFE0AE0454604E054
:1049E000484600F0A3FA6D1CADB2B542F8D3641C82
:1049F000A4B2BC42F2D3BDE8F087000038B5134C36
:104A00002468B4F90850854200DD2846B4F90C50FA
:104A1000954200DA2A46824217DBB4F90A508D42E9
:104A200000DD2946B4F90E509D4200DA2B468B4238
:104A30000BDB0093647C064B53F82440E3681D694C
:104A400013460A4601462046A84738BDB401002057
:104A5000CC010020082103F0F3BA000002480068EE
:104A6000806B006870470000B401002002480068B5
:104A7000C06B006870470000B401002002480921A3
:104A80000068407C03F0DCBAB4010020092103F087
:104A9000D7BA70B500252C462046FEF777F800B14E
:104AA0006D1C641C022CF7DB284670BD02480068B0
:104AB000407C00F003B80000B401002010B5FEF700
:104AC00065F8002805D0C168CA6ABDE81040022117
:104AD000104710BD10B500F005F8BDE8104000F01B
:104AE00057B800002DE9FC41144E0546144F3068BC
:104AF0000C46407C57F82000C1680A6B6946904715
:104B0000BDF90000A8420BDCBDF90400A84207DB98
:104B1000BDF90200A04203DCBDF90600A04202DAA2
:104B20000020BDE8FC8130682246407C57F8200018
:104B3000C1684B6929469847F3E70000B40100209B
:104B4000CC010020AFF300802DE9F041002809D00E
:104B5000876837B10D4E716819B10468B4F5807F6C
:104B600002DD0020BDE8F0813068844200DD0446AB
:104B7000002507E057F82500FFF778FD716841F838
:104B800025006D1CA542F5DB7068EBE740020020B4
:104B90000449054A0968497C52F8211009694968A5
:104BA00008470000B4010020CC010020704700003D
:104BB00010B500F01F01074A074BC0F34514C0F3BE
:104BC000C4201B5D105C515C00EB032000EB014036
:104BD00010BD000098F40108B8F4010810B50A4CA3
:104BE000606860B920688000FDF75CFE606040B1DD
:104BF00004F10801054808600846FEF77FFC002024
:104C000010BD012010BD000040020020D983000823
:104C10002DE9F041FFF73DFF0746002528E0284633
:104C2000FDF7B4FF18B32846FEF7EEF98046284694
:104C3000FFF710FF082817DC0F48104950F825002F
:104C40000069884210D02846FFF720FF064600245E
:104C500008E0E0B2FFF79CFF0246E1B2284600F010
:104C600081F8641CB442F4DB4046FEF7CDF96D1CBC
:104C7000BD42D4DBBDE8F081CC01002014F5010871
:104C800010B50E4C0E492068407C51F8200050B100
:104C9000C1680968042903D000680028F8D102E03F
:104CA00008B1FDF771FF20680021016600F10801DD
:104CB0004161BDE8104000F02FB80000B4010020B1
:104CC000CC01002001490968496808473C020020DE
:104CD000044909680A7C520701D5C96B00E0896B59
:104CE00008607047B40100207CB5094C0546206877
:104CF000417C084850F82100C1680A6B694690471A
:104D000020686A4629460830FEF719FB7CBD000082
:104D1000B4010020CC0100200448016804484A7C0A
:104D2000083150F82200C268126B1047B40100200D
:104D3000CC01002001490968096808473C020020AD
:104D4000044909680A7C520701D5896B00E0C96BE8
:104D500008607047B4010020014909688968084764
:104D60003C020020F8B515460E460124FDF70EFF63
:104D7000009058B1C0681021426A6846904703000D
:104D800004D02A4631460098984700242046F8BDB2
:104D90002DE9F04717000C46054636D01C49086837
:104DA000B0F90A20A24230DCB0F90E20A2422CDB7E
:104DB000B0F90820AA4228DCB0F90C20AA4224DB72
:104DC000144E0F2F02D3C16B0B6813E0C06B8846E3
:104DD0000068FFF7DDFE814621462846FFF77AFE90
:104DE00001463A464846FFF713FCFFF73FFC0346EF
:104DF000D8F800002246407C56F82000C1688E6931
:104E00002946B446BDE8F0476047BDE8F08700009A
:104E1000B4010020CC0100202DE9F04114000E4621
:104E200007463FD0204D2868B0F90A10B14239DC5E
:104E3000B0F90E10B14235DBB0F90810B94231DCDF
:104E4000B0F90C00B8422DDB31463846FFF742FE80
:104E500080462868C06B0068FFF79AFE4FF00F0C81
:104E6000C2B26243B2FBFCF300F47F4200F47F0164
:104E70006243B2FBFCF26143B1FBFCF188EA030040
:104E800050404840FFF7F2FB034628683246417C19
:104E9000064850F82100C1688C693946A446BDE82F
:104EA000F0416047BDE8F081B4010020CC01002052
:104EB000F8B515460E460124FDF768FE009058B17E
:104EC000C0680B21426A68469047030004D02A4616
:104ED00031460098984700242046F8BDF8B515469D
:104EE0000E460124FDF752FE009058B1C0680A2119
:104EF000426A68469047030004D02A46314600982B
:104F0000984700242046F8BD10B5074C2068006B78
:104F1000FFF7ACFBFFF714FF2068406BFFF7A6FB21
:104F2000BDE81040FFF7D4BEB401002010B5044620
:104F3000000A00F019F8E0B2BDE8104000F014B823
:104F400070B5084D06464FF4007421462846FDF71B
:104F5000A2F9304600F008F821462846BDE8704026
:104F6000FDF79BB9001401402DE9F047144E0546AA
:104F70004FF4805949463046FDF78DF900244FF42F
:104F80000048771439463046FDF785F92806414632
:104F9000304602D5FDF781F901E0FDF77CF939468D
:104FA0003046FDF77AF96806641C050EE4B2082C59
:104FB000E8D349463046BDE8F047FDF76EB900003A
:104FC000000C014010B500231A4609490948FDF7B5
:104FD00085FD40F24114F12221460020FFF768FFD1
:104FE0002146F122BDE810400020FFF777BF000006
:104FF000A8E0010860B40008012902D04FF0FF309A
:10500000704700207047002818D0410817D0810849
:1050100017D0C10817D0010917D0410917D0010ACC
:1050200017D0410A17D0010B15D0C10B13D0010CBA
:1050300011D0810C11D0000E11D02020704701201A
:1050400070470220704703207047042070470520F6
:1050500070470820704710207047122070471820B2
:10506000704770B515460E460446FEF789FF204688
:10507000FEF75CFFFEF7B4FF3046FEF757FFFEF782
:10508000AFFF2846FEF752FFFEF7AAFFFEF790FF9C
:10509000002070BD10B5022201231146062000F049
:1050A000EDFF322003F094FD02220023114606207A
:1050B00000F0E4FF012302220321062000F0DEFFBE
:1050C000322003F085FD002302220321062000F098
:1050D000D5FF012302220421062000F0CFFF322059
:1050E00003F076FD002302220421062000F0C6FF13
:1050F000012302220521062000F0C0FF322003F028
:1051000067FD002302220521062000F0B7FF0621DB
:1051100001230222084600F0B1FF322003F058FDBF
:10512000062100230222084600F0A8FF01230222E4
:105130000721062000F0A2FF322003F049FD0023E2
:1051400002220721BDE81040062000F097BF0000B2
:105150001649884203D100230222114621E0144956
:10516000884203D10023022203211AE01149884218
:1051700003D100230222042113E00F49884203D106
:105180000023022205210CE00C49884203D10023B0
:105190000222062105E00A49884205D100230222A5
:1051A0000721062000F06ABF704700001C0B00209A
:1051B000380B0020540B0020700B00208C0B0020BB
:1051C000A80B00201649884203D101230222114670
:1051D00021E01449884203D10123022203211AE06D
:1051E0001149884203D101230222042113E00F490F
:1051F000884203D10123022205210CE00C49884298
:1052000003D101230222062105E00A49884205D183
:10521000012302220721062000F030BF7047000062
:105220001C0B0020380B0020540B0020700B0020BA
:105230008C0B0020A80B00201649884203D10123C3
:105240000222062105E01449884204D101230222EA
:10525000072104201BE01149884203D101230222C7
:10526000002113E00E49884203D10123022219468E
:105270000CE00C49884203D101230222114605E0CB
:105280000949884205D1012302220321052000F0AB
:10529000F5BE70471C0B0020380B0020540B00207B
:1052A000700B00208C0B0020A80B002016498842B0
:1052B00003D100230222062105E01449884204D1CB
:1052C00000230222072104201BE01149884203D158
:1052D00000230222194613E00E49884203D100231D
:1052E000022201210CE00C49884203D10023022252
:1052F000114605E00949884205D100230222032115
:10530000052000F0BBBE70471C0B0020380B0020AE
:10531000540B0020700B00208C0B0020A80B0020E9
:10532000FEE7704770B50F23C47801780122F4B10D
:10533000144C2468457804F4E064C4F5E064240A5D
:10534000C4F10406E3408478B5401C402C4301F1CD
:10535000E021230181F80034007800F01F018A4029
:105360004009800000F1E020C0F8002170BD01F08C
:105370001F0082404809800000F1E020C0F8802131
:1053800070BD00000CED00E02DE9F84F8248844D1F
:105390000024006800901A228049284600F014FD7D
:1053A0007E4E4FF6FF77E84636F81400B8420BD130
:1053B0000F2C05EB44004FF0010201D8694601E0D3
:1053C00008F1020100F00EFD641CE4B2102CEBD9D0
:1053D0001A227249284600F0F7FC724B308803F11C
:1053E0001C0418806D4803F1380503F15406408809
:1053F00058806A4803F1700101F11C028088208006
:105400006648DFF8A49101F1380AC08860806348DB
:1054100009F10808008928806048408968805F4851
:10542000808930805D48C08970805C48008A08802F
:105430005A48408A48805948808AC8805748C08A5C
:1054400010805648008B50805448408BD080534881
:10545000878BA9F80070C08BA8F800004F48008C1B
:10546000AAF8000083464D48478CAAF80270808C49
:10547000D8814A48C08CE0814848008DE88147487F
:10548000408DF0814548808DC8814448C08DD081D1
:105490004248078E45484780404F7F8E878044486A
:1054A000D0F830711F71D0F82C712771D0F82871A5
:1054B0002F71D0F824713771D0F8200108713D4860
:1054C000D0F82C013C4F1071012038703B4F4FF445
:1054D000967C38703A4F38703A4F38703A4F38707F
:1054E0003A4F38703A4F38703A4F38703A4F3870F8
:1054F000A3F812C0A4F812C0A5F812C0A6F812C0F2
:10550000A1F812C0A2F812C00320187520752875E2
:105510003075087510750020187420742874307464
:105520000874107405279F75A775AF75B7758F75CB
:105530009775587560756875707548755075DF7525
:10554000E775EF75F775CF75D775187620762876DD
:10555000307608761076587660766876707648767B
:105560005076A9F804C0A8F804C089F8060088F8A5
:10557000060089F8070088F807000BF0FF010320F8
:1055800003F0ACFC0A2003F023FB9AF80210012080
:1055900003F0A4FCBDE8F88F3C920008D002002084
:1055A00000F803081C0B0020260000200C0300203C
:1055B00000002142008021424D0000204E000020CA
:1055C0004F00002050000020510000205200002019
:1055D00053000020540000205500002010B5FBF7B8
:1055E0009FF9FBF7BDF9FBF7DBF9FBF7F9F9FBF7DF
:1055F00017FAFBF735FAFBF7C5F8FBF7CFF8BDE86C
:105600001040FEF75FBF000008B5FDF74BFCFFF749
:10561000BBFE022003460022009011460748FDF71A
:105620004FFB642003F0D4FAFDF7F2F90448FDF7CC
:10563000FDFCBDE80840FCF7D7BB000094E0010882
:10564000666666002DE9F04F87B000F0E1FAFE4C87
:10565000207808B1FBF704FF207800250146831E5F
:10566000DFF8E883DFF8E893DFF8E8A3DFF8E8B3D2
:105670000120FA4EFA4F06F10E02019207F10E02D6
:10568000009208F10E02059209F10E0204920AF14D
:105690000E0203920BF10E020292222B77D2DFE868
:1056A00003F0111C232F34404551565B60656A7727
:1056B0008395A9B4F3F1F0EFEEEDECEBEAE9E8E75E
:1056C000E6E5E4E3E049E74E607001220C31304644
:1056D00000F088FB0122DD4904E0DB490122607013
:1056E0000C31AEE130467AE1DE4ED749A070361D6E
:1056F00001220C31304600F075FB0122D449F1E75C
:10570000D1490122A0700C31D1E1D64ECE49E070D2
:10571000083601220C31304600F064FB0122CD49ED
:10572000E0E7C9490122E0700C31D8E1CD4EC6490D
:1057300020710C3601220C31304600F053FB01225F
:10574000C549CFE7C049012220710C31DFE1BE49D4
:10575000012260710C317FE0BB49012260710C3184
:10576000F9E1B9490122A0710C31B4E0B649012236
:10577000A0710C310EE2BB4EB349E0711C36012220
:105780000C31304600F02EFB0122B749AAE72DE28A
:10579000B44EAD4920721E3601220C31304600F065
:1057A00021FB0122B1499DE7AE4EA7496072203628
:1057B00001220C31304600F015FB0122AC49304685
:1057C00000F002FBAA480178032010E0A54F9E4993
:1057D0006072223701220C31384600F003FBA44EE0
:1057E0000122B11C384600F0EFFAB178012003F035
:1057F00075FBFCE1002003F049FB9E4801789C48C2
:1058000081809DA003F002F8F1E1964F60712C3782
:1058100001223846216900F0E5FA01223846019953
:1058200000F0D2FA8F4F8849143701220C313846E4
:1058300000F0D8FA0122B11D384600F0C5FABF1EAB
:1058400001223846216900F0CDFA0122B11C384608
:1058500000F0BAFA21690122824E1036304600F07B
:10586000C1FA01227D493DE7ADE19BE177E157E1D6
:105870003EE125E10DE1D5E0B4E08BE075E05FE0CD
:1058800049E033E02FE0FFE7764EA0712E3601228B
:105890003046216900F0A6FA01223046009900F056
:1058A00093FA704E68491A3601220C31304600F0E6
:1058B00099FA0122B91D304600F086FAB61E01227F
:1058C0003046216900F08EFA0122B91C304600F002
:1058D0007BFA21690122634E1636304600F082FAC7
:1058E00001225F49FEE6FDF7B3FE80E15D4E5649B9
:1058F0006070243601220C31304600F073FA012228
:105900003046059900F060FA564E2169B61C012216
:105910003046891DB7E0534E4B49A0702636012210
:105920000C31304600F05EFA01223046049900F056
:105930004BFA4C4E2169B61D01223046891DB9E053
:10594000484E4149E070283601220C31304600F0C3
:1059500049FA01223046039900F036FA414E216996
:105960000A3601223046891DBCE03E4E3649207180
:105970002A3601220C31304600F034FA012230463A
:10598000029900F021FA374E21690E360122304685
:10599000891DBFE0334F2C4960712C3701220C3137
:1059A000384600F01FFA01223846019900F00CFA3F
:1059B0002C4F012214373846216900F013FA0122D6
:1059C000B11D384600F000FA2169BF1E0122384699
:1059D00011F1060100F006FA0122B11C384600F070
:1059E000F3F904E11F4E1849A0712E3601220C3143
:1059F000304600F0F7F901223046009900F0E4F952
:105A0000184E01221A363046216900F0EBF90122C6
:105A1000B91D304600F0D8F9B61E21690122304682
:105A2000891DBAE00F4E607024360122304621698C
:105A300000F0D8F901223046059900F0C5F9216936
:105A40000122084EB61C1DE04C0000201C0B00205B
:105A5000380B0020540B0020700B00208C0B002012
:105A6000A80B002000F80308260000202E000020CC
:105A7000C40B0020420000204255463D25780D0A07
:105A800000000000304600F0ADF9012208F10201EB
:105A900028E6A0705A4E01223046216900F0A2F992
:105AA00001223046049900F08FF921690122544EF9
:105AB000203E304600F096F9012209F1020111E67C
:105AC0004F4EE070B61C01223046216900F08AF981
:105AD00001223046039900F077F921690122484EEE
